{
	"crowdfunfding.sol": {
		"crowdfundingg": {
			"abi": [
				{
					"inputs": [
						{
							"internalType": "uint256",
							"name": "_target",
							"type": "uint256"
						},
						{
							"internalType": "uint256",
							"name": "_deadline",
							"type": "uint256"
						}
					],
					"stateMutability": "nonpayable",
					"type": "constructor"
				},
				{
					"inputs": [
						{
							"internalType": "address",
							"name": "",
							"type": "address"
						}
					],
					"name": "contributors",
					"outputs": [
						{
							"internalType": "uint256",
							"name": "",
							"type": "uint256"
						}
					],
					"stateMutability": "view",
					"type": "function"
				},
				{
					"inputs": [],
					"name": "deadline",
					"outputs": [
						{
							"internalType": "uint256",
							"name": "",
							"type": "uint256"
						}
					],
					"stateMutability": "view",
					"type": "function"
				},
				{
					"inputs": [],
					"name": "getbalance",
					"outputs": [
						{
							"internalType": "uint256",
							"name": "",
							"type": "uint256"
						}
					],
					"stateMutability": "view",
					"type": "function"
				},
				{
					"inputs": [],
					"name": "manager",
					"outputs": [
						{
							"internalType": "address",
							"name": "",
							"type": "address"
						}
					],
					"stateMutability": "view",
					"type": "function"
				},
				{
					"inputs": [],
					"name": "mincontribution",
					"outputs": [
						{
							"internalType": "uint256",
							"name": "",
							"type": "uint256"
						}
					],
					"stateMutability": "view",
					"type": "function"
				},
				{
					"inputs": [],
					"name": "noOfcontributors",
					"outputs": [
						{
							"internalType": "uint256",
							"name": "",
							"type": "uint256"
						}
					],
					"stateMutability": "view",
					"type": "function"
				},
				{
					"inputs": [],
					"name": "raisedamount",
					"outputs": [
						{
							"internalType": "uint256",
							"name": "",
							"type": "uint256"
						}
					],
					"stateMutability": "view",
					"type": "function"
				},
				{
					"inputs": [],
					"name": "refund",
					"outputs": [],
					"stateMutability": "nonpayable",
					"type": "function"
				},
				{
					"inputs": [],
					"name": "sendEther",
					"outputs": [],
					"stateMutability": "payable",
					"type": "function"
				},
				{
					"inputs": [],
					"name": "target",
					"outputs": [
						{
							"internalType": "uint256",
							"name": "",
							"type": "uint256"
						}
					],
					"stateMutability": "view",
					"type": "function"
				}
			],
			"devdoc": {
				"kind": "dev",
				"methods": {},
				"version": 1
			},
			"evm": {
				"assembly": "    /* \"crowdfunfding.sol\":74:1420  contract crowdfundingg\r... */\n  mstore(0x40, 0x80)\n    /* \"crowdfunfding.sol\":417:610  constructor(uint _target, uint _deadline)\r... */\n  callvalue\n  dup1\n  iszero\n  tag_1\n  jumpi\n  0x00\n  dup1\n  revert\ntag_1:\n  pop\n  mload(0x40)\n  sub(codesize, bytecodeSize)\n  dup1\n  bytecodeSize\n  dup4\n  codecopy\n  dup2\n  dup2\n  add\n  0x40\n  mstore\n  0x40\n  dup2\n  lt\n  iszero\n  tag_2\n  jumpi\n  0x00\n  dup1\n  revert\ntag_2:\n  dup2\n  add\n  swap1\n  dup1\n  dup1\n  mload\n  swap1\n  0x20\n  add\n  swap1\n  swap3\n  swap2\n  swap1\n  dup1\n  mload\n  swap1\n  0x20\n  add\n  swap1\n  swap3\n  swap2\n  swap1\n  pop\n  pop\n  pop\n    /* \"crowdfunfding.sol\":483:490  _target */\n  dup2\n    /* \"crowdfunfding.sol\":475:481  target */\n  0x02\n    /* \"crowdfunfding.sol\":475:490  target= _target */\n  dup2\n  swap1\n  sstore\n  pop\n    /* \"crowdfunfding.sol\":528:537  _deadline */\n  dup1\n    /* \"crowdfunfding.sol\":512:527  block.timestamp */\n  timestamp\n    /* \"crowdfunfding.sol\":512:537  block.timestamp+_deadline */\n  add\n    /* \"crowdfunfding.sol\":501:509  deadline */\n  0x03\n    /* \"crowdfunfding.sol\":501:537  deadline = block.timestamp+_deadline */\n  dup2\n  swap1\n  sstore\n  pop\n    /* \"crowdfunfding.sol\":564:571  100 wei */\n  0x64\n    /* \"crowdfunfding.sol\":548:563  mincontribution */\n  0x04\n    /* \"crowdfunfding.sol\":548:571  mincontribution=100 wei */\n  dup2\n  swap1\n  sstore\n  pop\n    /* \"crowdfunfding.sol\":590:600  msg.sender */\n  caller\n    /* \"crowdfunfding.sol\":582:589  manager */\n  0x01\n  0x00\n    /* \"crowdfunfding.sol\":582:600  manager=msg.sender */\n  0x0100\n  exp\n  dup2\n  sload\n  dup2\n  0xffffffffffffffffffffffffffffffffffffffff\n  mul\n  not\n  and\n  swap1\n  dup4\n  0xffffffffffffffffffffffffffffffffffffffff\n  and\n  mul\n  or\n  swap1\n  sstore\n  pop\n    /* \"crowdfunfding.sol\":417:610  constructor(uint _target, uint _deadline)\r... */\n  pop\n  pop\n    /* \"crowdfunfding.sol\":74:1420  contract crowdfundingg\r... */\n  dataSize(sub_0)\n  dup1\n  dataOffset(sub_0)\n  0x00\n  codecopy\n  0x00\n  return\nstop\n\nsub_0: assembly {\n        /* \"crowdfunfding.sol\":74:1420  contract crowdfundingg\r... */\n      mstore(0x40, 0x80)\n      jumpi(tag_1, lt(calldatasize, 0x04))\n      shr(0xe0, calldataload(0x00))\n      dup1\n      0x4d9b3d5d\n      gt\n      tag_12\n      jumpi\n      dup1\n      0x4d9b3d5d\n      eq\n      tag_7\n      jumpi\n      dup1\n      0x590e1ae3\n      eq\n      tag_8\n      jumpi\n      dup1\n      0x80e52d68\n      eq\n      tag_9\n      jumpi\n      dup1\n      0xc8a8a86a\n      eq\n      tag_10\n      jumpi\n      dup1\n      0xd4b83992\n      eq\n      tag_11\n      jumpi\n      jump(tag_1)\n    tag_12:\n      dup1\n      0x0e29df22\n      eq\n      tag_2\n      jumpi\n      dup1\n      0x1f6d4942\n      eq\n      tag_3\n      jumpi\n      dup1\n      0x29dcb0cf\n      eq\n      tag_4\n      jumpi\n      dup1\n      0x3b644d18\n      eq\n      tag_5\n      jumpi\n      dup1\n      0x481c6a75\n      eq\n      tag_6\n      jumpi\n    tag_1:\n      0x00\n      dup1\n      revert\n        /* \"crowdfunfding.sol\":622:1000  function sendEther() public payable\r... */\n    tag_2:\n      tag_13\n      tag_14\n      jump\t// in\n    tag_13:\n      stop\n        /* \"crowdfunfding.sol\":105:147  mapping(address=>uint) public contributors */\n    tag_3:\n      callvalue\n      dup1\n      iszero\n      tag_15\n      jumpi\n      0x00\n      dup1\n      revert\n    tag_15:\n      pop\n      tag_16\n      0x04\n      dup1\n      calldatasize\n      sub\n      0x20\n      dup2\n      lt\n      iszero\n      tag_17\n      jumpi\n      0x00\n      dup1\n      revert\n    tag_17:\n      dup2\n      add\n      swap1\n      dup1\n      dup1\n      calldataload\n      0xffffffffffffffffffffffffffffffffffffffff\n      and\n      swap1\n      0x20\n      add\n      swap1\n      swap3\n      swap2\n      swap1\n      pop\n      pop\n      pop\n      tag_18\n      jump\t// in\n    tag_16:\n      mload(0x40)\n      dup1\n      dup3\n      dup2\n      mstore\n      0x20\n      add\n      swap2\n      pop\n      pop\n      mload(0x40)\n      dup1\n      swap2\n      sub\n      swap1\n      return\n        /* \"crowdfunfding.sol\":208:228  uint public deadline */\n    tag_4:\n      callvalue\n      dup1\n      iszero\n      tag_19\n      jumpi\n      0x00\n      dup1\n      revert\n    tag_19:\n      pop\n      tag_20\n      tag_21\n      jump\t// in\n    tag_20:\n      mload(0x40)\n      dup1\n      dup3\n      dup2\n      mstore\n      0x20\n      add\n      swap2\n      pop\n      pop\n      mload(0x40)\n      dup1\n      swap2\n      sub\n      swap1\n      return\n        /* \"crowdfunfding.sol\":269:293  uint public raisedamount */\n    tag_5:\n      callvalue\n      dup1\n      iszero\n      tag_22\n      jumpi\n      0x00\n      dup1\n      revert\n    tag_22:\n      pop\n      tag_23\n      tag_24\n      jump\t// in\n    tag_23:\n      mload(0x40)\n      dup1\n      dup3\n      dup2\n      mstore\n      0x20\n      add\n      swap2\n      pop\n      pop\n      mload(0x40)\n      dup1\n      swap2\n      sub\n      swap1\n      return\n        /* \"crowdfunfding.sol\":154:176  address public manager */\n    tag_6:\n      callvalue\n      dup1\n      iszero\n      tag_25\n      jumpi\n      0x00\n      dup1\n      revert\n    tag_25:\n      pop\n      tag_26\n      tag_27\n      jump\t// in\n    tag_26:\n      mload(0x40)\n      dup1\n      dup3\n      0xffffffffffffffffffffffffffffffffffffffff\n      and\n      dup2\n      mstore\n      0x20\n      add\n      swap2\n      pop\n      pop\n      mload(0x40)\n      dup1\n      swap2\n      sub\n      swap1\n      return\n        /* \"crowdfunfding.sol\":1011:1150  function getbalance() public view returns(uint)\r... */\n    tag_7:\n      callvalue\n      dup1\n      iszero\n      tag_28\n      jumpi\n      0x00\n      dup1\n      revert\n    tag_28:\n      pop\n      tag_29\n      tag_30\n      jump\t// in\n    tag_29:\n      mload(0x40)\n      dup1\n      dup3\n      dup2\n      mstore\n      0x20\n      add\n      swap2\n      pop\n      pop\n      mload(0x40)\n      dup1\n      swap2\n      sub\n      swap1\n      return\n        /* \"crowdfunfding.sol\":1158:1413  function refund() public\r... */\n    tag_8:\n      callvalue\n      dup1\n      iszero\n      tag_31\n      jumpi\n      0x00\n      dup1\n      revert\n    tag_31:\n      pop\n      tag_32\n      tag_33\n      jump\t// in\n    tag_32:\n      stop\n        /* \"crowdfunfding.sol\":235:262  uint public mincontribution */\n    tag_9:\n      callvalue\n      dup1\n      iszero\n      tag_34\n      jumpi\n      0x00\n      dup1\n      revert\n    tag_34:\n      pop\n      tag_35\n      tag_36\n      jump\t// in\n    tag_35:\n      mload(0x40)\n      dup1\n      dup3\n      dup2\n      mstore\n      0x20\n      add\n      swap2\n      pop\n      pop\n      mload(0x40)\n      dup1\n      swap2\n      sub\n      swap1\n      return\n        /* \"crowdfunfding.sol\":300:328  uint public noOfcontributors */\n    tag_10:\n      callvalue\n      dup1\n      iszero\n      tag_37\n      jumpi\n      0x00\n      dup1\n      revert\n    tag_37:\n      pop\n      tag_38\n      tag_39\n      jump\t// in\n    tag_38:\n      mload(0x40)\n      dup1\n      dup3\n      dup2\n      mstore\n      0x20\n      add\n      swap2\n      pop\n      pop\n      mload(0x40)\n      dup1\n      swap2\n      sub\n      swap1\n      return\n        /* \"crowdfunfding.sol\":183:201  uint public target */\n    tag_11:\n      callvalue\n      dup1\n      iszero\n      tag_40\n      jumpi\n      0x00\n      dup1\n      revert\n    tag_40:\n      pop\n      tag_41\n      tag_42\n      jump\t// in\n    tag_41:\n      mload(0x40)\n      dup1\n      dup3\n      dup2\n      mstore\n      0x20\n      add\n      swap2\n      pop\n      pop\n      mload(0x40)\n      dup1\n      swap2\n      sub\n      swap1\n      return\n        /* \"crowdfunfding.sol\":622:1000  function sendEther() public payable\r... */\n    tag_14:\n        /* \"crowdfunfding.sol\":698:706  deadline */\n      sload(0x03)\n        /* \"crowdfunfding.sol\":682:697  block.timestamp */\n      timestamp\n        /* \"crowdfunfding.sol\":682:706  block.timestamp<deadline */\n      lt\n        /* \"crowdfunfding.sol\":674:734  require(block.timestamp<deadline,\"deadline has been passed\") */\n      tag_44\n      jumpi\n      mload(0x40)\n      0x08c379a000000000000000000000000000000000000000000000000000000000\n      dup2\n      mstore\n      0x04\n      add\n      dup1\n      dup1\n      0x20\n      add\n      dup3\n      dup2\n      sub\n      dup3\n      mstore\n      0x18\n      dup2\n      mstore\n      0x20\n      add\n      dup1\n      0x646561646c696e6520686173206265656e207061737365640000000000000000\n      dup2\n      mstore\n      pop\n      0x20\n      add\n      swap2\n      pop\n      pop\n      mload(0x40)\n      dup1\n      swap2\n      sub\n      swap1\n      revert\n    tag_44:\n        /* \"crowdfunfding.sol\":763:778  mincontribution */\n      sload(0x04)\n        /* \"crowdfunfding.sol\":753:762  msg.value */\n      callvalue\n        /* \"crowdfunfding.sol\":753:778  msg.value>mincontribution */\n      gt\n        /* \"crowdfunfding.sol\":745:810  require(msg.value>mincontribution,\"minimum balance does not met\") */\n      tag_45\n      jumpi\n      mload(0x40)\n      0x08c379a000000000000000000000000000000000000000000000000000000000\n      dup2\n      mstore\n      0x04\n      add\n      dup1\n      dup1\n      0x20\n      add\n      dup3\n      dup2\n      sub\n      dup3\n      mstore\n      0x1c\n      dup2\n      mstore\n      0x20\n      add\n      dup1\n      0x6d696e696d756d2062616c616e636520646f6573206e6f74206d657400000000\n      dup2\n      mstore\n      pop\n      0x20\n      add\n      swap2\n      pop\n      pop\n      mload(0x40)\n      dup1\n      swap2\n      sub\n      swap1\n      revert\n    tag_45:\n        /* \"crowdfunfding.sol\":850:851  0 */\n      0x00\n        /* \"crowdfunfding.sol\":824:836  contributors */\n      dup1\n        /* \"crowdfunfding.sol\":824:848  contributors[msg.sender] */\n      0x00\n        /* \"crowdfunfding.sol\":837:847  msg.sender */\n      caller\n        /* \"crowdfunfding.sol\":824:848  contributors[msg.sender] */\n      0xffffffffffffffffffffffffffffffffffffffff\n      and\n      0xffffffffffffffffffffffffffffffffffffffff\n      and\n      dup2\n      mstore\n      0x20\n      add\n      swap1\n      dup2\n      mstore\n      0x20\n      add\n      0x00\n      keccak256\n      sload\n        /* \"crowdfunfding.sol\":824:851  contributors[msg.sender]==0 */\n      eq\n        /* \"crowdfunfding.sol\":821:907  if(contributors[msg.sender]==0)\r... */\n      iszero\n      tag_46\n      jumpi\n        /* \"crowdfunfding.sol\":877:893  noOfcontributors */\n      0x06\n      0x00\n        /* \"crowdfunfding.sol\":877:895  noOfcontributors++ */\n      dup2\n      sload\n      dup1\n      swap3\n      swap2\n      swap1\n      0x01\n      add\n      swap2\n      swap1\n      pop\n      sstore\n      pop\n        /* \"crowdfunfding.sol\":821:907  if(contributors[msg.sender]==0)\r... */\n    tag_46:\n        /* \"crowdfunfding.sol\":944:953  msg.value */\n      callvalue\n        /* \"crowdfunfding.sol\":917:929  contributors */\n      0x00\n        /* \"crowdfunfding.sol\":917:941  contributors[msg.sender] */\n      dup1\n        /* \"crowdfunfding.sol\":930:940  msg.sender */\n      caller\n        /* \"crowdfunfding.sol\":917:941  contributors[msg.sender] */\n      0xffffffffffffffffffffffffffffffffffffffff\n      and\n      0xffffffffffffffffffffffffffffffffffffffff\n      and\n      dup2\n      mstore\n      0x20\n      add\n      swap1\n      dup2\n      mstore\n      0x20\n      add\n      0x00\n      keccak256\n      0x00\n        /* \"crowdfunfding.sol\":917:954  contributors[msg.sender]+=(msg.value) */\n      dup3\n      dup3\n      sload\n      add\n      swap3\n      pop\n      pop\n      dup2\n      swap1\n      sstore\n      pop\n        /* \"crowdfunfding.sol\":980:989  msg.value */\n      callvalue\n        /* \"crowdfunfding.sol\":965:977  raisedamount */\n      0x05\n      0x00\n        /* \"crowdfunfding.sol\":965:990  raisedamount+=(msg.value) */\n      dup3\n      dup3\n      sload\n      add\n      swap3\n      pop\n      pop\n      dup2\n      swap1\n      sstore\n      pop\n        /* \"crowdfunfding.sol\":622:1000  function sendEther() public payable\r... */\n      jump\t// out\n        /* \"crowdfunfding.sol\":105:147  mapping(address=>uint) public contributors */\n    tag_18:\n      mstore(0x20, 0x00)\n      dup1\n      0x00\n      mstore\n      keccak256(0x00, 0x40)\n      0x00\n      swap2\n      pop\n      swap1\n      pop\n      sload\n      dup2\n      jump\t// out\n        /* \"crowdfunfding.sol\":208:228  uint public deadline */\n    tag_21:\n      sload(0x03)\n      dup2\n      jump\t// out\n        /* \"crowdfunfding.sol\":269:293  uint public raisedamount */\n    tag_24:\n      sload(0x05)\n      dup2\n      jump\t// out\n        /* \"crowdfunfding.sol\":154:176  address public manager */\n    tag_27:\n      0x01\n      0x00\n      swap1\n      sload\n      swap1\n      0x0100\n      exp\n      swap1\n      div\n      0xffffffffffffffffffffffffffffffffffffffff\n      and\n      dup2\n      jump\t// out\n        /* \"crowdfunfding.sol\":1011:1150  function getbalance() public view returns(uint)\r... */\n    tag_30:\n        /* \"crowdfunfding.sol\":1053:1057  uint */\n      0x00\n        /* \"crowdfunfding.sol\":1092:1102  msg.sender */\n      caller\n        /* \"crowdfunfding.sol\":1083:1102  manager==msg.sender */\n      0xffffffffffffffffffffffffffffffffffffffff\n      and\n        /* \"crowdfunfding.sol\":1083:1090  manager */\n      0x01\n      0x00\n      swap1\n      sload\n      swap1\n      0x0100\n      exp\n      swap1\n      div\n      0xffffffffffffffffffffffffffffffffffffffff\n      and\n        /* \"crowdfunfding.sol\":1083:1102  manager==msg.sender */\n      0xffffffffffffffffffffffffffffffffffffffff\n      and\n      eq\n        /* \"crowdfunfding.sol\":1075:1103  require(manager==msg.sender) */\n      tag_48\n      jumpi\n      0x00\n      dup1\n      revert\n    tag_48:\n        /* \"crowdfunfding.sol\":1121:1142  address(this).balance */\n      selfbalance\n        /* \"crowdfunfding.sol\":1114:1142  return address(this).balance */\n      swap1\n      pop\n        /* \"crowdfunfding.sol\":1011:1150  function getbalance() public view returns(uint)\r... */\n      swap1\n      jump\t// out\n        /* \"crowdfunfding.sol\":1158:1413  function refund() public\r... */\n    tag_33:\n        /* \"crowdfunfding.sol\":1216:1231  block.timestamp */\n      timestamp\n        /* \"crowdfunfding.sol\":1207:1215  deadline */\n      sload(0x03)\n        /* \"crowdfunfding.sol\":1207:1231  deadline>block.timestamp */\n      gt\n        /* \"crowdfunfding.sol\":1207:1254  deadline>block.timestamp && raisedamount<target */\n      dup1\n      iszero\n      tag_50\n      jumpi\n      pop\n        /* \"crowdfunfding.sol\":1248:1254  target */\n      sload(0x02)\n        /* \"crowdfunfding.sol\":1235:1247  raisedamount */\n      sload(0x05)\n        /* \"crowdfunfding.sol\":1235:1254  raisedamount<target */\n      lt\n        /* \"crowdfunfding.sol\":1207:1254  deadline>block.timestamp && raisedamount<target */\n    tag_50:\n        /* \"crowdfunfding.sol\":1199:1255  require(deadline>block.timestamp && raisedamount<target) */\n      tag_51\n      jumpi\n      0x00\n      dup1\n      revert\n    tag_51:\n        /* \"crowdfunfding.sol\":1299:1300  0 */\n      0x00\n        /* \"crowdfunfding.sol\":1274:1286  contributors */\n      dup1\n        /* \"crowdfunfding.sol\":1274:1298  contributors[msg.sender] */\n      0x00\n        /* \"crowdfunfding.sol\":1287:1297  msg.sender */\n      caller\n        /* \"crowdfunfding.sol\":1274:1298  contributors[msg.sender] */\n      0xffffffffffffffffffffffffffffffffffffffff\n      and\n      0xffffffffffffffffffffffffffffffffffffffff\n      and\n      dup2\n      mstore\n      0x20\n      add\n      swap1\n      dup2\n      mstore\n      0x20\n      add\n      0x00\n      keccak256\n      sload\n        /* \"crowdfunfding.sol\":1274:1300  contributors[msg.sender]>0 */\n      gt\n        /* \"crowdfunfding.sol\":1266:1301  require(contributors[msg.sender]>0) */\n      tag_52\n      jumpi\n      0x00\n      dup1\n      revert\n    tag_52:\n        /* \"crowdfunfding.sol\":1312:1332  address payable user */\n      0x00\n        /* \"crowdfunfding.sol\":1342:1352  msg.sender */\n      caller\n        /* \"crowdfunfding.sol\":1312:1353  address payable user= payable(msg.sender) */\n      swap1\n      pop\n        /* \"crowdfunfding.sol\":1364:1368  user */\n      dup1\n        /* \"crowdfunfding.sol\":1364:1377  user.transfer */\n      0xffffffffffffffffffffffffffffffffffffffff\n      and\n        /* \"crowdfunfding.sol\":1364:1403  user.transfer(contributors[msg.sender]) */\n      0x08fc\n        /* \"crowdfunfding.sol\":1378:1390  contributors */\n      0x00\n        /* \"crowdfunfding.sol\":1378:1402  contributors[msg.sender] */\n      dup1\n        /* \"crowdfunfding.sol\":1391:1401  msg.sender */\n      caller\n        /* \"crowdfunfding.sol\":1378:1402  contributors[msg.sender] */\n      0xffffffffffffffffffffffffffffffffffffffff\n      and\n      0xffffffffffffffffffffffffffffffffffffffff\n      and\n      dup2\n      mstore\n      0x20\n      add\n      swap1\n      dup2\n      mstore\n      0x20\n      add\n      0x00\n      keccak256\n      sload\n        /* \"crowdfunfding.sol\":1364:1403  user.transfer(contributors[msg.sender]) */\n      swap1\n      dup2\n      iszero\n      mul\n      swap1\n      mload(0x40)\n      0x00\n      mload(0x40)\n      dup1\n      dup4\n      sub\n      dup2\n      dup6\n      dup9\n      dup9\n      call\n      swap4\n      pop\n      pop\n      pop\n      pop\n      iszero\n      dup1\n      iszero\n      tag_54\n      jumpi\n      returndatasize\n      0x00\n      dup1\n      returndatacopy\n      revert(0x00, returndatasize)\n    tag_54:\n      pop\n        /* \"crowdfunfding.sol\":1158:1413  function refund() public\r... */\n      pop\n      jump\t// out\n        /* \"crowdfunfding.sol\":235:262  uint public mincontribution */\n    tag_36:\n      sload(0x04)\n      dup2\n      jump\t// out\n        /* \"crowdfunfding.sol\":300:328  uint public noOfcontributors */\n    tag_39:\n      sload(0x06)\n      dup2\n      jump\t// out\n        /* \"crowdfunfding.sol\":183:201  uint public target */\n    tag_42:\n      sload(0x02)\n      dup2\n      jump\t// out\n\n    auxdata: 0xa26469706673582212200dabac26002ae3db58a5d8b3eb6d551af4c445a5bcddf62a60d0d2887479a10f64736f6c63430007060033\n}\n",
				"bytecode": {
					"linkReferences": {},
					"object": "608060405234801561001057600080fd5b506040516106a63803806106a68339818101604052604081101561003357600080fd5b81019080805190602001909291908051906020019092919050505081600281905550804201600381905550606460048190555033600160006101000a81548173ffffffffffffffffffffffffffffffffffffffff021916908373ffffffffffffffffffffffffffffffffffffffff16021790555050506105ee806100b86000396000f3fe6080604052600436106100915760003560e01c80634d9b3d5d116100595780634d9b3d5d1461019c578063590e1ae3146101c757806380e52d68146101de578063c8a8a86a14610209578063d4b839921461023457610091565b80630e29df22146100965780631f6d4942146100a057806329dcb0cf146101055780633b644d1814610130578063481c6a751461015b575b600080fd5b61009e61025f565b005b3480156100ac57600080fd5b506100ef600480360360208110156100c357600080fd5b81019080803573ffffffffffffffffffffffffffffffffffffffff169060200190929190505050610405565b6040518082815260200191505060405180910390f35b34801561011157600080fd5b5061011a61041d565b6040518082815260200191505060405180910390f35b34801561013c57600080fd5b50610145610423565b6040518082815260200191505060405180910390f35b34801561016757600080fd5b50610170610429565b604051808273ffffffffffffffffffffffffffffffffffffffff16815260200191505060405180910390f35b3480156101a857600080fd5b506101b161044f565b6040518082815260200191505060405180910390f35b3480156101d357600080fd5b506101dc6104b1565b005b3480156101ea57600080fd5b506101f36105a6565b6040518082815260200191505060405180910390f35b34801561021557600080fd5b5061021e6105ac565b6040518082815260200191505060405180910390f35b34801561024057600080fd5b506102496105b2565b6040518082815260200191505060405180910390f35b60035442106102d6576040517f08c379a00000000000000000000000000000000000000000000000000000000081526004018080602001828103825260188152602001807f646561646c696e6520686173206265656e20706173736564000000000000000081525060200191505060405180910390fd5b600454341161034d576040517f08c379a000000000000000000000000000000000000000000000000000000000815260040180806020018281038252601c8152602001807f6d696e696d756d2062616c616e636520646f6573206e6f74206d65740000000081525060200191505060405180910390fd5b60008060003373ffffffffffffffffffffffffffffffffffffffff1673ffffffffffffffffffffffffffffffffffffffff1681526020019081526020016000205414156103a7576006600081548092919060010191905055505b346000803373ffffffffffffffffffffffffffffffffffffffff1673ffffffffffffffffffffffffffffffffffffffff1681526020019081526020016000206000828254019250508190555034600560008282540192505081905550565b60006020528060005260406000206000915090505481565b60035481565b60055481565b600160009054906101000a900473ffffffffffffffffffffffffffffffffffffffff1681565b60003373ffffffffffffffffffffffffffffffffffffffff16600160009054906101000a900473ffffffffffffffffffffffffffffffffffffffff1673ffffffffffffffffffffffffffffffffffffffff16146104ab57600080fd5b47905090565b426003541180156104c55750600254600554105b6104ce57600080fd5b60008060003373ffffffffffffffffffffffffffffffffffffffff1673ffffffffffffffffffffffffffffffffffffffff168152602001908152602001600020541161051957600080fd5b60003390508073ffffffffffffffffffffffffffffffffffffffff166108fc6000803373ffffffffffffffffffffffffffffffffffffffff1673ffffffffffffffffffffffffffffffffffffffff168152602001908152602001600020549081150290604051600060405180830381858888f193505050501580156105a2573d6000803e3d6000fd5b5050565b60045481565b60065481565b6002548156fea26469706673582212200dabac26002ae3db58a5d8b3eb6d551af4c445a5bcddf62a60d0d2887479a10f64736f6c63430007060033",
					"opcodes": "PUSH1 0x80 PUSH1 0x40 MSTORE CALLVALUE DUP1 ISZERO PUSH2 0x10 JUMPI PUSH1 0x0 DUP1 REVERT JUMPDEST POP PUSH1 0x40 MLOAD PUSH2 0x6A6 CODESIZE SUB DUP1 PUSH2 0x6A6 DUP4 CODECOPY DUP2 DUP2 ADD PUSH1 0x40 MSTORE PUSH1 0x40 DUP2 LT ISZERO PUSH2 0x33 JUMPI PUSH1 0x0 DUP1 REVERT JUMPDEST DUP2 ADD SWAP1 DUP1 DUP1 MLOAD SWAP1 PUSH1 0x20 ADD SWAP1 SWAP3 SWAP2 SWAP1 DUP1 MLOAD SWAP1 PUSH1 0x20 ADD SWAP1 SWAP3 SWAP2 SWAP1 POP POP POP DUP2 PUSH1 0x2 DUP2 SWAP1 SSTORE POP DUP1 TIMESTAMP ADD PUSH1 0x3 DUP2 SWAP1 SSTORE POP PUSH1 0x64 PUSH1 0x4 DUP2 SWAP1 SSTORE POP CALLER PUSH1 0x1 PUSH1 0x0 PUSH2 0x100 EXP DUP2 SLOAD DUP2 PUSH20 0xFFFFFFFFFFFFFFFFFFFFFFFFFFFFFFFFFFFFFFFF MUL NOT AND SWAP1 DUP4 PUSH20 0xFFFFFFFFFFFFFFFFFFFFFFFFFFFFFFFFFFFFFFFF AND MUL OR SWAP1 SSTORE POP POP POP PUSH2 0x5EE DUP1 PUSH2 0xB8 PUSH1 0x0 CODECOPY PUSH1 0x0 RETURN INVALID PUSH1 0x80 PUSH1 0x40 MSTORE PUSH1 0x4 CALLDATASIZE LT PUSH2 0x91 JUMPI PUSH1 0x0 CALLDATALOAD PUSH1 0xE0 SHR DUP1 PUSH4 0x4D9B3D5D GT PUSH2 0x59 JUMPI DUP1 PUSH4 0x4D9B3D5D EQ PUSH2 0x19C JUMPI DUP1 PUSH4 0x590E1AE3 EQ PUSH2 0x1C7 JUMPI DUP1 PUSH4 0x80E52D68 EQ PUSH2 0x1DE JUMPI DUP1 PUSH4 0xC8A8A86A EQ PUSH2 0x209 JUMPI DUP1 PUSH4 0xD4B83992 EQ PUSH2 0x234 JUMPI PUSH2 0x91 JUMP JUMPDEST DUP1 PUSH4 0xE29DF22 EQ PUSH2 0x96 JUMPI DUP1 PUSH4 0x1F6D4942 EQ PUSH2 0xA0 JUMPI DUP1 PUSH4 0x29DCB0CF EQ PUSH2 0x105 JUMPI DUP1 PUSH4 0x3B644D18 EQ PUSH2 0x130 JUMPI DUP1 PUSH4 0x481C6A75 EQ PUSH2 0x15B JUMPI JUMPDEST PUSH1 0x0 DUP1 REVERT JUMPDEST PUSH2 0x9E PUSH2 0x25F JUMP JUMPDEST STOP JUMPDEST CALLVALUE DUP1 ISZERO PUSH2 0xAC JUMPI PUSH1 0x0 DUP1 REVERT JUMPDEST POP PUSH2 0xEF PUSH1 0x4 DUP1 CALLDATASIZE SUB PUSH1 0x20 DUP2 LT ISZERO PUSH2 0xC3 JUMPI PUSH1 0x0 DUP1 REVERT JUMPDEST DUP2 ADD SWAP1 DUP1 DUP1 CALLDATALOAD PUSH20 0xFFFFFFFFFFFFFFFFFFFFFFFFFFFFFFFFFFFFFFFF AND SWAP1 PUSH1 0x20 ADD SWAP1 SWAP3 SWAP2 SWAP1 POP POP POP PUSH2 0x405 JUMP JUMPDEST PUSH1 0x40 MLOAD DUP1 DUP3 DUP2 MSTORE PUSH1 0x20 ADD SWAP2 POP POP PUSH1 0x40 MLOAD DUP1 SWAP2 SUB SWAP1 RETURN JUMPDEST CALLVALUE DUP1 ISZERO PUSH2 0x111 JUMPI PUSH1 0x0 DUP1 REVERT JUMPDEST POP PUSH2 0x11A PUSH2 0x41D JUMP JUMPDEST PUSH1 0x40 MLOAD DUP1 DUP3 DUP2 MSTORE PUSH1 0x20 ADD SWAP2 POP POP PUSH1 0x40 MLOAD DUP1 SWAP2 SUB SWAP1 RETURN JUMPDEST CALLVALUE DUP1 ISZERO PUSH2 0x13C JUMPI PUSH1 0x0 DUP1 REVERT JUMPDEST POP PUSH2 0x145 PUSH2 0x423 JUMP JUMPDEST PUSH1 0x40 MLOAD DUP1 DUP3 DUP2 MSTORE PUSH1 0x20 ADD SWAP2 POP POP PUSH1 0x40 MLOAD DUP1 SWAP2 SUB SWAP1 RETURN JUMPDEST CALLVALUE DUP1 ISZERO PUSH2 0x167 JUMPI PUSH1 0x0 DUP1 REVERT JUMPDEST POP PUSH2 0x170 PUSH2 0x429 JUMP JUMPDEST PUSH1 0x40 MLOAD DUP1 DUP3 PUSH20 0xFFFFFFFFFFFFFFFFFFFFFFFFFFFFFFFFFFFFFFFF AND DUP2 MSTORE PUSH1 0x20 ADD SWAP2 POP POP PUSH1 0x40 MLOAD DUP1 SWAP2 SUB SWAP1 RETURN JUMPDEST CALLVALUE DUP1 ISZERO PUSH2 0x1A8 JUMPI PUSH1 0x0 DUP1 REVERT JUMPDEST POP PUSH2 0x1B1 PUSH2 0x44F JUMP JUMPDEST PUSH1 0x40 MLOAD DUP1 DUP3 DUP2 MSTORE PUSH1 0x20 ADD SWAP2 POP POP PUSH1 0x40 MLOAD DUP1 SWAP2 SUB SWAP1 RETURN JUMPDEST CALLVALUE DUP1 ISZERO PUSH2 0x1D3 JUMPI PUSH1 0x0 DUP1 REVERT JUMPDEST POP PUSH2 0x1DC PUSH2 0x4B1 JUMP JUMPDEST STOP JUMPDEST CALLVALUE DUP1 ISZERO PUSH2 0x1EA JUMPI PUSH1 0x0 DUP1 REVERT JUMPDEST POP PUSH2 0x1F3 PUSH2 0x5A6 JUMP JUMPDEST PUSH1 0x40 MLOAD DUP1 DUP3 DUP2 MSTORE PUSH1 0x20 ADD SWAP2 POP POP PUSH1 0x40 MLOAD DUP1 SWAP2 SUB SWAP1 RETURN JUMPDEST CALLVALUE DUP1 ISZERO PUSH2 0x215 JUMPI PUSH1 0x0 DUP1 REVERT JUMPDEST POP PUSH2 0x21E PUSH2 0x5AC JUMP JUMPDEST PUSH1 0x40 MLOAD DUP1 DUP3 DUP2 MSTORE PUSH1 0x20 ADD SWAP2 POP POP PUSH1 0x40 MLOAD DUP1 SWAP2 SUB SWAP1 RETURN JUMPDEST CALLVALUE DUP1 ISZERO PUSH2 0x240 JUMPI PUSH1 0x0 DUP1 REVERT JUMPDEST POP PUSH2 0x249 PUSH2 0x5B2 JUMP JUMPDEST PUSH1 0x40 MLOAD DUP1 DUP3 DUP2 MSTORE PUSH1 0x20 ADD SWAP2 POP POP PUSH1 0x40 MLOAD DUP1 SWAP2 SUB SWAP1 RETURN JUMPDEST PUSH1 0x3 SLOAD TIMESTAMP LT PUSH2 0x2D6 JUMPI PUSH1 0x40 MLOAD PUSH32 0x8C379A000000000000000000000000000000000000000000000000000000000 DUP2 MSTORE PUSH1 0x4 ADD DUP1 DUP1 PUSH1 0x20 ADD DUP3 DUP2 SUB DUP3 MSTORE PUSH1 0x18 DUP2 MSTORE PUSH1 0x20 ADD DUP1 PUSH32 0x646561646C696E6520686173206265656E207061737365640000000000000000 DUP2 MSTORE POP PUSH1 0x20 ADD SWAP2 POP POP PUSH1 0x40 MLOAD DUP1 SWAP2 SUB SWAP1 REVERT JUMPDEST PUSH1 0x4 SLOAD CALLVALUE GT PUSH2 0x34D JUMPI PUSH1 0x40 MLOAD PUSH32 0x8C379A000000000000000000000000000000000000000000000000000000000 DUP2 MSTORE PUSH1 0x4 ADD DUP1 DUP1 PUSH1 0x20 ADD DUP3 DUP2 SUB DUP3 MSTORE PUSH1 0x1C DUP2 MSTORE PUSH1 0x20 ADD DUP1 PUSH32 0x6D696E696D756D2062616C616E636520646F6573206E6F74206D657400000000 DUP2 MSTORE POP PUSH1 0x20 ADD SWAP2 POP POP PUSH1 0x40 MLOAD DUP1 SWAP2 SUB SWAP1 REVERT JUMPDEST PUSH1 0x0 DUP1 PUSH1 0x0 CALLER PUSH20 0xFFFFFFFFFFFFFFFFFFFFFFFFFFFFFFFFFFFFFFFF AND PUSH20 0xFFFFFFFFFFFFFFFFFFFFFFFFFFFFFFFFFFFFFFFF AND DUP2 MSTORE PUSH1 0x20 ADD SWAP1 DUP2 MSTORE PUSH1 0x20 ADD PUSH1 0x0 KECCAK256 SLOAD EQ ISZERO PUSH2 0x3A7 JUMPI PUSH1 0x6 PUSH1 0x0 DUP2 SLOAD DUP1 SWAP3 SWAP2 SWAP1 PUSH1 0x1 ADD SWAP2 SWAP1 POP SSTORE POP JUMPDEST CALLVALUE PUSH1 0x0 DUP1 CALLER PUSH20 0xFFFFFFFFFFFFFFFFFFFFFFFFFFFFFFFFFFFFFFFF AND PUSH20 0xFFFFFFFFFFFFFFFFFFFFFFFFFFFFFFFFFFFFFFFF AND DUP2 MSTORE PUSH1 0x20 ADD SWAP1 DUP2 MSTORE PUSH1 0x20 ADD PUSH1 0x0 KECCAK256 PUSH1 0x0 DUP3 DUP3 SLOAD ADD SWAP3 POP POP DUP2 SWAP1 SSTORE POP CALLVALUE PUSH1 0x5 PUSH1 0x0 DUP3 DUP3 SLOAD ADD SWAP3 POP POP DUP2 SWAP1 SSTORE POP JUMP JUMPDEST PUSH1 0x0 PUSH1 0x20 MSTORE DUP1 PUSH1 0x0 MSTORE PUSH1 0x40 PUSH1 0x0 KECCAK256 PUSH1 0x0 SWAP2 POP SWAP1 POP SLOAD DUP2 JUMP JUMPDEST PUSH1 0x3 SLOAD DUP2 JUMP JUMPDEST PUSH1 0x5 SLOAD DUP2 JUMP JUMPDEST PUSH1 0x1 PUSH1 0x0 SWAP1 SLOAD SWAP1 PUSH2 0x100 EXP SWAP1 DIV PUSH20 0xFFFFFFFFFFFFFFFFFFFFFFFFFFFFFFFFFFFFFFFF AND DUP2 JUMP JUMPDEST PUSH1 0x0 CALLER PUSH20 0xFFFFFFFFFFFFFFFFFFFFFFFFFFFFFFFFFFFFFFFF AND PUSH1 0x1 PUSH1 0x0 SWAP1 SLOAD SWAP1 PUSH2 0x100 EXP SWAP1 DIV PUSH20 0xFFFFFFFFFFFFFFFFFFFFFFFFFFFFFFFFFFFFFFFF AND PUSH20 0xFFFFFFFFFFFFFFFFFFFFFFFFFFFFFFFFFFFFFFFF AND EQ PUSH2 0x4AB JUMPI PUSH1 0x0 DUP1 REVERT JUMPDEST SELFBALANCE SWAP1 POP SWAP1 JUMP JUMPDEST TIMESTAMP PUSH1 0x3 SLOAD GT DUP1 ISZERO PUSH2 0x4C5 JUMPI POP PUSH1 0x2 SLOAD PUSH1 0x5 SLOAD LT JUMPDEST PUSH2 0x4CE JUMPI PUSH1 0x0 DUP1 REVERT JUMPDEST PUSH1 0x0 DUP1 PUSH1 0x0 CALLER PUSH20 0xFFFFFFFFFFFFFFFFFFFFFFFFFFFFFFFFFFFFFFFF AND PUSH20 0xFFFFFFFFFFFFFFFFFFFFFFFFFFFFFFFFFFFFFFFF AND DUP2 MSTORE PUSH1 0x20 ADD SWAP1 DUP2 MSTORE PUSH1 0x20 ADD PUSH1 0x0 KECCAK256 SLOAD GT PUSH2 0x519 JUMPI PUSH1 0x0 DUP1 REVERT JUMPDEST PUSH1 0x0 CALLER SWAP1 POP DUP1 PUSH20 0xFFFFFFFFFFFFFFFFFFFFFFFFFFFFFFFFFFFFFFFF AND PUSH2 0x8FC PUSH1 0x0 DUP1 CALLER PUSH20 0xFFFFFFFFFFFFFFFFFFFFFFFFFFFFFFFFFFFFFFFF AND PUSH20 0xFFFFFFFFFFFFFFFFFFFFFFFFFFFFFFFFFFFFFFFF AND DUP2 MSTORE PUSH1 0x20 ADD SWAP1 DUP2 MSTORE PUSH1 0x20 ADD PUSH1 0x0 KECCAK256 SLOAD SWAP1 DUP2 ISZERO MUL SWAP1 PUSH1 0x40 MLOAD PUSH1 0x0 PUSH1 0x40 MLOAD DUP1 DUP4 SUB DUP2 DUP6 DUP9 DUP9 CALL SWAP4 POP POP POP POP ISZERO DUP1 ISZERO PUSH2 0x5A2 JUMPI RETURNDATASIZE PUSH1 0x0 DUP1 RETURNDATACOPY RETURNDATASIZE PUSH1 0x0 REVERT JUMPDEST POP POP JUMP JUMPDEST PUSH1 0x4 SLOAD DUP2 JUMP JUMPDEST PUSH1 0x6 SLOAD DUP2 JUMP JUMPDEST PUSH1 0x2 SLOAD DUP2 JUMP INVALID LOG2 PUSH5 0x6970667358 0x22 SLT KECCAK256 0xD 0xAB 0xAC 0x26 STOP 0x2A 0xE3 0xDB PC 0xA5 0xD8 0xB3 0xEB PUSH14 0x551AF4C445A5BCDDF62A60D0D288 PUSH21 0x79A10F64736F6C6343000706003300000000000000 "
				},
				"gasEstimates": {
					"creation": {
						"codeDepositCost": "303600",
						"executionCost": "infinite",
						"totalCost": "infinite"
					},
					"external": {
						"contributors(address)": "1192",
						"deadline()": "1050",
						"getbalance()": "1085",
						"manager()": "1136",
						"mincontribution()": "1049",
						"noOfcontributors()": "1071",
						"raisedamount()": "1072",
						"refund()": "infinite",
						"sendEther()": "65270",
						"target()": "1093"
					}
				},
				"methodIdentifiers": {
					"contributors(address)": "1f6d4942",
					"deadline()": "29dcb0cf",
					"getbalance()": "4d9b3d5d",
					"manager()": "481c6a75",
					"mincontribution()": "80e52d68",
					"noOfcontributors()": "c8a8a86a",
					"raisedamount()": "3b644d18",
					"refund()": "590e1ae3",
					"sendEther()": "0e29df22",
					"target()": "d4b83992"
				}
			},
			"storageLayout": {
				"storage": [
					{
						"astId": 5,
						"contract": "crowdfunfding.sol:crowdfundingg",
						"label": "contributors",
						"offset": 0,
						"slot": "0",
						"type": "t_mapping(t_address,t_uint256)"
					},
					{
						"astId": 7,
						"contract": "crowdfunfding.sol:crowdfundingg",
						"label": "manager",
						"offset": 0,
						"slot": "1",
						"type": "t_address"
					},
					{
						"astId": 9,
						"contract": "crowdfunfding.sol:crowdfundingg",
						"label": "target",
						"offset": 0,
						"slot": "2",
						"type": "t_uint256"
					},
					{
						"astId": 11,
						"contract": "crowdfunfding.sol:crowdfundingg",
						"label": "deadline",
						"offset": 0,
						"slot": "3",
						"type": "t_uint256"
					},
					{
						"astId": 13,
						"contract": "crowdfunfding.sol:crowdfundingg",
						"label": "mincontribution",
						"offset": 0,
						"slot": "4",
						"type": "t_uint256"
					},
					{
						"astId": 15,
						"contract": "crowdfunfding.sol:crowdfundingg",
						"label": "raisedamount",
						"offset": 0,
						"slot": "5",
						"type": "t_uint256"
					},
					{
						"astId": 17,
						"contract": "crowdfunfding.sol:crowdfundingg",
						"label": "noOfcontributors",
						"offset": 0,
						"slot": "6",
						"type": "t_uint256"
					}
				],
				"types": {
					"t_address": {
						"encoding": "inplace",
						"label": "address",
						"numberOfBytes": "20"
					},
					"t_mapping(t_address,t_uint256)": {
						"encoding": "mapping",
						"key": "t_address",
						"label": "mapping(address => uint256)",
						"numberOfBytes": "32",
						"value": "t_uint256"
					},
					"t_uint256": {
						"encoding": "inplace",
						"label": "uint256",
						"numberOfBytes": "32"
					}
				}
			},
			"userdoc": {
				"kind": "user",
				"methods": {},
				"version": 1
			}
		}
	}
}