{
	"send.sol": {
		"Send": {
			"abi": [
				{
					"inputs": [
						{
							"internalType": "address payable",
							"name": "getter",
							"type": "address"
						}
					],
					"name": "Call",
					"outputs": [],
					"stateMutability": "nonpayable",
					"type": "function"
				},
				{
					"inputs": [],
					"name": "checkBalance",
					"outputs": [
						{
							"internalType": "uint256",
							"name": "",
							"type": "uint256"
						}
					],
					"stateMutability": "view",
					"type": "function"
				},
				{
					"stateMutability": "payable",
					"type": "receive"
				}
			],
			"devdoc": {
				"kind": "dev",
				"methods": {},
				"version": 1
			},
			"evm": {
				"assembly": "    /* \"send.sol\":74:325  contract Send{\r... */\n  mstore(0x40, 0x80)\n  callvalue\n  dup1\n  iszero\n  tag_1\n  jumpi\n  0x00\n  dup1\n  revert\ntag_1:\n  pop\n  dataSize(sub_0)\n  dup1\n  dataOffset(sub_0)\n  0x00\n  codecopy\n  0x00\n  return\nstop\n\nsub_0: assembly {\n        /* \"send.sol\":74:325  contract Send{\r... */\n      mstore(0x40, 0x80)\n      jumpi(tag_1, lt(calldatasize, 0x04))\n      shr(0xe0, calldataload(0x00))\n      dup1\n      0x14132cc4\n      eq\n      tag_3\n      jumpi\n      dup1\n      0xc71daccb\n      eq\n      tag_4\n      jumpi\n      jump(tag_2)\n    tag_1:\n      jumpi(tag_2, calldatasize)\n      stop\n    tag_2:\n      0x00\n      dup1\n      revert\n        /* \"send.sol\":254:322  function Call(address payable getter) public\r... */\n    tag_3:\n      callvalue\n      dup1\n      iszero\n      tag_7\n      jumpi\n      0x00\n      dup1\n      revert\n    tag_7:\n      pop\n      tag_8\n      0x04\n      dup1\n      calldatasize\n      sub\n      0x20\n      dup2\n      lt\n      iszero\n      tag_9\n      jumpi\n      0x00\n      dup1\n      revert\n    tag_9:\n      dup2\n      add\n      swap1\n      dup1\n      dup1\n      calldataload\n      0xffffffffffffffffffffffffffffffffffffffff\n      and\n      swap1\n      0x20\n      add\n      swap1\n      swap3\n      swap2\n      swap1\n      pop\n      pop\n      pop\n      tag_10\n      jump\t// in\n    tag_8:\n      stop\n        /* \"send.sol\":144:246  function checkBalance() view public returns(uint)\r... */\n    tag_4:\n      callvalue\n      dup1\n      iszero\n      tag_11\n      jumpi\n      0x00\n      dup1\n      revert\n    tag_11:\n      pop\n      tag_12\n      tag_13\n      jump\t// in\n    tag_12:\n      mload(0x40)\n      dup1\n      dup3\n      dup2\n      mstore\n      0x20\n      add\n      swap2\n      pop\n      pop\n      mload(0x40)\n      dup1\n      swap2\n      sub\n      swap1\n      return\n        /* \"send.sol\":254:322  function Call(address payable getter) public\r... */\n    tag_10:\n      pop\n      jump\t// out\n        /* \"send.sol\":144:246  function checkBalance() view public returns(uint)\r... */\n    tag_13:\n        /* \"send.sol\":188:192  uint */\n      0x00\n        /* \"send.sol\":217:238  address(this).balance */\n      selfbalance\n        /* \"send.sol\":210:238  return address(this).balance */\n      swap1\n      pop\n        /* \"send.sol\":144:246  function checkBalance() view public returns(uint)\r... */\n      swap1\n      jump\t// out\n\n    auxdata: 0xa264697066735822122079c8cabee8ad57e2f6ff37dd4168bafff34cb2b3f96d17dc727e98c7819c527c64736f6c63430007060033\n}\n",
				"bytecode": {
					"linkReferences": {},
					"object": "608060405234801561001057600080fd5b5060ea8061001f6000396000f3fe60806040526004361060295760003560e01c806314132cc4146034578063c71daccb14608157602f565b36602f57005b600080fd5b348015603f57600080fd5b50607f60048036036020811015605457600080fd5b81019080803573ffffffffffffffffffffffffffffffffffffffff16906020019092919050505060a9565b005b348015608c57600080fd5b50609360ac565b6040518082815260200191505060405180910390f35b50565b60004790509056fea264697066735822122079c8cabee8ad57e2f6ff37dd4168bafff34cb2b3f96d17dc727e98c7819c527c64736f6c63430007060033",
					"opcodes": "PUSH1 0x80 PUSH1 0x40 MSTORE CALLVALUE DUP1 ISZERO PUSH2 0x10 JUMPI PUSH1 0x0 DUP1 REVERT JUMPDEST POP PUSH1 0xEA DUP1 PUSH2 0x1F PUSH1 0x0 CODECOPY PUSH1 0x0 RETURN INVALID PUSH1 0x80 PUSH1 0x40 MSTORE PUSH1 0x4 CALLDATASIZE LT PUSH1 0x29 JUMPI PUSH1 0x0 CALLDATALOAD PUSH1 0xE0 SHR DUP1 PUSH4 0x14132CC4 EQ PUSH1 0x34 JUMPI DUP1 PUSH4 0xC71DACCB EQ PUSH1 0x81 JUMPI PUSH1 0x2F JUMP JUMPDEST CALLDATASIZE PUSH1 0x2F JUMPI STOP JUMPDEST PUSH1 0x0 DUP1 REVERT JUMPDEST CALLVALUE DUP1 ISZERO PUSH1 0x3F JUMPI PUSH1 0x0 DUP1 REVERT JUMPDEST POP PUSH1 0x7F PUSH1 0x4 DUP1 CALLDATASIZE SUB PUSH1 0x20 DUP2 LT ISZERO PUSH1 0x54 JUMPI PUSH1 0x0 DUP1 REVERT JUMPDEST DUP2 ADD SWAP1 DUP1 DUP1 CALLDATALOAD PUSH20 0xFFFFFFFFFFFFFFFFFFFFFFFFFFFFFFFFFFFFFFFF AND SWAP1 PUSH1 0x20 ADD SWAP1 SWAP3 SWAP2 SWAP1 POP POP POP PUSH1 0xA9 JUMP JUMPDEST STOP JUMPDEST CALLVALUE DUP1 ISZERO PUSH1 0x8C JUMPI PUSH1 0x0 DUP1 REVERT JUMPDEST POP PUSH1 0x93 PUSH1 0xAC JUMP JUMPDEST PUSH1 0x40 MLOAD DUP1 DUP3 DUP2 MSTORE PUSH1 0x20 ADD SWAP2 POP POP PUSH1 0x40 MLOAD DUP1 SWAP2 SUB SWAP1 RETURN JUMPDEST POP JUMP JUMPDEST PUSH1 0x0 SELFBALANCE SWAP1 POP SWAP1 JUMP INVALID LOG2 PUSH5 0x6970667358 0x22 SLT KECCAK256 PUSH26 0xC8CABEE8AD57E2F6FF37DD4168BAFFF34CB2B3F96D17DC727E98 0xC7 DUP2 SWAP13 MSTORE PUSH29 0x64736F6C63430007060033000000000000000000000000000000000000 "
				},
				"gasEstimates": {
					"creation": {
						"codeDepositCost": "46800",
						"executionCost": "99",
						"totalCost": "46899"
					},
					"external": {
						"Call(address)": "212",
						"checkBalance()": "215"
					}
				},
				"methodIdentifiers": {
					"Call(address)": "14132cc4",
					"checkBalance()": "c71daccb"
				}
			},
			"storageLayout": {
				"storage": [],
				"types": null
			},
			"userdoc": {
				"kind": "user",
				"methods": {},
				"version": 1
			}
		}
	}
}