{
	"loop.sol": {
		"looop": {
			"abi": [
				{
					"inputs": [
						{
							"internalType": "uint256",
							"name": "",
							"type": "uint256"
						}
					],
					"name": "arra",
					"outputs": [
						{
							"internalType": "uint256",
							"name": "",
							"type": "uint256"
						}
					],
					"stateMutability": "view",
					"type": "function"
				},
				{
					"inputs": [],
					"name": "intt",
					"outputs": [
						{
							"internalType": "uint256",
							"name": "",
							"type": "uint256"
						}
					],
					"stateMutability": "view",
					"type": "function"
				},
				{
					"inputs": [],
					"name": "lopp",
					"outputs": [],
					"stateMutability": "nonpayable",
					"type": "function"
				}
			],
			"devdoc": {
				"kind": "dev",
				"methods": {},
				"version": 1
			},
			"evm": {
				"assembly": "    /* \"loop.sol\":74:300  contract looop{\r... */\n  mstore(0x40, 0x80)\n  callvalue\n  dup1\n  iszero\n  tag_1\n  jumpi\n  0x00\n  dup1\n  revert\ntag_1:\n  pop\n  dataSize(sub_0)\n  dup1\n  dataOffset(sub_0)\n  0x00\n  codecopy\n  0x00\n  return\nstop\n\nsub_0: assembly {\n        /* \"loop.sol\":74:300  contract looop{\r... */\n      mstore(0x40, 0x80)\n      callvalue\n      dup1\n      iszero\n      tag_1\n      jumpi\n      0x00\n      dup1\n      revert\n    tag_1:\n      pop\n      jumpi(tag_2, lt(calldatasize, 0x04))\n      shr(0xe0, calldataload(0x00))\n      dup1\n      0x092e0acd\n      eq\n      tag_3\n      jumpi\n      dup1\n      0x311b0347\n      eq\n      tag_4\n      jumpi\n      dup1\n      0x6ef3b795\n      eq\n      tag_5\n      jumpi\n    tag_2:\n      0x00\n      dup1\n      revert\n        /* \"loop.sol\":95:114  uint[4] public arra */\n    tag_3:\n      tag_6\n      0x04\n      dup1\n      calldatasize\n      sub\n      0x20\n      dup2\n      lt\n      iszero\n      tag_7\n      jumpi\n      0x00\n      dup1\n      revert\n    tag_7:\n      dup2\n      add\n      swap1\n      dup1\n      dup1\n      calldataload\n      swap1\n      0x20\n      add\n      swap1\n      swap3\n      swap2\n      swap1\n      pop\n      pop\n      pop\n      tag_8\n      jump\t// in\n    tag_6:\n      mload(0x40)\n      dup1\n      dup3\n      dup2\n      mstore\n      0x20\n      add\n      swap2\n      pop\n      pop\n      mload(0x40)\n      dup1\n      swap2\n      sub\n      swap1\n      return\n        /* \"loop.sol\":146:295  function lopp() public{\r... */\n    tag_4:\n      tag_9\n      tag_10\n      jump\t// in\n    tag_9:\n      stop\n        /* \"loop.sol\":121:137  uint public intt */\n    tag_5:\n      tag_11\n      tag_12\n      jump\t// in\n    tag_11:\n      mload(0x40)\n      dup1\n      dup3\n      dup2\n      mstore\n      0x20\n      add\n      swap2\n      pop\n      pop\n      mload(0x40)\n      dup1\n      swap2\n      sub\n      swap1\n      return\n        /* \"loop.sol\":95:114  uint[4] public arra */\n    tag_8:\n      0x00\n      dup2\n      0x04\n      dup2\n      lt\n      tag_13\n      jumpi\n      0x00\n      dup1\n      revert\n    tag_13:\n      add\n      0x00\n      swap2\n      pop\n      swap1\n      pop\n      sload\n      dup2\n      jump\t// out\n        /* \"loop.sol\":146:295  function lopp() public{\r... */\n    tag_10:\n        /* \"loop.sol\":184:190  uint i */\n      0x00\n        /* \"loop.sol\":191:195  intt */\n      sload(0x04)\n        /* \"loop.sol\":184:195  uint i=intt */\n      swap1\n      pop\n        /* \"loop.sol\":179:284  for (uint i=intt; i<arra.length; i)\r... */\n    tag_16:\n        /* \"loop.sol\":199:210  arra.length */\n      0x04\n        /* \"loop.sol\":197:198  i */\n      dup2\n        /* \"loop.sol\":197:210  i<arra.length */\n      lt\n        /* \"loop.sol\":179:284  for (uint i=intt; i<arra.length; i)\r... */\n      iszero\n      tag_17\n      jumpi\n        /* \"loop.sol\":247:251  intt */\n      sload(0x04)\n        /* \"loop.sol\":239:243  arra */\n      0x00\n        /* \"loop.sol\":244:245  i */\n      dup3\n        /* \"loop.sol\":239:246  arra[i] */\n      0x04\n      dup2\n      lt\n      tag_19\n      jumpi\n      invalid\n    tag_19:\n      add\n        /* \"loop.sol\":239:251  arra[i]=intt */\n      dup2\n      swap1\n      sstore\n      pop\n        /* \"loop.sol\":266:270  intt */\n      0x04\n      0x00\n        /* \"loop.sol\":266:272  intt++ */\n      dup2\n      sload\n      dup1\n      swap3\n      swap2\n      swap1\n      0x01\n      add\n      swap2\n      swap1\n      pop\n      sstore\n      pop\n        /* \"loop.sol\":179:284  for (uint i=intt; i<arra.length; i)\r... */\n      jump(tag_16)\n    tag_17:\n      pop\n        /* \"loop.sol\":146:295  function lopp() public{\r... */\n      jump\t// out\n        /* \"loop.sol\":121:137  uint public intt */\n    tag_12:\n      sload(0x04)\n      dup2\n      jump\t// out\n\n    auxdata: 0xa2646970667358221220c5c9eec040b6e0aa582faa79533cbe9988f22847d444ba4c7f5148c878c8b2b864736f6c63430007060033\n}\n",
				"bytecode": {
					"linkReferences": {},
					"object": "608060405234801561001057600080fd5b50610147806100206000396000f3fe608060405234801561001057600080fd5b50600436106100415760003560e01c8063092e0acd14610046578063311b0347146100885780636ef3b79514610092575b600080fd5b6100726004803603602081101561005c57600080fd5b81019080803590602001909291905050506100b0565b6040518082815260200191505060405180910390f35b6100906100cb565b005b61009a61010b565b6040518082815260200191505060405180910390f35b600081600481106100c057600080fd5b016000915090505481565b600060045490505b600481101561010857600454600082600481106100ec57fe5b01819055506004600081548092919060010191905055506100d3565b50565b6004548156fea2646970667358221220c5c9eec040b6e0aa582faa79533cbe9988f22847d444ba4c7f5148c878c8b2b864736f6c63430007060033",
					"opcodes": "PUSH1 0x80 PUSH1 0x40 MSTORE CALLVALUE DUP1 ISZERO PUSH2 0x10 JUMPI PUSH1 0x0 DUP1 REVERT JUMPDEST POP PUSH2 0x147 DUP1 PUSH2 0x20 PUSH1 0x0 CODECOPY PUSH1 0x0 RETURN INVALID PUSH1 0x80 PUSH1 0x40 MSTORE CALLVALUE DUP1 ISZERO PUSH2 0x10 JUMPI PUSH1 0x0 DUP1 REVERT JUMPDEST POP PUSH1 0x4 CALLDATASIZE LT PUSH2 0x41 JUMPI PUSH1 0x0 CALLDATALOAD PUSH1 0xE0 SHR DUP1 PUSH4 0x92E0ACD EQ PUSH2 0x46 JUMPI DUP1 PUSH4 0x311B0347 EQ PUSH2 0x88 JUMPI DUP1 PUSH4 0x6EF3B795 EQ PUSH2 0x92 JUMPI JUMPDEST PUSH1 0x0 DUP1 REVERT JUMPDEST PUSH2 0x72 PUSH1 0x4 DUP1 CALLDATASIZE SUB PUSH1 0x20 DUP2 LT ISZERO PUSH2 0x5C JUMPI PUSH1 0x0 DUP1 REVERT JUMPDEST DUP2 ADD SWAP1 DUP1 DUP1 CALLDATALOAD SWAP1 PUSH1 0x20 ADD SWAP1 SWAP3 SWAP2 SWAP1 POP POP POP PUSH2 0xB0 JUMP JUMPDEST PUSH1 0x40 MLOAD DUP1 DUP3 DUP2 MSTORE PUSH1 0x20 ADD SWAP2 POP POP PUSH1 0x40 MLOAD DUP1 SWAP2 SUB SWAP1 RETURN JUMPDEST PUSH2 0x90 PUSH2 0xCB JUMP JUMPDEST STOP JUMPDEST PUSH2 0x9A PUSH2 0x10B JUMP JUMPDEST PUSH1 0x40 MLOAD DUP1 DUP3 DUP2 MSTORE PUSH1 0x20 ADD SWAP2 POP POP PUSH1 0x40 MLOAD DUP1 SWAP2 SUB SWAP1 RETURN JUMPDEST PUSH1 0x0 DUP2 PUSH1 0x4 DUP2 LT PUSH2 0xC0 JUMPI PUSH1 0x0 DUP1 REVERT JUMPDEST ADD PUSH1 0x0 SWAP2 POP SWAP1 POP SLOAD DUP2 JUMP JUMPDEST PUSH1 0x0 PUSH1 0x4 SLOAD SWAP1 POP JUMPDEST PUSH1 0x4 DUP2 LT ISZERO PUSH2 0x108 JUMPI PUSH1 0x4 SLOAD PUSH1 0x0 DUP3 PUSH1 0x4 DUP2 LT PUSH2 0xEC JUMPI INVALID JUMPDEST ADD DUP2 SWAP1 SSTORE POP PUSH1 0x4 PUSH1 0x0 DUP2 SLOAD DUP1 SWAP3 SWAP2 SWAP1 PUSH1 0x1 ADD SWAP2 SWAP1 POP SSTORE POP PUSH2 0xD3 JUMP JUMPDEST POP JUMP JUMPDEST PUSH1 0x4 SLOAD DUP2 JUMP INVALID LOG2 PUSH5 0x6970667358 0x22 SLT KECCAK256 0xC5 0xC9 0xEE 0xC0 BLOCKHASH 0xB6 0xE0 0xAA PC 0x2F 0xAA PUSH26 0x533CBE9988F22847D444BA4C7F5148C878C8B2B864736F6C6343 STOP SMOD MOD STOP CALLER "
				},
				"gasEstimates": {
					"creation": {
						"codeDepositCost": "65400",
						"executionCost": "117",
						"totalCost": "65517"
					},
					"external": {
						"arra(uint256)": "1107",
						"intt()": "1027",
						"lopp()": "infinite"
					}
				},
				"methodIdentifiers": {
					"arra(uint256)": "092e0acd",
					"intt()": "6ef3b795",
					"lopp()": "311b0347"
				}
			},
			"storageLayout": {
				"storage": [
					{
						"astId": 5,
						"contract": "loop.sol:looop",
						"label": "arra",
						"offset": 0,
						"slot": "0",
						"type": "t_array(t_uint256)4_storage"
					},
					{
						"astId": 7,
						"contract": "loop.sol:looop",
						"label": "intt",
						"offset": 0,
						"slot": "4",
						"type": "t_uint256"
					}
				],
				"types": {
					"t_array(t_uint256)4_storage": {
						"base": "t_uint256",
						"encoding": "inplace",
						"label": "uint256[4]",
						"numberOfBytes": "128"
					},
					"t_uint256": {
						"encoding": "inplace",
						"label": "uint256",
						"numberOfBytes": "32"
					}
				}
			},
			"userdoc": {
				"kind": "user",
				"methods": {},
				"version": 1
			}
		}
	}
}