{
	"crowdfunfding.sol": {
		"crowdfundingg": {
			"abi": [
				{
					"inputs": [
						{
							"internalType": "uint256",
							"name": "_target",
							"type": "uint256"
						},
						{
							"internalType": "uint256",
							"name": "_deadline",
							"type": "uint256"
						}
					],
					"stateMutability": "nonpayable",
					"type": "constructor"
				},
				{
					"inputs": [
						{
							"internalType": "address",
							"name": "",
							"type": "address"
						}
					],
					"name": "contributors",
					"outputs": [
						{
							"internalType": "uint256",
							"name": "",
							"type": "uint256"
						}
					],
					"stateMutability": "view",
					"type": "function"
				},
				{
					"inputs": [],
					"name": "deadline",
					"outputs": [
						{
							"internalType": "uint256",
							"name": "",
							"type": "uint256"
						}
					],
					"stateMutability": "view",
					"type": "function"
				},
				{
					"inputs": [],
					"name": "getbalance",
					"outputs": [
						{
							"internalType": "uint256",
							"name": "",
							"type": "uint256"
						}
					],
					"stateMutability": "view",
					"type": "function"
				},
				{
					"inputs": [],
					"name": "manager",
					"outputs": [
						{
							"internalType": "address",
							"name": "",
							"type": "address"
						}
					],
					"stateMutability": "view",
					"type": "function"
				},
				{
					"inputs": [],
					"name": "mincontribution",
					"outputs": [
						{
							"internalType": "uint256",
							"name": "",
							"type": "uint256"
						}
					],
					"stateMutability": "view",
					"type": "function"
				},
				{
					"inputs": [],
					"name": "noOfcontributors",
					"outputs": [
						{
							"internalType": "uint256",
							"name": "",
							"type": "uint256"
						}
					],
					"stateMutability": "view",
					"type": "function"
				},
				{
					"inputs": [],
					"name": "numbers",
					"outputs": [
						{
							"internalType": "uint256",
							"name": "",
							"type": "uint256"
						}
					],
					"stateMutability": "view",
					"type": "function"
				},
				{
					"inputs": [],
					"name": "raisedamount",
					"outputs": [
						{
							"internalType": "uint256",
							"name": "",
							"type": "uint256"
						}
					],
					"stateMutability": "view",
					"type": "function"
				},
				{
					"inputs": [],
					"name": "refund",
					"outputs": [],
					"stateMutability": "nonpayable",
					"type": "function"
				},
				{
					"inputs": [],
					"name": "sendEther",
					"outputs": [],
					"stateMutability": "payable",
					"type": "function"
				},
				{
					"inputs": [],
					"name": "target",
					"outputs": [
						{
							"internalType": "uint256",
							"name": "",
							"type": "uint256"
						}
					],
					"stateMutability": "view",
					"type": "function"
				}
			],
			"devdoc": {
				"kind": "dev",
				"methods": {},
				"version": 1
			},
			"evm": {
				"assembly": "    /* \"crowdfunfding.sol\":74:1745  contract crowdfundingg\r... */\n  mstore(0x40, 0x80)\n    /* \"crowdfunfding.sol\":546:739  constructor(uint _target, uint _deadline)\r... */\n  callvalue\n  dup1\n  iszero\n  tag_1\n  jumpi\n  0x00\n  dup1\n  revert\ntag_1:\n  pop\n  mload(0x40)\n  sub(codesize, bytecodeSize)\n  dup1\n  bytecodeSize\n  dup4\n  codecopy\n  dup2\n  dup2\n  add\n  0x40\n  mstore\n  0x40\n  dup2\n  lt\n  iszero\n  tag_2\n  jumpi\n  0x00\n  dup1\n  revert\ntag_2:\n  dup2\n  add\n  swap1\n  dup1\n  dup1\n  mload\n  swap1\n  0x20\n  add\n  swap1\n  swap3\n  swap2\n  swap1\n  dup1\n  mload\n  swap1\n  0x20\n  add\n  swap1\n  swap3\n  swap2\n  swap1\n  pop\n  pop\n  pop\n    /* \"crowdfunfding.sol\":612:619  _target */\n  dup2\n    /* \"crowdfunfding.sol\":604:610  target */\n  0x02\n    /* \"crowdfunfding.sol\":604:619  target= _target */\n  dup2\n  swap1\n  sstore\n  pop\n    /* \"crowdfunfding.sol\":657:666  _deadline */\n  dup1\n    /* \"crowdfunfding.sol\":641:656  block.timestamp */\n  timestamp\n    /* \"crowdfunfding.sol\":641:666  block.timestamp+_deadline */\n  add\n    /* \"crowdfunfding.sol\":630:638  deadline */\n  0x03\n    /* \"crowdfunfding.sol\":630:666  deadline = block.timestamp+_deadline */\n  dup2\n  swap1\n  sstore\n  pop\n    /* \"crowdfunfding.sol\":693:700  100 wei */\n  0x64\n    /* \"crowdfunfding.sol\":677:692  mincontribution */\n  0x04\n    /* \"crowdfunfding.sol\":677:700  mincontribution=100 wei */\n  dup2\n  swap1\n  sstore\n  pop\n    /* \"crowdfunfding.sol\":719:729  msg.sender */\n  caller\n    /* \"crowdfunfding.sol\":711:718  manager */\n  0x01\n  0x00\n    /* \"crowdfunfding.sol\":711:729  manager=msg.sender */\n  0x0100\n  exp\n  dup2\n  sload\n  dup2\n  0xffffffffffffffffffffffffffffffffffffffff\n  mul\n  not\n  and\n  swap1\n  dup4\n  0xffffffffffffffffffffffffffffffffffffffff\n  and\n  mul\n  or\n  swap1\n  sstore\n  pop\n    /* \"crowdfunfding.sol\":546:739  constructor(uint _target, uint _deadline)\r... */\n  pop\n  pop\n    /* \"crowdfunfding.sol\":74:1745  contract crowdfundingg\r... */\n  dataSize(sub_0)\n  dup1\n  dataOffset(sub_0)\n  0x00\n  codecopy\n  0x00\n  return\nstop\n\nsub_0: assembly {\n        /* \"crowdfunfding.sol\":74:1745  contract crowdfundingg\r... */\n      mstore(0x40, 0x80)\n      jumpi(tag_1, lt(calldatasize, 0x04))\n      shr(0xe0, calldataload(0x00))\n      dup1\n      0x481c6a75\n      gt\n      tag_13\n      jumpi\n      dup1\n      0x481c6a75\n      eq\n      tag_7\n      jumpi\n      dup1\n      0x4d9b3d5d\n      eq\n      tag_8\n      jumpi\n      dup1\n      0x590e1ae3\n      eq\n      tag_9\n      jumpi\n      dup1\n      0x80e52d68\n      eq\n      tag_10\n      jumpi\n      dup1\n      0xc8a8a86a\n      eq\n      tag_11\n      jumpi\n      dup1\n      0xd4b83992\n      eq\n      tag_12\n      jumpi\n      jump(tag_1)\n    tag_13:\n      dup1\n      0x0e29df22\n      eq\n      tag_2\n      jumpi\n      dup1\n      0x1f6d4942\n      eq\n      tag_3\n      jumpi\n      dup1\n      0x27722f6a\n      eq\n      tag_4\n      jumpi\n      dup1\n      0x29dcb0cf\n      eq\n      tag_5\n      jumpi\n      dup1\n      0x3b644d18\n      eq\n      tag_6\n      jumpi\n    tag_1:\n      0x00\n      dup1\n      revert\n        /* \"crowdfunfding.sol\":751:1129  function sendEther() public payable\r... */\n    tag_2:\n      tag_14\n      tag_15\n      jump\t// in\n    tag_14:\n      stop\n        /* \"crowdfunfding.sol\":105:147  mapping(address=>uint) public contributors */\n    tag_3:\n      callvalue\n      dup1\n      iszero\n      tag_16\n      jumpi\n      0x00\n      dup1\n      revert\n    tag_16:\n      pop\n      tag_17\n      0x04\n      dup1\n      calldatasize\n      sub\n      0x20\n      dup2\n      lt\n      iszero\n      tag_18\n      jumpi\n      0x00\n      dup1\n      revert\n    tag_18:\n      dup2\n      add\n      swap1\n      dup1\n      dup1\n      calldataload\n      0xffffffffffffffffffffffffffffffffffffffff\n      and\n      swap1\n      0x20\n      add\n      swap1\n      swap3\n      swap2\n      swap1\n      pop\n      pop\n      pop\n      tag_19\n      jump\t// in\n    tag_17:\n      mload(0x40)\n      dup1\n      dup3\n      dup2\n      mstore\n      0x20\n      add\n      swap2\n      pop\n      pop\n      mload(0x40)\n      dup1\n      swap2\n      sub\n      swap1\n      return\n        /* \"crowdfunfding.sol\":1714:1733  uint public numbers */\n    tag_4:\n      callvalue\n      dup1\n      iszero\n      tag_20\n      jumpi\n      0x00\n      dup1\n      revert\n    tag_20:\n      pop\n      tag_21\n      tag_22\n      jump\t// in\n    tag_21:\n      mload(0x40)\n      dup1\n      dup3\n      dup2\n      mstore\n      0x20\n      add\n      swap2\n      pop\n      pop\n      mload(0x40)\n      dup1\n      swap2\n      sub\n      swap1\n      return\n        /* \"crowdfunfding.sol\":208:228  uint public deadline */\n    tag_5:\n      callvalue\n      dup1\n      iszero\n      tag_23\n      jumpi\n      0x00\n      dup1\n      revert\n    tag_23:\n      pop\n      tag_24\n      tag_25\n      jump\t// in\n    tag_24:\n      mload(0x40)\n      dup1\n      dup3\n      dup2\n      mstore\n      0x20\n      add\n      swap2\n      pop\n      pop\n      mload(0x40)\n      dup1\n      swap2\n      sub\n      swap1\n      return\n        /* \"crowdfunfding.sol\":269:293  uint public raisedamount */\n    tag_6:\n      callvalue\n      dup1\n      iszero\n      tag_26\n      jumpi\n      0x00\n      dup1\n      revert\n    tag_26:\n      pop\n      tag_27\n      tag_28\n      jump\t// in\n    tag_27:\n      mload(0x40)\n      dup1\n      dup3\n      dup2\n      mstore\n      0x20\n      add\n      swap2\n      pop\n      pop\n      mload(0x40)\n      dup1\n      swap2\n      sub\n      swap1\n      return\n        /* \"crowdfunfding.sol\":154:176  address public manager */\n    tag_7:\n      callvalue\n      dup1\n      iszero\n      tag_29\n      jumpi\n      0x00\n      dup1\n      revert\n    tag_29:\n      pop\n      tag_30\n      tag_31\n      jump\t// in\n    tag_30:\n      mload(0x40)\n      dup1\n      dup3\n      0xffffffffffffffffffffffffffffffffffffffff\n      and\n      dup2\n      mstore\n      0x20\n      add\n      swap2\n      pop\n      pop\n      mload(0x40)\n      dup1\n      swap2\n      sub\n      swap1\n      return\n        /* \"crowdfunfding.sol\":1140:1279  function getbalance() public view returns(uint)\r... */\n    tag_8:\n      callvalue\n      dup1\n      iszero\n      tag_32\n      jumpi\n      0x00\n      dup1\n      revert\n    tag_32:\n      pop\n      tag_33\n      tag_34\n      jump\t// in\n    tag_33:\n      mload(0x40)\n      dup1\n      dup3\n      dup2\n      mstore\n      0x20\n      add\n      swap2\n      pop\n      pop\n      mload(0x40)\n      dup1\n      swap2\n      sub\n      swap1\n      return\n        /* \"crowdfunfding.sol\":1287:1542  function refund() public\r... */\n    tag_9:\n      callvalue\n      dup1\n      iszero\n      tag_35\n      jumpi\n      0x00\n      dup1\n      revert\n    tag_35:\n      pop\n      tag_36\n      tag_37\n      jump\t// in\n    tag_36:\n      stop\n        /* \"crowdfunfding.sol\":235:262  uint public mincontribution */\n    tag_10:\n      callvalue\n      dup1\n      iszero\n      tag_38\n      jumpi\n      0x00\n      dup1\n      revert\n    tag_38:\n      pop\n      tag_39\n      tag_40\n      jump\t// in\n    tag_39:\n      mload(0x40)\n      dup1\n      dup3\n      dup2\n      mstore\n      0x20\n      add\n      swap2\n      pop\n      pop\n      mload(0x40)\n      dup1\n      swap2\n      sub\n      swap1\n      return\n        /* \"crowdfunfding.sol\":300:328  uint public noOfcontributors */\n    tag_11:\n      callvalue\n      dup1\n      iszero\n      tag_41\n      jumpi\n      0x00\n      dup1\n      revert\n    tag_41:\n      pop\n      tag_42\n      tag_43\n      jump\t// in\n    tag_42:\n      mload(0x40)\n      dup1\n      dup3\n      dup2\n      mstore\n      0x20\n      add\n      swap2\n      pop\n      pop\n      mload(0x40)\n      dup1\n      swap2\n      sub\n      swap1\n      return\n        /* \"crowdfunfding.sol\":183:201  uint public target */\n    tag_12:\n      callvalue\n      dup1\n      iszero\n      tag_44\n      jumpi\n      0x00\n      dup1\n      revert\n    tag_44:\n      pop\n      tag_45\n      tag_46\n      jump\t// in\n    tag_45:\n      mload(0x40)\n      dup1\n      dup3\n      dup2\n      mstore\n      0x20\n      add\n      swap2\n      pop\n      pop\n      mload(0x40)\n      dup1\n      swap2\n      sub\n      swap1\n      return\n        /* \"crowdfunfding.sol\":751:1129  function sendEther() public payable\r... */\n    tag_15:\n        /* \"crowdfunfding.sol\":827:835  deadline */\n      sload(0x03)\n        /* \"crowdfunfding.sol\":811:826  block.timestamp */\n      timestamp\n        /* \"crowdfunfding.sol\":811:835  block.timestamp<deadline */\n      lt\n        /* \"crowdfunfding.sol\":803:863  require(block.timestamp<deadline,\"deadline has been passed\") */\n      tag_48\n      jumpi\n      mload(0x40)\n      0x08c379a000000000000000000000000000000000000000000000000000000000\n      dup2\n      mstore\n      0x04\n      add\n      dup1\n      dup1\n      0x20\n      add\n      dup3\n      dup2\n      sub\n      dup3\n      mstore\n      0x18\n      dup2\n      mstore\n      0x20\n      add\n      dup1\n      0x646561646c696e6520686173206265656e207061737365640000000000000000\n      dup2\n      mstore\n      pop\n      0x20\n      add\n      swap2\n      pop\n      pop\n      mload(0x40)\n      dup1\n      swap2\n      sub\n      swap1\n      revert\n    tag_48:\n        /* \"crowdfunfding.sol\":892:907  mincontribution */\n      sload(0x04)\n        /* \"crowdfunfding.sol\":882:891  msg.value */\n      callvalue\n        /* \"crowdfunfding.sol\":882:907  msg.value>mincontribution */\n      gt\n        /* \"crowdfunfding.sol\":874:939  require(msg.value>mincontribution,\"minimum balance does not met\") */\n      tag_49\n      jumpi\n      mload(0x40)\n      0x08c379a000000000000000000000000000000000000000000000000000000000\n      dup2\n      mstore\n      0x04\n      add\n      dup1\n      dup1\n      0x20\n      add\n      dup3\n      dup2\n      sub\n      dup3\n      mstore\n      0x1c\n      dup2\n      mstore\n      0x20\n      add\n      dup1\n      0x6d696e696d756d2062616c616e636520646f6573206e6f74206d657400000000\n      dup2\n      mstore\n      pop\n      0x20\n      add\n      swap2\n      pop\n      pop\n      mload(0x40)\n      dup1\n      swap2\n      sub\n      swap1\n      revert\n    tag_49:\n        /* \"crowdfunfding.sol\":979:980  0 */\n      0x00\n        /* \"crowdfunfding.sol\":953:965  contributors */\n      dup1\n        /* \"crowdfunfding.sol\":953:977  contributors[msg.sender] */\n      0x00\n        /* \"crowdfunfding.sol\":966:976  msg.sender */\n      caller\n        /* \"crowdfunfding.sol\":953:977  contributors[msg.sender] */\n      0xffffffffffffffffffffffffffffffffffffffff\n      and\n      0xffffffffffffffffffffffffffffffffffffffff\n      and\n      dup2\n      mstore\n      0x20\n      add\n      swap1\n      dup2\n      mstore\n      0x20\n      add\n      0x00\n      keccak256\n      sload\n        /* \"crowdfunfding.sol\":953:980  contributors[msg.sender]==0 */\n      eq\n        /* \"crowdfunfding.sol\":950:1036  if(contributors[msg.sender]==0)\r... */\n      iszero\n      tag_50\n      jumpi\n        /* \"crowdfunfding.sol\":1006:1022  noOfcontributors */\n      0x06\n      0x00\n        /* \"crowdfunfding.sol\":1006:1024  noOfcontributors++ */\n      dup2\n      sload\n      dup1\n      swap3\n      swap2\n      swap1\n      0x01\n      add\n      swap2\n      swap1\n      pop\n      sstore\n      pop\n        /* \"crowdfunfding.sol\":950:1036  if(contributors[msg.sender]==0)\r... */\n    tag_50:\n        /* \"crowdfunfding.sol\":1073:1082  msg.value */\n      callvalue\n        /* \"crowdfunfding.sol\":1046:1058  contributors */\n      0x00\n        /* \"crowdfunfding.sol\":1046:1070  contributors[msg.sender] */\n      dup1\n        /* \"crowdfunfding.sol\":1059:1069  msg.sender */\n      caller\n        /* \"crowdfunfding.sol\":1046:1070  contributors[msg.sender] */\n      0xffffffffffffffffffffffffffffffffffffffff\n      and\n      0xffffffffffffffffffffffffffffffffffffffff\n      and\n      dup2\n      mstore\n      0x20\n      add\n      swap1\n      dup2\n      mstore\n      0x20\n      add\n      0x00\n      keccak256\n      0x00\n        /* \"crowdfunfding.sol\":1046:1083  contributors[msg.sender]+=(msg.value) */\n      dup3\n      dup3\n      sload\n      add\n      swap3\n      pop\n      pop\n      dup2\n      swap1\n      sstore\n      pop\n        /* \"crowdfunfding.sol\":1109:1118  msg.value */\n      callvalue\n        /* \"crowdfunfding.sol\":1094:1106  raisedamount */\n      0x05\n      0x00\n        /* \"crowdfunfding.sol\":1094:1119  raisedamount+=(msg.value) */\n      dup3\n      dup3\n      sload\n      add\n      swap3\n      pop\n      pop\n      dup2\n      swap1\n      sstore\n      pop\n        /* \"crowdfunfding.sol\":751:1129  function sendEther() public payable\r... */\n      jump\t// out\n        /* \"crowdfunfding.sol\":105:147  mapping(address=>uint) public contributors */\n    tag_19:\n      mstore(0x20, 0x00)\n      dup1\n      0x00\n      mstore\n      keccak256(0x00, 0x40)\n      0x00\n      swap2\n      pop\n      swap1\n      pop\n      sload\n      dup2\n      jump\t// out\n        /* \"crowdfunfding.sol\":1714:1733  uint public numbers */\n    tag_22:\n      sload(0x08)\n      dup2\n      jump\t// out\n        /* \"crowdfunfding.sol\":208:228  uint public deadline */\n    tag_25:\n      sload(0x03)\n      dup2\n      jump\t// out\n        /* \"crowdfunfding.sol\":269:293  uint public raisedamount */\n    tag_28:\n      sload(0x05)\n      dup2\n      jump\t// out\n        /* \"crowdfunfding.sol\":154:176  address public manager */\n    tag_31:\n      0x01\n      0x00\n      swap1\n      sload\n      swap1\n      0x0100\n      exp\n      swap1\n      div\n      0xffffffffffffffffffffffffffffffffffffffff\n      and\n      dup2\n      jump\t// out\n        /* \"crowdfunfding.sol\":1140:1279  function getbalance() public view returns(uint)\r... */\n    tag_34:\n        /* \"crowdfunfding.sol\":1182:1186  uint */\n      0x00\n        /* \"crowdfunfding.sol\":1221:1231  msg.sender */\n      caller\n        /* \"crowdfunfding.sol\":1212:1231  manager==msg.sender */\n      0xffffffffffffffffffffffffffffffffffffffff\n      and\n        /* \"crowdfunfding.sol\":1212:1219  manager */\n      0x01\n      0x00\n      swap1\n      sload\n      swap1\n      0x0100\n      exp\n      swap1\n      div\n      0xffffffffffffffffffffffffffffffffffffffff\n      and\n        /* \"crowdfunfding.sol\":1212:1231  manager==msg.sender */\n      0xffffffffffffffffffffffffffffffffffffffff\n      and\n      eq\n        /* \"crowdfunfding.sol\":1204:1232  require(manager==msg.sender) */\n      tag_52\n      jumpi\n      0x00\n      dup1\n      revert\n    tag_52:\n        /* \"crowdfunfding.sol\":1250:1271  address(this).balance */\n      selfbalance\n        /* \"crowdfunfding.sol\":1243:1271  return address(this).balance */\n      swap1\n      pop\n        /* \"crowdfunfding.sol\":1140:1279  function getbalance() public view returns(uint)\r... */\n      swap1\n      jump\t// out\n        /* \"crowdfunfding.sol\":1287:1542  function refund() public\r... */\n    tag_37:\n        /* \"crowdfunfding.sol\":1345:1360  block.timestamp */\n      timestamp\n        /* \"crowdfunfding.sol\":1336:1344  deadline */\n      sload(0x03)\n        /* \"crowdfunfding.sol\":1336:1360  deadline>block.timestamp */\n      gt\n        /* \"crowdfunfding.sol\":1336:1383  deadline>block.timestamp && raisedamount<target */\n      dup1\n      iszero\n      tag_54\n      jumpi\n      pop\n        /* \"crowdfunfding.sol\":1377:1383  target */\n      sload(0x02)\n        /* \"crowdfunfding.sol\":1364:1376  raisedamount */\n      sload(0x05)\n        /* \"crowdfunfding.sol\":1364:1383  raisedamount<target */\n      lt\n        /* \"crowdfunfding.sol\":1336:1383  deadline>block.timestamp && raisedamount<target */\n    tag_54:\n        /* \"crowdfunfding.sol\":1328:1384  require(deadline>block.timestamp && raisedamount<target) */\n      tag_55\n      jumpi\n      0x00\n      dup1\n      revert\n    tag_55:\n        /* \"crowdfunfding.sol\":1428:1429  0 */\n      0x00\n        /* \"crowdfunfding.sol\":1403:1415  contributors */\n      dup1\n        /* \"crowdfunfding.sol\":1403:1427  contributors[msg.sender] */\n      0x00\n        /* \"crowdfunfding.sol\":1416:1426  msg.sender */\n      caller\n        /* \"crowdfunfding.sol\":1403:1427  contributors[msg.sender] */\n      0xffffffffffffffffffffffffffffffffffffffff\n      and\n      0xffffffffffffffffffffffffffffffffffffffff\n      and\n      dup2\n      mstore\n      0x20\n      add\n      swap1\n      dup2\n      mstore\n      0x20\n      add\n      0x00\n      keccak256\n      sload\n        /* \"crowdfunfding.sol\":1403:1429  contributors[msg.sender]>0 */\n      gt\n        /* \"crowdfunfding.sol\":1395:1430  require(contributors[msg.sender]>0) */\n      tag_56\n      jumpi\n      0x00\n      dup1\n      revert\n    tag_56:\n        /* \"crowdfunfding.sol\":1441:1461  address payable user */\n      0x00\n        /* \"crowdfunfding.sol\":1471:1481  msg.sender */\n      caller\n        /* \"crowdfunfding.sol\":1441:1482  address payable user= payable(msg.sender) */\n      swap1\n      pop\n        /* \"crowdfunfding.sol\":1493:1497  user */\n      dup1\n        /* \"crowdfunfding.sol\":1493:1506  user.transfer */\n      0xffffffffffffffffffffffffffffffffffffffff\n      and\n        /* \"crowdfunfding.sol\":1493:1532  user.transfer(contributors[msg.sender]) */\n      0x08fc\n        /* \"crowdfunfding.sol\":1507:1519  contributors */\n      0x00\n        /* \"crowdfunfding.sol\":1507:1531  contributors[msg.sender] */\n      dup1\n        /* \"crowdfunfding.sol\":1520:1530  msg.sender */\n      caller\n        /* \"crowdfunfding.sol\":1507:1531  contributors[msg.sender] */\n      0xffffffffffffffffffffffffffffffffffffffff\n      and\n      0xffffffffffffffffffffffffffffffffffffffff\n      and\n      dup2\n      mstore\n      0x20\n      add\n      swap1\n      dup2\n      mstore\n      0x20\n      add\n      0x00\n      keccak256\n      sload\n        /* \"crowdfunfding.sol\":1493:1532  user.transfer(contributors[msg.sender]) */\n      swap1\n      dup2\n      iszero\n      mul\n      swap1\n      mload(0x40)\n      0x00\n      mload(0x40)\n      dup1\n      dup4\n      sub\n      dup2\n      dup6\n      dup9\n      dup9\n      call\n      swap4\n      pop\n      pop\n      pop\n      pop\n      iszero\n      dup1\n      iszero\n      tag_58\n      jumpi\n      returndatasize\n      0x00\n      dup1\n      returndatacopy\n      revert(0x00, returndatasize)\n    tag_58:\n      pop\n        /* \"crowdfunfding.sol\":1287:1542  function refund() public\r... */\n      pop\n      jump\t// out\n        /* \"crowdfunfding.sol\":235:262  uint public mincontribution */\n    tag_40:\n      sload(0x04)\n      dup2\n      jump\t// out\n        /* \"crowdfunfding.sol\":300:328  uint public noOfcontributors */\n    tag_43:\n      sload(0x06)\n      dup2\n      jump\t// out\n        /* \"crowdfunfding.sol\":183:201  uint public target */\n    tag_46:\n      sload(0x02)\n      dup2\n      jump\t// out\n\n    auxdata: 0xa2646970667358221220b44afdaeb913477d10e5687c3ba1d49e2dcb9cc5e208cb1aa2689d11abdf216264736f6c63430007060033\n}\n",
				"bytecode": {
					"linkReferences": {},
					"object": "608060405234801561001057600080fd5b506040516106e23803806106e28339818101604052604081101561003357600080fd5b81019080805190602001909291908051906020019092919050505081600281905550804201600381905550606460048190555033600160006101000a81548173ffffffffffffffffffffffffffffffffffffffff021916908373ffffffffffffffffffffffffffffffffffffffff160217905550505061062a806100b86000396000f3fe60806040526004361061009c5760003560e01c8063481c6a7511610064578063481c6a75146101915780634d9b3d5d146101d2578063590e1ae3146101fd57806380e52d6814610214578063c8a8a86a1461023f578063d4b839921461026a5761009c565b80630e29df22146100a15780631f6d4942146100ab57806327722f6a1461011057806329dcb0cf1461013b5780633b644d1814610166575b600080fd5b6100a9610295565b005b3480156100b757600080fd5b506100fa600480360360208110156100ce57600080fd5b81019080803573ffffffffffffffffffffffffffffffffffffffff16906020019092919050505061043b565b6040518082815260200191505060405180910390f35b34801561011c57600080fd5b50610125610453565b6040518082815260200191505060405180910390f35b34801561014757600080fd5b50610150610459565b6040518082815260200191505060405180910390f35b34801561017257600080fd5b5061017b61045f565b6040518082815260200191505060405180910390f35b34801561019d57600080fd5b506101a6610465565b604051808273ffffffffffffffffffffffffffffffffffffffff16815260200191505060405180910390f35b3480156101de57600080fd5b506101e761048b565b6040518082815260200191505060405180910390f35b34801561020957600080fd5b506102126104ed565b005b34801561022057600080fd5b506102296105e2565b6040518082815260200191505060405180910390f35b34801561024b57600080fd5b506102546105e8565b6040518082815260200191505060405180910390f35b34801561027657600080fd5b5061027f6105ee565b6040518082815260200191505060405180910390f35b600354421061030c576040517f08c379a00000000000000000000000000000000000000000000000000000000081526004018080602001828103825260188152602001807f646561646c696e6520686173206265656e20706173736564000000000000000081525060200191505060405180910390fd5b6004543411610383576040517f08c379a000000000000000000000000000000000000000000000000000000000815260040180806020018281038252601c8152602001807f6d696e696d756d2062616c616e636520646f6573206e6f74206d65740000000081525060200191505060405180910390fd5b60008060003373ffffffffffffffffffffffffffffffffffffffff1673ffffffffffffffffffffffffffffffffffffffff1681526020019081526020016000205414156103dd576006600081548092919060010191905055505b346000803373ffffffffffffffffffffffffffffffffffffffff1673ffffffffffffffffffffffffffffffffffffffff1681526020019081526020016000206000828254019250508190555034600560008282540192505081905550565b60006020528060005260406000206000915090505481565b60085481565b60035481565b60055481565b600160009054906101000a900473ffffffffffffffffffffffffffffffffffffffff1681565b60003373ffffffffffffffffffffffffffffffffffffffff16600160009054906101000a900473ffffffffffffffffffffffffffffffffffffffff1673ffffffffffffffffffffffffffffffffffffffff16146104e757600080fd5b47905090565b426003541180156105015750600254600554105b61050a57600080fd5b60008060003373ffffffffffffffffffffffffffffffffffffffff1673ffffffffffffffffffffffffffffffffffffffff168152602001908152602001600020541161055557600080fd5b60003390508073ffffffffffffffffffffffffffffffffffffffff166108fc6000803373ffffffffffffffffffffffffffffffffffffffff1673ffffffffffffffffffffffffffffffffffffffff168152602001908152602001600020549081150290604051600060405180830381858888f193505050501580156105de573d6000803e3d6000fd5b5050565b60045481565b60065481565b6002548156fea2646970667358221220b44afdaeb913477d10e5687c3ba1d49e2dcb9cc5e208cb1aa2689d11abdf216264736f6c63430007060033",
					"opcodes": "PUSH1 0x80 PUSH1 0x40 MSTORE CALLVALUE DUP1 ISZERO PUSH2 0x10 JUMPI PUSH1 0x0 DUP1 REVERT JUMPDEST POP PUSH1 0x40 MLOAD PUSH2 0x6E2 CODESIZE SUB DUP1 PUSH2 0x6E2 DUP4 CODECOPY DUP2 DUP2 ADD PUSH1 0x40 MSTORE PUSH1 0x40 DUP2 LT ISZERO PUSH2 0x33 JUMPI PUSH1 0x0 DUP1 REVERT JUMPDEST DUP2 ADD SWAP1 DUP1 DUP1 MLOAD SWAP1 PUSH1 0x20 ADD SWAP1 SWAP3 SWAP2 SWAP1 DUP1 MLOAD SWAP1 PUSH1 0x20 ADD SWAP1 SWAP3 SWAP2 SWAP1 POP POP POP DUP2 PUSH1 0x2 DUP2 SWAP1 SSTORE POP DUP1 TIMESTAMP ADD PUSH1 0x3 DUP2 SWAP1 SSTORE POP PUSH1 0x64 PUSH1 0x4 DUP2 SWAP1 SSTORE POP CALLER PUSH1 0x1 PUSH1 0x0 PUSH2 0x100 EXP DUP2 SLOAD DUP2 PUSH20 0xFFFFFFFFFFFFFFFFFFFFFFFFFFFFFFFFFFFFFFFF MUL NOT AND SWAP1 DUP4 PUSH20 0xFFFFFFFFFFFFFFFFFFFFFFFFFFFFFFFFFFFFFFFF AND MUL OR SWAP1 SSTORE POP POP POP PUSH2 0x62A DUP1 PUSH2 0xB8 PUSH1 0x0 CODECOPY PUSH1 0x0 RETURN INVALID PUSH1 0x80 PUSH1 0x40 MSTORE PUSH1 0x4 CALLDATASIZE LT PUSH2 0x9C JUMPI PUSH1 0x0 CALLDATALOAD PUSH1 0xE0 SHR DUP1 PUSH4 0x481C6A75 GT PUSH2 0x64 JUMPI DUP1 PUSH4 0x481C6A75 EQ PUSH2 0x191 JUMPI DUP1 PUSH4 0x4D9B3D5D EQ PUSH2 0x1D2 JUMPI DUP1 PUSH4 0x590E1AE3 EQ PUSH2 0x1FD JUMPI DUP1 PUSH4 0x80E52D68 EQ PUSH2 0x214 JUMPI DUP1 PUSH4 0xC8A8A86A EQ PUSH2 0x23F JUMPI DUP1 PUSH4 0xD4B83992 EQ PUSH2 0x26A JUMPI PUSH2 0x9C JUMP JUMPDEST DUP1 PUSH4 0xE29DF22 EQ PUSH2 0xA1 JUMPI DUP1 PUSH4 0x1F6D4942 EQ PUSH2 0xAB JUMPI DUP1 PUSH4 0x27722F6A EQ PUSH2 0x110 JUMPI DUP1 PUSH4 0x29DCB0CF EQ PUSH2 0x13B JUMPI DUP1 PUSH4 0x3B644D18 EQ PUSH2 0x166 JUMPI JUMPDEST PUSH1 0x0 DUP1 REVERT JUMPDEST PUSH2 0xA9 PUSH2 0x295 JUMP JUMPDEST STOP JUMPDEST CALLVALUE DUP1 ISZERO PUSH2 0xB7 JUMPI PUSH1 0x0 DUP1 REVERT JUMPDEST POP PUSH2 0xFA PUSH1 0x4 DUP1 CALLDATASIZE SUB PUSH1 0x20 DUP2 LT ISZERO PUSH2 0xCE JUMPI PUSH1 0x0 DUP1 REVERT JUMPDEST DUP2 ADD SWAP1 DUP1 DUP1 CALLDATALOAD PUSH20 0xFFFFFFFFFFFFFFFFFFFFFFFFFFFFFFFFFFFFFFFF AND SWAP1 PUSH1 0x20 ADD SWAP1 SWAP3 SWAP2 SWAP1 POP POP POP PUSH2 0x43B JUMP JUMPDEST PUSH1 0x40 MLOAD DUP1 DUP3 DUP2 MSTORE PUSH1 0x20 ADD SWAP2 POP POP PUSH1 0x40 MLOAD DUP1 SWAP2 SUB SWAP1 RETURN JUMPDEST CALLVALUE DUP1 ISZERO PUSH2 0x11C JUMPI PUSH1 0x0 DUP1 REVERT JUMPDEST POP PUSH2 0x125 PUSH2 0x453 JUMP JUMPDEST PUSH1 0x40 MLOAD DUP1 DUP3 DUP2 MSTORE PUSH1 0x20 ADD SWAP2 POP POP PUSH1 0x40 MLOAD DUP1 SWAP2 SUB SWAP1 RETURN JUMPDEST CALLVALUE DUP1 ISZERO PUSH2 0x147 JUMPI PUSH1 0x0 DUP1 REVERT JUMPDEST POP PUSH2 0x150 PUSH2 0x459 JUMP JUMPDEST PUSH1 0x40 MLOAD DUP1 DUP3 DUP2 MSTORE PUSH1 0x20 ADD SWAP2 POP POP PUSH1 0x40 MLOAD DUP1 SWAP2 SUB SWAP1 RETURN JUMPDEST CALLVALUE DUP1 ISZERO PUSH2 0x172 JUMPI PUSH1 0x0 DUP1 REVERT JUMPDEST POP PUSH2 0x17B PUSH2 0x45F JUMP JUMPDEST PUSH1 0x40 MLOAD DUP1 DUP3 DUP2 MSTORE PUSH1 0x20 ADD SWAP2 POP POP PUSH1 0x40 MLOAD DUP1 SWAP2 SUB SWAP1 RETURN JUMPDEST CALLVALUE DUP1 ISZERO PUSH2 0x19D JUMPI PUSH1 0x0 DUP1 REVERT JUMPDEST POP PUSH2 0x1A6 PUSH2 0x465 JUMP JUMPDEST PUSH1 0x40 MLOAD DUP1 DUP3 PUSH20 0xFFFFFFFFFFFFFFFFFFFFFFFFFFFFFFFFFFFFFFFF AND DUP2 MSTORE PUSH1 0x20 ADD SWAP2 POP POP PUSH1 0x40 MLOAD DUP1 SWAP2 SUB SWAP1 RETURN JUMPDEST CALLVALUE DUP1 ISZERO PUSH2 0x1DE JUMPI PUSH1 0x0 DUP1 REVERT JUMPDEST POP PUSH2 0x1E7 PUSH2 0x48B JUMP JUMPDEST PUSH1 0x40 MLOAD DUP1 DUP3 DUP2 MSTORE PUSH1 0x20 ADD SWAP2 POP POP PUSH1 0x40 MLOAD DUP1 SWAP2 SUB SWAP1 RETURN JUMPDEST CALLVALUE DUP1 ISZERO PUSH2 0x209 JUMPI PUSH1 0x0 DUP1 REVERT JUMPDEST POP PUSH2 0x212 PUSH2 0x4ED JUMP JUMPDEST STOP JUMPDEST CALLVALUE DUP1 ISZERO PUSH2 0x220 JUMPI PUSH1 0x0 DUP1 REVERT JUMPDEST POP PUSH2 0x229 PUSH2 0x5E2 JUMP JUMPDEST PUSH1 0x40 MLOAD DUP1 DUP3 DUP2 MSTORE PUSH1 0x20 ADD SWAP2 POP POP PUSH1 0x40 MLOAD DUP1 SWAP2 SUB SWAP1 RETURN JUMPDEST CALLVALUE DUP1 ISZERO PUSH2 0x24B JUMPI PUSH1 0x0 DUP1 REVERT JUMPDEST POP PUSH2 0x254 PUSH2 0x5E8 JUMP JUMPDEST PUSH1 0x40 MLOAD DUP1 DUP3 DUP2 MSTORE PUSH1 0x20 ADD SWAP2 POP POP PUSH1 0x40 MLOAD DUP1 SWAP2 SUB SWAP1 RETURN JUMPDEST CALLVALUE DUP1 ISZERO PUSH2 0x276 JUMPI PUSH1 0x0 DUP1 REVERT JUMPDEST POP PUSH2 0x27F PUSH2 0x5EE JUMP JUMPDEST PUSH1 0x40 MLOAD DUP1 DUP3 DUP2 MSTORE PUSH1 0x20 ADD SWAP2 POP POP PUSH1 0x40 MLOAD DUP1 SWAP2 SUB SWAP1 RETURN JUMPDEST PUSH1 0x3 SLOAD TIMESTAMP LT PUSH2 0x30C JUMPI PUSH1 0x40 MLOAD PUSH32 0x8C379A000000000000000000000000000000000000000000000000000000000 DUP2 MSTORE PUSH1 0x4 ADD DUP1 DUP1 PUSH1 0x20 ADD DUP3 DUP2 SUB DUP3 MSTORE PUSH1 0x18 DUP2 MSTORE PUSH1 0x20 ADD DUP1 PUSH32 0x646561646C696E6520686173206265656E207061737365640000000000000000 DUP2 MSTORE POP PUSH1 0x20 ADD SWAP2 POP POP PUSH1 0x40 MLOAD DUP1 SWAP2 SUB SWAP1 REVERT JUMPDEST PUSH1 0x4 SLOAD CALLVALUE GT PUSH2 0x383 JUMPI PUSH1 0x40 MLOAD PUSH32 0x8C379A000000000000000000000000000000000000000000000000000000000 DUP2 MSTORE PUSH1 0x4 ADD DUP1 DUP1 PUSH1 0x20 ADD DUP3 DUP2 SUB DUP3 MSTORE PUSH1 0x1C DUP2 MSTORE PUSH1 0x20 ADD DUP1 PUSH32 0x6D696E696D756D2062616C616E636520646F6573206E6F74206D657400000000 DUP2 MSTORE POP PUSH1 0x20 ADD SWAP2 POP POP PUSH1 0x40 MLOAD DUP1 SWAP2 SUB SWAP1 REVERT JUMPDEST PUSH1 0x0 DUP1 PUSH1 0x0 CALLER PUSH20 0xFFFFFFFFFFFFFFFFFFFFFFFFFFFFFFFFFFFFFFFF AND PUSH20 0xFFFFFFFFFFFFFFFFFFFFFFFFFFFFFFFFFFFFFFFF AND DUP2 MSTORE PUSH1 0x20 ADD SWAP1 DUP2 MSTORE PUSH1 0x20 ADD PUSH1 0x0 KECCAK256 SLOAD EQ ISZERO PUSH2 0x3DD JUMPI PUSH1 0x6 PUSH1 0x0 DUP2 SLOAD DUP1 SWAP3 SWAP2 SWAP1 PUSH1 0x1 ADD SWAP2 SWAP1 POP SSTORE POP JUMPDEST CALLVALUE PUSH1 0x0 DUP1 CALLER PUSH20 0xFFFFFFFFFFFFFFFFFFFFFFFFFFFFFFFFFFFFFFFF AND PUSH20 0xFFFFFFFFFFFFFFFFFFFFFFFFFFFFFFFFFFFFFFFF AND DUP2 MSTORE PUSH1 0x20 ADD SWAP1 DUP2 MSTORE PUSH1 0x20 ADD PUSH1 0x0 KECCAK256 PUSH1 0x0 DUP3 DUP3 SLOAD ADD SWAP3 POP POP DUP2 SWAP1 SSTORE POP CALLVALUE PUSH1 0x5 PUSH1 0x0 DUP3 DUP3 SLOAD ADD SWAP3 POP POP DUP2 SWAP1 SSTORE POP JUMP JUMPDEST PUSH1 0x0 PUSH1 0x20 MSTORE DUP1 PUSH1 0x0 MSTORE PUSH1 0x40 PUSH1 0x0 KECCAK256 PUSH1 0x0 SWAP2 POP SWAP1 POP SLOAD DUP2 JUMP JUMPDEST PUSH1 0x8 SLOAD DUP2 JUMP JUMPDEST PUSH1 0x3 SLOAD DUP2 JUMP JUMPDEST PUSH1 0x5 SLOAD DUP2 JUMP JUMPDEST PUSH1 0x1 PUSH1 0x0 SWAP1 SLOAD SWAP1 PUSH2 0x100 EXP SWAP1 DIV PUSH20 0xFFFFFFFFFFFFFFFFFFFFFFFFFFFFFFFFFFFFFFFF AND DUP2 JUMP JUMPDEST PUSH1 0x0 CALLER PUSH20 0xFFFFFFFFFFFFFFFFFFFFFFFFFFFFFFFFFFFFFFFF AND PUSH1 0x1 PUSH1 0x0 SWAP1 SLOAD SWAP1 PUSH2 0x100 EXP SWAP1 DIV PUSH20 0xFFFFFFFFFFFFFFFFFFFFFFFFFFFFFFFFFFFFFFFF AND PUSH20 0xFFFFFFFFFFFFFFFFFFFFFFFFFFFFFFFFFFFFFFFF AND EQ PUSH2 0x4E7 JUMPI PUSH1 0x0 DUP1 REVERT JUMPDEST SELFBALANCE SWAP1 POP SWAP1 JUMP JUMPDEST TIMESTAMP PUSH1 0x3 SLOAD GT DUP1 ISZERO PUSH2 0x501 JUMPI POP PUSH1 0x2 SLOAD PUSH1 0x5 SLOAD LT JUMPDEST PUSH2 0x50A JUMPI PUSH1 0x0 DUP1 REVERT JUMPDEST PUSH1 0x0 DUP1 PUSH1 0x0 CALLER PUSH20 0xFFFFFFFFFFFFFFFFFFFFFFFFFFFFFFFFFFFFFFFF AND PUSH20 0xFFFFFFFFFFFFFFFFFFFFFFFFFFFFFFFFFFFFFFFF AND DUP2 MSTORE PUSH1 0x20 ADD SWAP1 DUP2 MSTORE PUSH1 0x20 ADD PUSH1 0x0 KECCAK256 SLOAD GT PUSH2 0x555 JUMPI PUSH1 0x0 DUP1 REVERT JUMPDEST PUSH1 0x0 CALLER SWAP1 POP DUP1 PUSH20 0xFFFFFFFFFFFFFFFFFFFFFFFFFFFFFFFFFFFFFFFF AND PUSH2 0x8FC PUSH1 0x0 DUP1 CALLER PUSH20 0xFFFFFFFFFFFFFFFFFFFFFFFFFFFFFFFFFFFFFFFF AND PUSH20 0xFFFFFFFFFFFFFFFFFFFFFFFFFFFFFFFFFFFFFFFF AND DUP2 MSTORE PUSH1 0x20 ADD SWAP1 DUP2 MSTORE PUSH1 0x20 ADD PUSH1 0x0 KECCAK256 SLOAD SWAP1 DUP2 ISZERO MUL SWAP1 PUSH1 0x40 MLOAD PUSH1 0x0 PUSH1 0x40 MLOAD DUP1 DUP4 SUB DUP2 DUP6 DUP9 DUP9 CALL SWAP4 POP POP POP POP ISZERO DUP1 ISZERO PUSH2 0x5DE JUMPI RETURNDATASIZE PUSH1 0x0 DUP1 RETURNDATACOPY RETURNDATASIZE PUSH1 0x0 REVERT JUMPDEST POP POP JUMP JUMPDEST PUSH1 0x4 SLOAD DUP2 JUMP JUMPDEST PUSH1 0x6 SLOAD DUP2 JUMP JUMPDEST PUSH1 0x2 SLOAD DUP2 JUMP INVALID LOG2 PUSH5 0x6970667358 0x22 SLT KECCAK256 0xB4 0x4A REVERT 0xAE 0xB9 SGT SELFBALANCE PUSH30 0x10E5687C3BA1D49E2DCB9CC5E208CB1AA2689D11ABDF216264736F6C6343 STOP SMOD MOD STOP CALLER "
				},
				"gasEstimates": {
					"creation": {
						"codeDepositCost": "315600",
						"executionCost": "infinite",
						"totalCost": "infinite"
					},
					"external": {
						"contributors(address)": "1192",
						"deadline()": "1072",
						"getbalance()": "1107",
						"manager()": "1047",
						"mincontribution()": "1071",
						"noOfcontributors()": "1093",
						"numbers()": "1050",
						"raisedamount()": "1094",
						"refund()": "infinite",
						"sendEther()": "65270",
						"target()": "1115"
					}
				},
				"methodIdentifiers": {
					"contributors(address)": "1f6d4942",
					"deadline()": "29dcb0cf",
					"getbalance()": "4d9b3d5d",
					"manager()": "481c6a75",
					"mincontribution()": "80e52d68",
					"noOfcontributors()": "c8a8a86a",
					"numbers()": "27722f6a",
					"raisedamount()": "3b644d18",
					"refund()": "590e1ae3",
					"sendEther()": "0e29df22",
					"target()": "d4b83992"
				}
			},
			"storageLayout": {
				"storage": [
					{
						"astId": 5,
						"contract": "crowdfunfding.sol:crowdfundingg",
						"label": "contributors",
						"offset": 0,
						"slot": "0",
						"type": "t_mapping(t_address,t_uint256)"
					},
					{
						"astId": 7,
						"contract": "crowdfunfding.sol:crowdfundingg",
						"label": "manager",
						"offset": 0,
						"slot": "1",
						"type": "t_address"
					},
					{
						"astId": 9,
						"contract": "crowdfunfding.sol:crowdfundingg",
						"label": "target",
						"offset": 0,
						"slot": "2",
						"type": "t_uint256"
					},
					{
						"astId": 11,
						"contract": "crowdfunfding.sol:crowdfundingg",
						"label": "deadline",
						"offset": 0,
						"slot": "3",
						"type": "t_uint256"
					},
					{
						"astId": 13,
						"contract": "crowdfunfding.sol:crowdfundingg",
						"label": "mincontribution",
						"offset": 0,
						"slot": "4",
						"type": "t_uint256"
					},
					{
						"astId": 15,
						"contract": "crowdfunfding.sol:crowdfundingg",
						"label": "raisedamount",
						"offset": 0,
						"slot": "5",
						"type": "t_uint256"
					},
					{
						"astId": 17,
						"contract": "crowdfunfding.sol:crowdfundingg",
						"label": "noOfcontributors",
						"offset": 0,
						"slot": "6",
						"type": "t_uint256"
					},
					{
						"astId": 182,
						"contract": "crowdfunfding.sol:crowdfundingg",
						"label": "allrequest",
						"offset": 0,
						"slot": "7",
						"type": "t_mapping(t_uint256,t_struct(Request)32_storage)"
					},
					{
						"astId": 184,
						"contract": "crowdfunfding.sol:crowdfundingg",
						"label": "numbers",
						"offset": 0,
						"slot": "8",
						"type": "t_uint256"
					}
				],
				"types": {
					"t_address": {
						"encoding": "inplace",
						"label": "address",
						"numberOfBytes": "20"
					},
					"t_address_payable": {
						"encoding": "inplace",
						"label": "address payable",
						"numberOfBytes": "20"
					},
					"t_bool": {
						"encoding": "inplace",
						"label": "bool",
						"numberOfBytes": "1"
					},
					"t_mapping(t_address,t_bool)": {
						"encoding": "mapping",
						"key": "t_address",
						"label": "mapping(address => bool)",
						"numberOfBytes": "32",
						"value": "t_bool"
					},
					"t_mapping(t_address,t_uint256)": {
						"encoding": "mapping",
						"key": "t_address",
						"label": "mapping(address => uint256)",
						"numberOfBytes": "32",
						"value": "t_uint256"
					},
					"t_mapping(t_uint256,t_struct(Request)32_storage)": {
						"encoding": "mapping",
						"key": "t_uint256",
						"label": "mapping(uint256 => struct crowdfundingg.Request)",
						"numberOfBytes": "32",
						"value": "t_struct(Request)32_storage"
					},
					"t_string_storage": {
						"encoding": "bytes",
						"label": "string",
						"numberOfBytes": "32"
					},
					"t_struct(Request)32_storage": {
						"encoding": "inplace",
						"label": "struct crowdfundingg.Request",
						"members": [
							{
								"astId": 19,
								"contract": "crowdfunfding.sol:crowdfundingg",
								"label": "description",
								"offset": 0,
								"slot": "0",
								"type": "t_string_storage"
							},
							{
								"astId": 21,
								"contract": "crowdfunfding.sol:crowdfundingg",
								"label": "value",
								"offset": 0,
								"slot": "1",
								"type": "t_uint256"
							},
							{
								"astId": 23,
								"contract": "crowdfunfding.sol:crowdfundingg",
								"label": "recepient",
								"offset": 0,
								"slot": "2",
								"type": "t_address_payable"
							},
							{
								"astId": 25,
								"contract": "crowdfunfding.sol:crowdfundingg",
								"label": "completed",
								"offset": 20,
								"slot": "2",
								"type": "t_bool"
							},
							{
								"astId": 27,
								"contract": "crowdfunfding.sol:crowdfundingg",
								"label": "noOfvoters",
								"offset": 0,
								"slot": "3",
								"type": "t_uint256"
							},
							{
								"astId": 31,
								"contract": "crowdfunfding.sol:crowdfundingg",
								"label": "voters",
								"offset": 0,
								"slot": "4",
								"type": "t_mapping(t_address,t_bool)"
							}
						],
						"numberOfBytes": "160"
					},
					"t_uint256": {
						"encoding": "inplace",
						"label": "uint256",
						"numberOfBytes": "32"
					}
				}
			},
			"userdoc": {
				"kind": "user",
				"methods": {},
				"version": 1
			}
		}
	}
}