{
	"setterngetter.sol": {
		"local": {
			"abi": [
				{
					"inputs": [],
					"name": "getter",
					"outputs": [
						{
							"internalType": "uint256",
							"name": "",
							"type": "uint256"
						}
					],
					"stateMutability": "view",
					"type": "function"
				},
				{
					"inputs": [
						{
							"internalType": "uint256",
							"name": "",
							"type": "uint256"
						}
					],
					"name": "setter",
					"outputs": [],
					"stateMutability": "nonpayable",
					"type": "function"
				}
			],
			"devdoc": {
				"kind": "dev",
				"methods": {},
				"version": 1
			},
			"evm": {
				"assembly": "    /* \"setterngetter.sol\":74:271  contract local{\r... */\n  mstore(0x40, 0x80)\n    /* \"setterngetter.sol\":104:106  10 */\n  0x0a\n    /* \"setterngetter.sol\":95:106  uint age=10 */\n  0x00\n  sstore\n    /* \"setterngetter.sol\":74:271  contract local{\r... */\n  callvalue\n  dup1\n  iszero\n  tag_1\n  jumpi\n  0x00\n  dup1\n  revert\ntag_1:\n  pop\n  dataSize(sub_0)\n  dup1\n  dataOffset(sub_0)\n  0x00\n  codecopy\n  0x00\n  return\nstop\n\nsub_0: assembly {\n        /* \"setterngetter.sol\":74:271  contract local{\r... */\n      mstore(0x40, 0x80)\n      callvalue\n      dup1\n      iszero\n      tag_1\n      jumpi\n      0x00\n      dup1\n      revert\n    tag_1:\n      pop\n      jumpi(tag_2, lt(calldatasize, 0x04))\n      shr(0xe0, calldataload(0x00))\n      dup1\n      0x993a04b7\n      eq\n      tag_3\n      jumpi\n      dup1\n      0xd423740b\n      eq\n      tag_4\n      jumpi\n    tag_2:\n      0x00\n      dup1\n      revert\n        /* \"setterngetter.sol\":115:193  function getter() public view returns(uint)\r... */\n    tag_3:\n      tag_5\n      tag_6\n      jump\t// in\n    tag_5:\n      mload(0x40)\n      dup1\n      dup3\n      dup2\n      mstore\n      0x20\n      add\n      swap2\n      pop\n      pop\n      mload(0x40)\n      dup1\n      swap2\n      sub\n      swap1\n      return\n        /* \"setterngetter.sol\":201:264  function setter(uint ) public\r... */\n    tag_4:\n      tag_7\n      0x04\n      dup1\n      calldatasize\n      sub\n      0x20\n      dup2\n      lt\n      iszero\n      tag_8\n      jumpi\n      0x00\n      dup1\n      revert\n    tag_8:\n      dup2\n      add\n      swap1\n      dup1\n      dup1\n      calldataload\n      swap1\n      0x20\n      add\n      swap1\n      swap3\n      swap2\n      swap1\n      pop\n      pop\n      pop\n      tag_9\n      jump\t// in\n    tag_7:\n      stop\n        /* \"setterngetter.sol\":115:193  function getter() public view returns(uint)\r... */\n    tag_6:\n        /* \"setterngetter.sol\":153:157  uint */\n      0x00\n        /* \"setterngetter.sol\":182:185  age */\n      dup1\n      sload\n        /* \"setterngetter.sol\":175:185  return age */\n      swap1\n      pop\n        /* \"setterngetter.sol\":115:193  function getter() public view returns(uint)\r... */\n      swap1\n      jump\t// out\n        /* \"setterngetter.sol\":201:264  function setter(uint ) public\r... */\n    tag_9:\n        /* \"setterngetter.sol\":255:256  3 */\n      0x03\n        /* \"setterngetter.sol\":251:254  age */\n      sload(0x00)\n        /* \"setterngetter.sol\":251:256  age+3 */\n      add\n        /* \"setterngetter.sol\":247:250  age */\n      0x00\n        /* \"setterngetter.sol\":247:256  age=age+3 */\n      dup2\n      swap1\n      sstore\n      pop\n        /* \"setterngetter.sol\":201:264  function setter(uint ) public\r... */\n      pop\n      jump\t// out\n\n    auxdata: 0xa2646970667358221220df111daf248941a36b8684780f55192296b1fb26359612f2d77fc722bf08033f64736f6c63430007060033\n}\n",
				"bytecode": {
					"linkReferences": {},
					"object": "6080604052600a60005534801561001557600080fd5b5060cc806100246000396000f3fe6080604052348015600f57600080fd5b506004361060325760003560e01c8063993a04b7146037578063d423740b146053575b600080fd5b603d607e565b6040518082815260200191505060405180910390f35b607c60048036036020811015606757600080fd5b81019080803590602001909291905050506087565b005b60008054905090565b6003600054016000819055505056fea2646970667358221220df111daf248941a36b8684780f55192296b1fb26359612f2d77fc722bf08033f64736f6c63430007060033",
					"opcodes": "PUSH1 0x80 PUSH1 0x40 MSTORE PUSH1 0xA PUSH1 0x0 SSTORE CALLVALUE DUP1 ISZERO PUSH2 0x15 JUMPI PUSH1 0x0 DUP1 REVERT JUMPDEST POP PUSH1 0xCC DUP1 PUSH2 0x24 PUSH1 0x0 CODECOPY PUSH1 0x0 RETURN INVALID PUSH1 0x80 PUSH1 0x40 MSTORE CALLVALUE DUP1 ISZERO PUSH1 0xF JUMPI PUSH1 0x0 DUP1 REVERT JUMPDEST POP PUSH1 0x4 CALLDATASIZE LT PUSH1 0x32 JUMPI PUSH1 0x0 CALLDATALOAD PUSH1 0xE0 SHR DUP1 PUSH4 0x993A04B7 EQ PUSH1 0x37 JUMPI DUP1 PUSH4 0xD423740B EQ PUSH1 0x53 JUMPI JUMPDEST PUSH1 0x0 DUP1 REVERT JUMPDEST PUSH1 0x3D PUSH1 0x7E JUMP JUMPDEST PUSH1 0x40 MLOAD DUP1 DUP3 DUP2 MSTORE PUSH1 0x20 ADD SWAP2 POP POP PUSH1 0x40 MLOAD DUP1 SWAP2 SUB SWAP1 RETURN JUMPDEST PUSH1 0x7C PUSH1 0x4 DUP1 CALLDATASIZE SUB PUSH1 0x20 DUP2 LT ISZERO PUSH1 0x67 JUMPI PUSH1 0x0 DUP1 REVERT JUMPDEST DUP2 ADD SWAP1 DUP1 DUP1 CALLDATALOAD SWAP1 PUSH1 0x20 ADD SWAP1 SWAP3 SWAP2 SWAP1 POP POP POP PUSH1 0x87 JUMP JUMPDEST STOP JUMPDEST PUSH1 0x0 DUP1 SLOAD SWAP1 POP SWAP1 JUMP JUMPDEST PUSH1 0x3 PUSH1 0x0 SLOAD ADD PUSH1 0x0 DUP2 SWAP1 SSTORE POP POP JUMP INVALID LOG2 PUSH5 0x6970667358 0x22 SLT KECCAK256 0xDF GT SAR 0xAF 0x24 DUP10 COINBASE LOG3 PUSH12 0x8684780F55192296B1FB2635 SWAP7 SLT CALLCODE 0xD7 PUSH32 0xC722BF08033F64736F6C63430007060033000000000000000000000000000000 "
				},
				"gasEstimates": {
					"creation": {
						"codeDepositCost": "40800",
						"executionCost": "20099",
						"totalCost": "60899"
					},
					"external": {
						"getter()": "991",
						"setter(uint256)": "21048"
					}
				},
				"methodIdentifiers": {
					"getter()": "993a04b7",
					"setter(uint256)": "d423740b"
				}
			},
			"storageLayout": {
				"storage": [
					{
						"astId": 4,
						"contract": "setterngetter.sol:local",
						"label": "age",
						"offset": 0,
						"slot": "0",
						"type": "t_uint256"
					}
				],
				"types": {
					"t_uint256": {
						"encoding": "inplace",
						"label": "uint256",
						"numberOfBytes": "32"
					}
				}
			},
			"userdoc": {
				"kind": "user",
				"methods": {},
				"version": 1
			}
		}
	}
}