{
	"visibility.sol": {
		"a": {
			"abi": [
				{
					"inputs": [],
					"name": "f1",
					"outputs": [
						{
							"internalType": "uint256",
							"name": "",
							"type": "uint256"
						}
					],
					"stateMutability": "pure",
					"type": "function"
				},
				{
					"inputs": [],
					"name": "f4",
					"outputs": [
						{
							"internalType": "uint256",
							"name": "",
							"type": "uint256"
						}
					],
					"stateMutability": "pure",
					"type": "function"
				}
			],
			"devdoc": {
				"kind": "dev",
				"methods": {},
				"version": 1
			},
			"evm": {
				"assembly": "    /* \"visibility.sol\":74:429  contract a\r... */\n  mstore(0x40, 0x80)\n  callvalue\n  dup1\n  iszero\n  tag_1\n  jumpi\n  0x00\n  dup1\n  revert\ntag_1:\n  pop\n  dataSize(sub_0)\n  dup1\n  dataOffset(sub_0)\n  0x00\n  codecopy\n  0x00\n  return\nstop\n\nsub_0: assembly {\n        /* \"visibility.sol\":74:429  contract a\r... */\n      mstore(0x40, 0x80)\n      callvalue\n      dup1\n      iszero\n      tag_1\n      jumpi\n      0x00\n      dup1\n      revert\n    tag_1:\n      pop\n      jumpi(tag_2, lt(calldatasize, 0x04))\n      shr(0xe0, calldataload(0x00))\n      dup1\n      0xc27fc305\n      eq\n      tag_3\n      jumpi\n      dup1\n      0xc3f90202\n      eq\n      tag_4\n      jumpi\n    tag_2:\n      0x00\n      dup1\n      revert\n        /* \"visibility.sol\":93:165  function f1() public pure returns(uint)\r... */\n    tag_3:\n      tag_5\n      tag_6\n      jump\t// in\n    tag_5:\n      mload(0x40)\n      dup1\n      dup3\n      dup2\n      mstore\n      0x20\n      add\n      swap2\n      pop\n      pop\n      mload(0x40)\n      dup1\n      swap2\n      sub\n      swap1\n      return\n        /* \"visibility.sol\":330:426  function f4() external pure returns(uint)\r... */\n    tag_4:\n      tag_7\n      tag_8\n      jump\t// in\n    tag_7:\n      mload(0x40)\n      dup1\n      dup3\n      dup2\n      mstore\n      0x20\n      add\n      swap2\n      pop\n      pop\n      mload(0x40)\n      dup1\n      swap2\n      sub\n      swap1\n      return\n        /* \"visibility.sol\":93:165  function f1() public pure returns(uint)\r... */\n    tag_6:\n        /* \"visibility.sol\":127:131  uint */\n      0x00\n        /* \"visibility.sol\":156:157  1 */\n      0x01\n        /* \"visibility.sol\":149:157  return 1 */\n      swap1\n      pop\n        /* \"visibility.sol\":93:165  function f1() public pure returns(uint)\r... */\n      swap1\n      jump\t// out\n        /* \"visibility.sol\":330:426  function f4() external pure returns(uint)\r... */\n    tag_8:\n        /* \"visibility.sol\":366:370  uint */\n      0x00\n        /* \"visibility.sol\":388:394  uint x */\n      dup1\n        /* \"visibility.sol\":395:399  f1() */\n      tag_11\n        /* \"visibility.sol\":395:397  f1 */\n      tag_6\n        /* \"visibility.sol\":395:399  f1() */\n      jump\t// in\n    tag_11:\n        /* \"visibility.sol\":388:399  uint x=f1() */\n      swap1\n      pop\n        /* \"visibility.sol\":417:418  4 */\n      0x04\n        /* \"visibility.sol\":410:418  return 4 */\n      swap2\n      pop\n      pop\n        /* \"visibility.sol\":330:426  function f4() external pure returns(uint)\r... */\n      swap1\n      jump\t// out\n\n    auxdata: 0xa264697066735822122062457b8ad364c20928b948a2f0edd0502a3ef9ae8f7f81e29e19a370a890e62d64736f6c63430007060033\n}\n",
				"bytecode": {
					"linkReferences": {},
					"object": "608060405234801561001057600080fd5b5060c18061001f6000396000f3fe6080604052348015600f57600080fd5b506004361060325760003560e01c8063c27fc305146037578063c3f90202146053575b600080fd5b603d606f565b6040518082815260200191505060405180910390f35b60596078565b6040518082815260200191505060405180910390f35b60006001905090565b6000806081606f565b905060049150509056fea264697066735822122062457b8ad364c20928b948a2f0edd0502a3ef9ae8f7f81e29e19a370a890e62d64736f6c63430007060033",
					"opcodes": "PUSH1 0x80 PUSH1 0x40 MSTORE CALLVALUE DUP1 ISZERO PUSH2 0x10 JUMPI PUSH1 0x0 DUP1 REVERT JUMPDEST POP PUSH1 0xC1 DUP1 PUSH2 0x1F PUSH1 0x0 CODECOPY PUSH1 0x0 RETURN INVALID PUSH1 0x80 PUSH1 0x40 MSTORE CALLVALUE DUP1 ISZERO PUSH1 0xF JUMPI PUSH1 0x0 DUP1 REVERT JUMPDEST POP PUSH1 0x4 CALLDATASIZE LT PUSH1 0x32 JUMPI PUSH1 0x0 CALLDATALOAD PUSH1 0xE0 SHR DUP1 PUSH4 0xC27FC305 EQ PUSH1 0x37 JUMPI DUP1 PUSH4 0xC3F90202 EQ PUSH1 0x53 JUMPI JUMPDEST PUSH1 0x0 DUP1 REVERT JUMPDEST PUSH1 0x3D PUSH1 0x6F JUMP JUMPDEST PUSH1 0x40 MLOAD DUP1 DUP3 DUP2 MSTORE PUSH1 0x20 ADD SWAP2 POP POP PUSH1 0x40 MLOAD DUP1 SWAP2 SUB SWAP1 RETURN JUMPDEST PUSH1 0x59 PUSH1 0x78 JUMP JUMPDEST PUSH1 0x40 MLOAD DUP1 DUP3 DUP2 MSTORE PUSH1 0x20 ADD SWAP2 POP POP PUSH1 0x40 MLOAD DUP1 SWAP2 SUB SWAP1 RETURN JUMPDEST PUSH1 0x0 PUSH1 0x1 SWAP1 POP SWAP1 JUMP JUMPDEST PUSH1 0x0 DUP1 PUSH1 0x81 PUSH1 0x6F JUMP JUMPDEST SWAP1 POP PUSH1 0x4 SWAP2 POP POP SWAP1 JUMP INVALID LOG2 PUSH5 0x6970667358 0x22 SLT KECCAK256 PUSH3 0x457B8A 0xD3 PUSH5 0xC20928B948 LOG2 CREATE 0xED 0xD0 POP 0x2A RETURNDATACOPY 0xF9 0xAE DUP16 PUSH32 0x81E29E19A370A890E62D64736F6C634300070600330000000000000000000000 "
				},
				"gasEstimates": {
					"creation": {
						"codeDepositCost": "38600",
						"executionCost": "93",
						"totalCost": "38693"
					},
					"external": {
						"f1()": "191",
						"f4()": "261"
					},
					"internal": {
						"f2()": "infinite",
						"f3()": "infinite"
					}
				},
				"methodIdentifiers": {
					"f1()": "c27fc305",
					"f4()": "c3f90202"
				}
			},
			"storageLayout": {
				"storage": [],
				"types": null
			},
			"userdoc": {
				"kind": "user",
				"methods": {},
				"version": 1
			}
		}
	}
}