{
	"contractbalance.sol": {
		"balance": {
			"abi": [
				{
					"inputs": [],
					"name": "getbalance",
					"outputs": [
						{
							"internalType": "uint256",
							"name": "",
							"type": "uint256"
						}
					],
					"stateMutability": "view",
					"type": "function"
				},
				{
					"inputs": [],
					"name": "pay",
					"outputs": [],
					"stateMutability": "payable",
					"type": "function"
				}
			],
			"devdoc": {
				"kind": "dev",
				"methods": {},
				"version": 1
			},
			"evm": {
				"assembly": "    /* \"contractbalance.sol\":74:281  contract balance\r... */\n  mstore(0x40, 0x80)\n  callvalue\n  dup1\n  iszero\n  tag_1\n  jumpi\n  0x00\n  dup1\n  revert\ntag_1:\n  pop\n  dataSize(sub_0)\n  dup1\n  dataOffset(sub_0)\n  0x00\n  codecopy\n  0x00\n  return\nstop\n\nsub_0: assembly {\n        /* \"contractbalance.sol\":74:281  contract balance\r... */\n      mstore(0x40, 0x80)\n      jumpi(tag_1, lt(calldatasize, 0x04))\n      shr(0xe0, calldataload(0x00))\n      dup1\n      0x1b9265b8\n      eq\n      tag_2\n      jumpi\n      dup1\n      0x4d9b3d5d\n      eq\n      tag_3\n      jumpi\n    tag_1:\n      0x00\n      dup1\n      revert\n        /* \"contractbalance.sol\":119:164  function pay() public payable\r... */\n    tag_2:\n      tag_4\n      tag_5\n      jump\t// in\n    tag_4:\n      stop\n        /* \"contractbalance.sol\":176:276  function getbalance() public view returns(uint)\r... */\n    tag_3:\n      callvalue\n      dup1\n      iszero\n      tag_6\n      jumpi\n      0x00\n      dup1\n      revert\n    tag_6:\n      pop\n      tag_7\n      tag_8\n      jump\t// in\n    tag_7:\n      mload(0x40)\n      dup1\n      dup3\n      dup2\n      mstore\n      0x20\n      add\n      swap2\n      pop\n      pop\n      mload(0x40)\n      dup1\n      swap2\n      sub\n      swap1\n      return\n        /* \"contractbalance.sol\":119:164  function pay() public payable\r... */\n    tag_5:\n      jump\t// out\n        /* \"contractbalance.sol\":176:276  function getbalance() public view returns(uint)\r... */\n    tag_8:\n        /* \"contractbalance.sol\":218:222  uint */\n      0x00\n        /* \"contractbalance.sol\":247:268  address(this).balance */\n      selfbalance\n        /* \"contractbalance.sol\":240:268  return address(this).balance */\n      swap1\n      pop\n        /* \"contractbalance.sol\":176:276  function getbalance() public view returns(uint)\r... */\n      swap1\n      jump\t// out\n\n    auxdata: 0xa26469706673582212202293079c5e3831d29cd1c884319b5f865c99fdf5b99490c312ca1ec4b0c1723564736f6c63430007060033\n}\n",
				"bytecode": {
					"linkReferences": {},
					"object": "6080604052348015600f57600080fd5b50609b8061001e6000396000f3fe60806040526004361060265760003560e01c80631b9265b814602b5780634d9b3d5d146033575b600080fd5b6031605b565b005b348015603e57600080fd5b506045605d565b6040518082815260200191505060405180910390f35b565b60004790509056fea26469706673582212202293079c5e3831d29cd1c884319b5f865c99fdf5b99490c312ca1ec4b0c1723564736f6c63430007060033",
					"opcodes": "PUSH1 0x80 PUSH1 0x40 MSTORE CALLVALUE DUP1 ISZERO PUSH1 0xF JUMPI PUSH1 0x0 DUP1 REVERT JUMPDEST POP PUSH1 0x9B DUP1 PUSH2 0x1E PUSH1 0x0 CODECOPY PUSH1 0x0 RETURN INVALID PUSH1 0x80 PUSH1 0x40 MSTORE PUSH1 0x4 CALLDATASIZE LT PUSH1 0x26 JUMPI PUSH1 0x0 CALLDATALOAD PUSH1 0xE0 SHR DUP1 PUSH4 0x1B9265B8 EQ PUSH1 0x2B JUMPI DUP1 PUSH4 0x4D9B3D5D EQ PUSH1 0x33 JUMPI JUMPDEST PUSH1 0x0 DUP1 REVERT JUMPDEST PUSH1 0x31 PUSH1 0x5B JUMP JUMPDEST STOP JUMPDEST CALLVALUE DUP1 ISZERO PUSH1 0x3E JUMPI PUSH1 0x0 DUP1 REVERT JUMPDEST POP PUSH1 0x45 PUSH1 0x5D JUMP JUMPDEST PUSH1 0x40 MLOAD DUP1 DUP3 DUP2 MSTORE PUSH1 0x20 ADD SWAP2 POP POP PUSH1 0x40 MLOAD DUP1 SWAP2 SUB SWAP1 RETURN JUMPDEST JUMP JUMPDEST PUSH1 0x0 SELFBALANCE SWAP1 POP SWAP1 JUMP INVALID LOG2 PUSH5 0x6970667358 0x22 SLT KECCAK256 0x22 SWAP4 SMOD SWAP13 0x5E CODESIZE BALANCE 0xD2 SWAP13 0xD1 0xC8 DUP5 BALANCE SWAP12 0x5F DUP7 0x5C SWAP10 REVERT CREATE2 0xB9 SWAP5 SWAP1 0xC3 SLT 0xCA 0x1E 0xC4 0xB0 0xC1 PUSH19 0x3564736F6C6343000706003300000000000000 "
				},
				"gasEstimates": {
					"creation": {
						"codeDepositCost": "31000",
						"executionCost": "81",
						"totalCost": "31081"
					},
					"external": {
						"getbalance()": "215",
						"pay()": "98"
					}
				},
				"methodIdentifiers": {
					"getbalance()": "4d9b3d5d",
					"pay()": "1b9265b8"
				}
			},
			"storageLayout": {
				"storage": [
					{
						"astId": 3,
						"contract": "contractbalance.sol:balance",
						"label": "payab",
						"offset": 0,
						"slot": "0",
						"type": "t_address"
					}
				],
				"types": {
					"t_address": {
						"encoding": "inplace",
						"label": "address",
						"numberOfBytes": "20"
					}
				}
			},
			"userdoc": {
				"kind": "user",
				"methods": {},
				"version": 1
			}
		}
	}
}