{
	"parentinheritence.sol": {
		"B": {
			"abi": [
				{
					"anonymous": false,
					"inputs": [
						{
							"indexed": false,
							"internalType": "string",
							"name": "name",
							"type": "string"
						},
						{
							"indexed": false,
							"internalType": "uint256",
							"name": "age",
							"type": "uint256"
						}
					],
					"name": "log",
					"type": "event"
				},
				{
					"inputs": [],
					"name": "f1",
					"outputs": [],
					"stateMutability": "nonpayable",
					"type": "function"
				},
				{
					"inputs": [],
					"name": "f2",
					"outputs": [],
					"stateMutability": "nonpayable",
					"type": "function"
				}
			],
			"devdoc": {
				"kind": "dev",
				"methods": {},
				"version": 1
			},
			"evm": {
				"assembly": "    /* \"parentinheritence.sol\":289:519  contract B is A{\r... */\n  mstore(0x40, 0x80)\n  callvalue\n  dup1\n  iszero\n  tag_1\n  jumpi\n  0x00\n  dup1\n  revert\ntag_1:\n  pop\n  dataSize(sub_0)\n  dup1\n  dataOffset(sub_0)\n  0x00\n  codecopy\n  0x00\n  return\nstop\n\nsub_0: assembly {\n        /* \"parentinheritence.sol\":289:519  contract B is A{\r... */\n      mstore(0x40, 0x80)\n      callvalue\n      dup1\n      iszero\n      tag_1\n      jumpi\n      0x00\n      dup1\n      revert\n    tag_1:\n      pop\n      jumpi(tag_2, lt(calldatasize, 0x04))\n      shr(0xe0, calldataload(0x00))\n      dup1\n      0x9942ec6f\n      eq\n      tag_3\n      jumpi\n      dup1\n      0xc27fc305\n      eq\n      tag_4\n      jumpi\n    tag_2:\n      0x00\n      dup1\n      revert\n        /* \"parentinheritence.sol\":417:516  function f2() public virtual override\r... */\n    tag_3:\n      tag_5\n      tag_6\n      jump\t// in\n    tag_5:\n      stop\n        /* \"parentinheritence.sol\":313:409  function f1() public virtual override\r... */\n    tag_4:\n      tag_7\n      tag_8\n      jump\t// in\n    tag_7:\n      stop\n        /* \"parentinheritence.sol\":417:516  function f2() public virtual override\r... */\n    tag_6:\n        /* \"parentinheritence.sol\":476:487  log(\"B\",31) */\n      0xb60e72ccf6d57ab53eb84d7e94a9545806ed7f93c4d5673f11a64f03471e584e\n        /* \"parentinheritence.sol\":484:486  31 */\n      0x1f\n        /* \"parentinheritence.sol\":476:487  log(\"B\",31) */\n      mload(0x40)\n      dup1\n      dup1\n      0x20\n      add\n      dup4\n      dup2\n      mstore\n      0x20\n      add\n      dup3\n      dup2\n      sub\n      dup3\n      mstore\n      0x01\n      dup2\n      mstore\n      0x20\n      add\n      dup1\n      0x4200000000000000000000000000000000000000000000000000000000000000\n      dup2\n      mstore\n      pop\n      0x20\n      add\n      swap3\n      pop\n      pop\n      pop\n      mload(0x40)\n      dup1\n      swap2\n      sub\n      swap1\n      log1\n        /* \"parentinheritence.sol\":498:508  super.f2() */\n      tag_10\n        /* \"parentinheritence.sol\":498:506  super.f2 */\n      tag_11\n        /* \"parentinheritence.sol\":498:508  super.f2() */\n      jump\t// in\n    tag_10:\n        /* \"parentinheritence.sol\":417:516  function f2() public virtual override\r... */\n      jump\t// out\n        /* \"parentinheritence.sol\":313:409  function f1() public virtual override\r... */\n    tag_8:\n        /* \"parentinheritence.sol\":372:384  log(\"B\", 31) */\n      0xb60e72ccf6d57ab53eb84d7e94a9545806ed7f93c4d5673f11a64f03471e584e\n        /* \"parentinheritence.sol\":381:383  31 */\n      0x1f\n        /* \"parentinheritence.sol\":372:384  log(\"B\", 31) */\n      mload(0x40)\n      dup1\n      dup1\n      0x20\n      add\n      dup4\n      dup2\n      mstore\n      0x20\n      add\n      dup3\n      dup2\n      sub\n      dup3\n      mstore\n      0x01\n      dup2\n      mstore\n      0x20\n      add\n      dup1\n      0x4200000000000000000000000000000000000000000000000000000000000000\n      dup2\n      mstore\n      pop\n      0x20\n      add\n      swap3\n      pop\n      pop\n      pop\n      mload(0x40)\n      dup1\n      swap2\n      sub\n      swap1\n      log1\n        /* \"parentinheritence.sol\":395:401  A.f1() */\n      tag_13\n        /* \"parentinheritence.sol\":395:399  A.f1 */\n      tag_14\n        /* \"parentinheritence.sol\":395:401  A.f1() */\n      jump\t// in\n    tag_13:\n        /* \"parentinheritence.sol\":313:409  function f1() public virtual override\r... */\n      jump\t// out\n        /* \"parentinheritence.sol\":211:280  function f2() virtual public\r... */\n    tag_11:\n        /* \"parentinheritence.sol\":261:272  log(\"A\",21) */\n      0xb60e72ccf6d57ab53eb84d7e94a9545806ed7f93c4d5673f11a64f03471e584e\n        /* \"parentinheritence.sol\":269:271  21 */\n      0x15\n        /* \"parentinheritence.sol\":261:272  log(\"A\",21) */\n      mload(0x40)\n      dup1\n      dup1\n      0x20\n      add\n      dup4\n      dup2\n      mstore\n      0x20\n      add\n      dup3\n      dup2\n      sub\n      dup3\n      mstore\n      0x01\n      dup2\n      mstore\n      0x20\n      add\n      dup1\n      0x4100000000000000000000000000000000000000000000000000000000000000\n      dup2\n      mstore\n      pop\n      0x20\n      add\n      swap3\n      pop\n      pop\n      pop\n      mload(0x40)\n      dup1\n      swap2\n      sub\n      swap1\n      log1\n        /* \"parentinheritence.sol\":211:280  function f2() virtual public\r... */\n      jump\t// out\n        /* \"parentinheritence.sol\":133:203  function f1() virtual public\r... */\n    tag_14:\n        /* \"parentinheritence.sol\":183:195  log(\"A\", 21) */\n      0xb60e72ccf6d57ab53eb84d7e94a9545806ed7f93c4d5673f11a64f03471e584e\n        /* \"parentinheritence.sol\":192:194  21 */\n      0x15\n        /* \"parentinheritence.sol\":183:195  log(\"A\", 21) */\n      mload(0x40)\n      dup1\n      dup1\n      0x20\n      add\n      dup4\n      dup2\n      mstore\n      0x20\n      add\n      dup3\n      dup2\n      sub\n      dup3\n      mstore\n      0x01\n      dup2\n      mstore\n      0x20\n      add\n      dup1\n      0x4100000000000000000000000000000000000000000000000000000000000000\n      dup2\n      mstore\n      pop\n      0x20\n      add\n      swap3\n      pop\n      pop\n      pop\n      mload(0x40)\n      dup1\n      swap2\n      sub\n      swap1\n      log1\n        /* \"parentinheritence.sol\":133:203  function f1() virtual public\r... */\n      jump\t// out\n\n    auxdata: 0xa2646970667358221220f16b4fe089bc31f09db8b32c4cbc5e704aa41aa523ed730aabb4be927af1751364736f6c63430007060033\n}\n",
				"bytecode": {
					"linkReferences": {},
					"object": "608060405234801561001057600080fd5b50610261806100206000396000f3fe608060405234801561001057600080fd5b50600436106100365760003560e01c80639942ec6f1461003b578063c27fc30514610045575b600080fd5b61004361004f565b005b61004d6100ca565b005b7fb60e72ccf6d57ab53eb84d7e94a9545806ed7f93c4d5673f11a64f03471e584e601f6040518080602001838152602001828103825260018152602001807f42000000000000000000000000000000000000000000000000000000000000008152506020019250505060405180910390a16100c8610145565b565b7fb60e72ccf6d57ab53eb84d7e94a9545806ed7f93c4d5673f11a64f03471e584e601f6040518080602001838152602001828103825260018152602001807f42000000000000000000000000000000000000000000000000000000000000008152506020019250505060405180910390a16101436101b8565b565b7fb60e72ccf6d57ab53eb84d7e94a9545806ed7f93c4d5673f11a64f03471e584e60156040518080602001838152602001828103825260018152602001807f41000000000000000000000000000000000000000000000000000000000000008152506020019250505060405180910390a1565b7fb60e72ccf6d57ab53eb84d7e94a9545806ed7f93c4d5673f11a64f03471e584e60156040518080602001838152602001828103825260018152602001807f41000000000000000000000000000000000000000000000000000000000000008152506020019250505060405180910390a156fea2646970667358221220f16b4fe089bc31f09db8b32c4cbc5e704aa41aa523ed730aabb4be927af1751364736f6c63430007060033",
					"opcodes": "PUSH1 0x80 PUSH1 0x40 MSTORE CALLVALUE DUP1 ISZERO PUSH2 0x10 JUMPI PUSH1 0x0 DUP1 REVERT JUMPDEST POP PUSH2 0x261 DUP1 PUSH2 0x20 PUSH1 0x0 CODECOPY PUSH1 0x0 RETURN INVALID PUSH1 0x80 PUSH1 0x40 MSTORE CALLVALUE DUP1 ISZERO PUSH2 0x10 JUMPI PUSH1 0x0 DUP1 REVERT JUMPDEST POP PUSH1 0x4 CALLDATASIZE LT PUSH2 0x36 JUMPI PUSH1 0x0 CALLDATALOAD PUSH1 0xE0 SHR DUP1 PUSH4 0x9942EC6F EQ PUSH2 0x3B JUMPI DUP1 PUSH4 0xC27FC305 EQ PUSH2 0x45 JUMPI JUMPDEST PUSH1 0x0 DUP1 REVERT JUMPDEST PUSH2 0x43 PUSH2 0x4F JUMP JUMPDEST STOP JUMPDEST PUSH2 0x4D PUSH2 0xCA JUMP JUMPDEST STOP JUMPDEST PUSH32 0xB60E72CCF6D57AB53EB84D7E94A9545806ED7F93C4D5673F11A64F03471E584E PUSH1 0x1F PUSH1 0x40 MLOAD DUP1 DUP1 PUSH1 0x20 ADD DUP4 DUP2 MSTORE PUSH1 0x20 ADD DUP3 DUP2 SUB DUP3 MSTORE PUSH1 0x1 DUP2 MSTORE PUSH1 0x20 ADD DUP1 PUSH32 0x4200000000000000000000000000000000000000000000000000000000000000 DUP2 MSTORE POP PUSH1 0x20 ADD SWAP3 POP POP POP PUSH1 0x40 MLOAD DUP1 SWAP2 SUB SWAP1 LOG1 PUSH2 0xC8 PUSH2 0x145 JUMP JUMPDEST JUMP JUMPDEST PUSH32 0xB60E72CCF6D57AB53EB84D7E94A9545806ED7F93C4D5673F11A64F03471E584E PUSH1 0x1F PUSH1 0x40 MLOAD DUP1 DUP1 PUSH1 0x20 ADD DUP4 DUP2 MSTORE PUSH1 0x20 ADD DUP3 DUP2 SUB DUP3 MSTORE PUSH1 0x1 DUP2 MSTORE PUSH1 0x20 ADD DUP1 PUSH32 0x4200000000000000000000000000000000000000000000000000000000000000 DUP2 MSTORE POP PUSH1 0x20 ADD SWAP3 POP POP POP PUSH1 0x40 MLOAD DUP1 SWAP2 SUB SWAP1 LOG1 PUSH2 0x143 PUSH2 0x1B8 JUMP JUMPDEST JUMP JUMPDEST PUSH32 0xB60E72CCF6D57AB53EB84D7E94A9545806ED7F93C4D5673F11A64F03471E584E PUSH1 0x15 PUSH1 0x40 MLOAD DUP1 DUP1 PUSH1 0x20 ADD DUP4 DUP2 MSTORE PUSH1 0x20 ADD DUP3 DUP2 SUB DUP3 MSTORE PUSH1 0x1 DUP2 MSTORE PUSH1 0x20 ADD DUP1 PUSH32 0x4100000000000000000000000000000000000000000000000000000000000000 DUP2 MSTORE POP PUSH1 0x20 ADD SWAP3 POP POP POP PUSH1 0x40 MLOAD DUP1 SWAP2 SUB SWAP1 LOG1 JUMP JUMPDEST PUSH32 0xB60E72CCF6D57AB53EB84D7E94A9545806ED7F93C4D5673F11A64F03471E584E PUSH1 0x15 PUSH1 0x40 MLOAD DUP1 DUP1 PUSH1 0x20 ADD DUP4 DUP2 MSTORE PUSH1 0x20 ADD DUP3 DUP2 SUB DUP3 MSTORE PUSH1 0x1 DUP2 MSTORE PUSH1 0x20 ADD DUP1 PUSH32 0x4100000000000000000000000000000000000000000000000000000000000000 DUP2 MSTORE POP PUSH1 0x20 ADD SWAP3 POP POP POP PUSH1 0x40 MLOAD DUP1 SWAP2 SUB SWAP1 LOG1 JUMP INVALID LOG2 PUSH5 0x6970667358 0x22 SLT KECCAK256 CALL PUSH12 0x4FE089BC31F09DB8B32C4CBC 0x5E PUSH17 0x4AA41AA523ED730AABB4BE927AF1751364 PUSH20 0x6F6C634300070600330000000000000000000000 "
				},
				"gasEstimates": {
					"creation": {
						"codeDepositCost": "121800",
						"executionCost": "171",
						"totalCost": "121971"
					},
					"external": {
						"f1()": "3963",
						"f2()": "3941"
					}
				},
				"methodIdentifiers": {
					"f1()": "c27fc305",
					"f2()": "9942ec6f"
				}
			},
			"storageLayout": {
				"storage": [],
				"types": null
			},
			"userdoc": {
				"kind": "user",
				"methods": {},
				"version": 1
			}
		}
	}
}