{
	"loop.sol": {
		"looop": {
			"abi": [
				{
					"inputs": [
						{
							"internalType": "uint256",
							"name": "",
							"type": "uint256"
						}
					],
					"name": "arra",
					"outputs": [
						{
							"internalType": "uint256",
							"name": "",
							"type": "uint256"
						}
					],
					"stateMutability": "view",
					"type": "function"
				},
				{
					"inputs": [],
					"name": "intt",
					"outputs": [
						{
							"internalType": "uint256",
							"name": "",
							"type": "uint256"
						}
					],
					"stateMutability": "view",
					"type": "function"
				},
				{
					"inputs": [],
					"name": "loop",
					"outputs": [],
					"stateMutability": "nonpayable",
					"type": "function"
				}
			],
			"devdoc": {
				"kind": "dev",
				"methods": {},
				"version": 1
			},
			"evm": {
				"assembly": "    /* \"loop.sol\":74:262  contract looop{\r... */\n  mstore(0x40, 0x80)\n  callvalue\n  dup1\n  iszero\n  tag_1\n  jumpi\n  0x00\n  dup1\n  revert\ntag_1:\n  pop\n  dataSize(sub_0)\n  dup1\n  dataOffset(sub_0)\n  0x00\n  codecopy\n  0x00\n  return\nstop\n\nsub_0: assembly {\n        /* \"loop.sol\":74:262  contract looop{\r... */\n      mstore(0x40, 0x80)\n      callvalue\n      dup1\n      iszero\n      tag_1\n      jumpi\n      0x00\n      dup1\n      revert\n    tag_1:\n      pop\n      jumpi(tag_2, lt(calldatasize, 0x04))\n      shr(0xe0, calldataload(0x00))\n      dup1\n      0x092e0acd\n      eq\n      tag_3\n      jumpi\n      dup1\n      0x6ef3b795\n      eq\n      tag_4\n      jumpi\n      dup1\n      0xa92100cb\n      eq\n      tag_5\n      jumpi\n    tag_2:\n      0x00\n      dup1\n      revert\n        /* \"loop.sol\":95:114  uint[4] public arra */\n    tag_3:\n      tag_6\n      0x04\n      dup1\n      calldatasize\n      sub\n      0x20\n      dup2\n      lt\n      iszero\n      tag_7\n      jumpi\n      0x00\n      dup1\n      revert\n    tag_7:\n      dup2\n      add\n      swap1\n      dup1\n      dup1\n      calldataload\n      swap1\n      0x20\n      add\n      swap1\n      swap3\n      swap2\n      swap1\n      pop\n      pop\n      pop\n      tag_8\n      jump\t// in\n    tag_6:\n      mload(0x40)\n      dup1\n      dup3\n      dup2\n      mstore\n      0x20\n      add\n      swap2\n      pop\n      pop\n      mload(0x40)\n      dup1\n      swap2\n      sub\n      swap1\n      return\n        /* \"loop.sol\":121:137  uint public intt */\n    tag_4:\n      tag_9\n      tag_10\n      jump\t// in\n    tag_9:\n      mload(0x40)\n      dup1\n      dup3\n      dup2\n      mstore\n      0x20\n      add\n      swap2\n      pop\n      pop\n      mload(0x40)\n      dup1\n      swap2\n      sub\n      swap1\n      return\n        /* \"loop.sol\":146:255  function loop() public{\r... */\n    tag_5:\n      tag_11\n      tag_12\n      jump\t// in\n    tag_11:\n      stop\n        /* \"loop.sol\":95:114  uint[4] public arra */\n    tag_8:\n      0x00\n      dup2\n      0x04\n      dup2\n      lt\n      tag_13\n      jumpi\n      0x00\n      dup1\n      revert\n    tag_13:\n      add\n      0x00\n      swap2\n      pop\n      swap1\n      pop\n      sload\n      dup2\n      jump\t// out\n        /* \"loop.sol\":121:137  uint public intt */\n    tag_10:\n      sload(0x04)\n      dup2\n      jump\t// out\n        /* \"loop.sol\":146:255  function loop() public{\r... */\n    tag_12:\n        /* \"loop.sol\":175:230  while (intt<arra.length)\r... */\n    tag_16:\n        /* \"loop.sol\":187:198  arra.length */\n      0x04\n        /* \"loop.sol\":182:186  intt */\n      dup1\n      sload\n        /* \"loop.sol\":182:198  intt<arra.length */\n      lt\n        /* \"loop.sol\":175:230  while (intt<arra.length)\r... */\n      iszero\n      tag_17\n      jumpi\n        /* \"loop.sol\":226:230  intt */\n      sload(0x04)\n        /* \"loop.sol\":215:219  arra */\n      0x00\n        /* \"loop.sol\":220:224  intt */\n      sload(0x04)\n        /* \"loop.sol\":215:225  arra[intt] */\n      0x04\n      dup2\n      lt\n      tag_18\n      jumpi\n      invalid\n    tag_18:\n      add\n        /* \"loop.sol\":215:230  arra[intt]=intt */\n      dup2\n      swap1\n      sstore\n      pop\n        /* \"loop.sol\":175:230  while (intt<arra.length)\r... */\n      jump(tag_16)\n    tag_17:\n        /* \"loop.sol\":241:245  intt */\n      0x04\n      0x00\n        /* \"loop.sol\":241:247  intt++ */\n      dup2\n      sload\n      dup1\n      swap3\n      swap2\n      swap1\n      0x01\n      add\n      swap2\n      swap1\n      pop\n      sstore\n      pop\n        /* \"loop.sol\":146:255  function loop() public{\r... */\n      jump\t// out\n\n    auxdata: 0xa26469706673582212205a40214278ae0fc0189b4da29b1462b0e279b42bea64fc5eec467691ca3e024164736f6c63430007060033\n}\n",
				"bytecode": {
					"linkReferences": {},
					"object": "608060405234801561001057600080fd5b50610132806100206000396000f3fe6080604052348015600f57600080fd5b5060043610603c5760003560e01c8063092e0acd1460415780636ef3b795146080578063a92100cb14609c575b600080fd5b606a60048036036020811015605557600080fd5b810190808035906020019092919050505060a4565b6040518082815260200191505060405180910390f35b608660be565b6040518082815260200191505060405180910390f35b60a260c4565b005b6000816004811060b357600080fd5b016000915090505481565b60045481565b5b60048054101560e85760045460006004546004811060df57fe5b018190555060c5565b60046000815480929190600101919050555056fea26469706673582212205a40214278ae0fc0189b4da29b1462b0e279b42bea64fc5eec467691ca3e024164736f6c63430007060033",
					"opcodes": "PUSH1 0x80 PUSH1 0x40 MSTORE CALLVALUE DUP1 ISZERO PUSH2 0x10 JUMPI PUSH1 0x0 DUP1 REVERT JUMPDEST POP PUSH2 0x132 DUP1 PUSH2 0x20 PUSH1 0x0 CODECOPY PUSH1 0x0 RETURN INVALID PUSH1 0x80 PUSH1 0x40 MSTORE CALLVALUE DUP1 ISZERO PUSH1 0xF JUMPI PUSH1 0x0 DUP1 REVERT JUMPDEST POP PUSH1 0x4 CALLDATASIZE LT PUSH1 0x3C JUMPI PUSH1 0x0 CALLDATALOAD PUSH1 0xE0 SHR DUP1 PUSH4 0x92E0ACD EQ PUSH1 0x41 JUMPI DUP1 PUSH4 0x6EF3B795 EQ PUSH1 0x80 JUMPI DUP1 PUSH4 0xA92100CB EQ PUSH1 0x9C JUMPI JUMPDEST PUSH1 0x0 DUP1 REVERT JUMPDEST PUSH1 0x6A PUSH1 0x4 DUP1 CALLDATASIZE SUB PUSH1 0x20 DUP2 LT ISZERO PUSH1 0x55 JUMPI PUSH1 0x0 DUP1 REVERT JUMPDEST DUP2 ADD SWAP1 DUP1 DUP1 CALLDATALOAD SWAP1 PUSH1 0x20 ADD SWAP1 SWAP3 SWAP2 SWAP1 POP POP POP PUSH1 0xA4 JUMP JUMPDEST PUSH1 0x40 MLOAD DUP1 DUP3 DUP2 MSTORE PUSH1 0x20 ADD SWAP2 POP POP PUSH1 0x40 MLOAD DUP1 SWAP2 SUB SWAP1 RETURN JUMPDEST PUSH1 0x86 PUSH1 0xBE JUMP JUMPDEST PUSH1 0x40 MLOAD DUP1 DUP3 DUP2 MSTORE PUSH1 0x20 ADD SWAP2 POP POP PUSH1 0x40 MLOAD DUP1 SWAP2 SUB SWAP1 RETURN JUMPDEST PUSH1 0xA2 PUSH1 0xC4 JUMP JUMPDEST STOP JUMPDEST PUSH1 0x0 DUP2 PUSH1 0x4 DUP2 LT PUSH1 0xB3 JUMPI PUSH1 0x0 DUP1 REVERT JUMPDEST ADD PUSH1 0x0 SWAP2 POP SWAP1 POP SLOAD DUP2 JUMP JUMPDEST PUSH1 0x4 SLOAD DUP2 JUMP JUMPDEST JUMPDEST PUSH1 0x4 DUP1 SLOAD LT ISZERO PUSH1 0xE8 JUMPI PUSH1 0x4 SLOAD PUSH1 0x0 PUSH1 0x4 SLOAD PUSH1 0x4 DUP2 LT PUSH1 0xDF JUMPI INVALID JUMPDEST ADD DUP2 SWAP1 SSTORE POP PUSH1 0xC5 JUMP JUMPDEST PUSH1 0x4 PUSH1 0x0 DUP2 SLOAD DUP1 SWAP3 SWAP2 SWAP1 PUSH1 0x1 ADD SWAP2 SWAP1 POP SSTORE POP JUMP INVALID LOG2 PUSH5 0x6970667358 0x22 SLT KECCAK256 GAS BLOCKHASH 0x21 TIMESTAMP PUSH25 0xAE0FC0189B4DA29B1462B0E279B42BEA64FC5EEC467691CA3E MUL COINBASE PUSH5 0x736F6C6343 STOP SMOD MOD STOP CALLER "
				},
				"gasEstimates": {
					"creation": {
						"codeDepositCost": "61200",
						"executionCost": "111",
						"totalCost": "61311"
					},
					"external": {
						"arra(uint256)": "1107",
						"intt()": "1005",
						"loop()": "infinite"
					}
				},
				"methodIdentifiers": {
					"arra(uint256)": "092e0acd",
					"intt()": "6ef3b795",
					"loop()": "a92100cb"
				}
			},
			"storageLayout": {
				"storage": [
					{
						"astId": 5,
						"contract": "loop.sol:looop",
						"label": "arra",
						"offset": 0,
						"slot": "0",
						"type": "t_array(t_uint256)4_storage"
					},
					{
						"astId": 7,
						"contract": "loop.sol:looop",
						"label": "intt",
						"offset": 0,
						"slot": "4",
						"type": "t_uint256"
					}
				],
				"types": {
					"t_array(t_uint256)4_storage": {
						"base": "t_uint256",
						"encoding": "inplace",
						"label": "uint256[4]",
						"numberOfBytes": "128"
					},
					"t_uint256": {
						"encoding": "inplace",
						"label": "uint256",
						"numberOfBytes": "32"
					}
				}
			},
			"userdoc": {
				"kind": "user",
				"methods": {},
				"version": 1
			}
		}
	}
}