{
	"enum.sol": {
		"Enum": {
			"abi": [
				{
					"inputs": [],
					"name": "getstatus",
					"outputs": [
						{
							"internalType": "enum Enum.Order",
							"name": "",
							"type": "uint8"
						}
					],
					"stateMutability": "view",
					"type": "function"
				}
			],
			"devdoc": {
				"kind": "dev",
				"methods": {},
				"version": 1
			},
			"evm": {
				"assembly": "    /* \"enum.sol\":74:264  contract Enum{\r... */\n  mstore(0x40, 0x80)\n  callvalue\n  dup1\n  iszero\n  tag_1\n  jumpi\n  0x00\n  dup1\n  revert\ntag_1:\n  pop\n  dataSize(sub_0)\n  dup1\n  dataOffset(sub_0)\n  0x00\n  codecopy\n  0x00\n  return\nstop\n\nsub_0: assembly {\n        /* \"enum.sol\":74:264  contract Enum{\r... */\n      mstore(0x40, 0x80)\n      callvalue\n      dup1\n      iszero\n      tag_1\n      jumpi\n      0x00\n      dup1\n      revert\n    tag_1:\n      pop\n      jumpi(tag_2, lt(calldatasize, 0x04))\n      shr(0xe0, calldataload(0x00))\n      dup1\n      0x3b0b0290\n      eq\n      tag_3\n      jumpi\n    tag_2:\n      0x00\n      dup1\n      revert\n        /* \"enum.sol\":186:257  function getstatus() public view returns(Order)\r... */\n    tag_3:\n      tag_4\n      tag_5\n      jump\t// in\n    tag_4:\n      mload(0x40)\n      dup1\n      dup3\n      0x04\n      dup2\n      gt\n      iszero\n      tag_6\n      jumpi\n      invalid\n    tag_6:\n      dup2\n      mstore\n      0x20\n      add\n      swap2\n      pop\n      pop\n      mload(0x40)\n      dup1\n      swap2\n      sub\n      swap1\n      return\n    tag_5:\n        /* \"enum.sol\":227:232  Order */\n      0x00\n        /* \"enum.sol\":186:257  function getstatus() public view returns(Order)\r... */\n      swap1\n      jump\t// out\n\n    auxdata: 0xa2646970667358221220c74f8d47b0a6f8a234ffd472cd7dc9c1b1f756623a53d1a9e2458f996a09616b64736f6c63430007060033\n}\n",
				"bytecode": {
					"linkReferences": {},
					"object": "6080604052348015600f57600080fd5b50608e8061001e6000396000f3fe6080604052348015600f57600080fd5b506004361060285760003560e01c80633b0b029014602d575b600080fd5b60336053565b60405180826004811115604257fe5b815260200191505060405180910390f35b60009056fea2646970667358221220c74f8d47b0a6f8a234ffd472cd7dc9c1b1f756623a53d1a9e2458f996a09616b64736f6c63430007060033",
					"opcodes": "PUSH1 0x80 PUSH1 0x40 MSTORE CALLVALUE DUP1 ISZERO PUSH1 0xF JUMPI PUSH1 0x0 DUP1 REVERT JUMPDEST POP PUSH1 0x8E DUP1 PUSH2 0x1E PUSH1 0x0 CODECOPY PUSH1 0x0 RETURN INVALID PUSH1 0x80 PUSH1 0x40 MSTORE CALLVALUE DUP1 ISZERO PUSH1 0xF JUMPI PUSH1 0x0 DUP1 REVERT JUMPDEST POP PUSH1 0x4 CALLDATASIZE LT PUSH1 0x28 JUMPI PUSH1 0x0 CALLDATALOAD PUSH1 0xE0 SHR DUP1 PUSH4 0x3B0B0290 EQ PUSH1 0x2D JUMPI JUMPDEST PUSH1 0x0 DUP1 REVERT JUMPDEST PUSH1 0x33 PUSH1 0x53 JUMP JUMPDEST PUSH1 0x40 MLOAD DUP1 DUP3 PUSH1 0x4 DUP2 GT ISZERO PUSH1 0x42 JUMPI INVALID JUMPDEST DUP2 MSTORE PUSH1 0x20 ADD SWAP2 POP POP PUSH1 0x40 MLOAD DUP1 SWAP2 SUB SWAP1 RETURN JUMPDEST PUSH1 0x0 SWAP1 JUMP INVALID LOG2 PUSH5 0x6970667358 0x22 SLT KECCAK256 0xC7 0x4F DUP14 SELFBALANCE 0xB0 0xA6 0xF8 LOG2 CALLVALUE SELFDESTRUCT 0xD4 PUSH19 0xCD7DC9C1B1F756623A53D1A9E2458F996A0961 PUSH12 0x64736F6C6343000706003300 "
				},
				"gasEstimates": {
					"creation": {
						"codeDepositCost": "28400",
						"executionCost": "81",
						"totalCost": "28481"
					},
					"external": {
						"getstatus()": "209"
					}
				},
				"methodIdentifiers": {
					"getstatus()": "3b0b0290"
				}
			},
			"storageLayout": {
				"storage": [
					{
						"astId": 9,
						"contract": "enum.sol:Enum",
						"label": "status",
						"offset": 0,
						"slot": "0",
						"type": "t_enum(Order)7"
					}
				],
				"types": {
					"t_enum(Order)7": {
						"encoding": "inplace",
						"label": "enum Enum.Order",
						"numberOfBytes": "1"
					}
				}
			},
			"userdoc": {
				"kind": "user",
				"methods": {},
				"version": 1
			}
		}
	}
}