{
	"lottery.sol": {
		"Lottery": {
			"abi": [
				{
					"inputs": [],
					"stateMutability": "nonpayable",
					"type": "constructor"
				},
				{
					"inputs": [],
					"name": "getbalance",
					"outputs": [
						{
							"internalType": "uint256",
							"name": "",
							"type": "uint256"
						}
					],
					"stateMutability": "view",
					"type": "function"
				},
				{
					"inputs": [],
					"name": "manager",
					"outputs": [
						{
							"internalType": "address",
							"name": "",
							"type": "address"
						}
					],
					"stateMutability": "view",
					"type": "function"
				},
				{
					"inputs": [
						{
							"internalType": "uint256",
							"name": "",
							"type": "uint256"
						}
					],
					"name": "participants",
					"outputs": [
						{
							"internalType": "address payable",
							"name": "",
							"type": "address"
						}
					],
					"stateMutability": "view",
					"type": "function"
				},
				{
					"inputs": [],
					"name": "random",
					"outputs": [
						{
							"internalType": "uint256",
							"name": "",
							"type": "uint256"
						}
					],
					"stateMutability": "view",
					"type": "function"
				},
				{
					"inputs": [],
					"name": "selectwinner",
					"outputs": [],
					"stateMutability": "nonpayable",
					"type": "function"
				},
				{
					"stateMutability": "payable",
					"type": "receive"
				}
			],
			"devdoc": {
				"kind": "dev",
				"methods": {},
				"version": 1
			},
			"evm": {
				"assembly": "    /* \"lottery.sol\":74:1056  contract Lottery\r... */\n  mstore(0x40, 0x80)\n    /* \"lottery.sol\":176:234  constructor()\r... */\n  callvalue\n  dup1\n  iszero\n  tag_1\n  jumpi\n  0x00\n  dup1\n  revert\ntag_1:\n  pop\n    /* \"lottery.sol\":214:224  msg.sender */\n  caller\n    /* \"lottery.sol\":206:213  manager */\n  0x00\n  dup1\n    /* \"lottery.sol\":206:224  manager=msg.sender */\n  0x0100\n  exp\n  dup2\n  sload\n  dup2\n  0xffffffffffffffffffffffffffffffffffffffff\n  mul\n  not\n  and\n  swap1\n  dup4\n  0xffffffffffffffffffffffffffffffffffffffff\n  and\n  mul\n  or\n  swap1\n  sstore\n  pop\n    /* \"lottery.sol\":74:1056  contract Lottery\r... */\n  dataSize(sub_0)\n  dup1\n  dataOffset(sub_0)\n  0x00\n  codecopy\n  0x00\n  return\nstop\n\nsub_0: assembly {\n        /* \"lottery.sol\":74:1056  contract Lottery\r... */\n      mstore(0x40, 0x80)\n      jumpi(tag_1, lt(calldatasize, 0x04))\n      shr(0xe0, calldataload(0x00))\n      dup1\n      0x35c1d349\n      eq\n      tag_3\n      jumpi\n      dup1\n      0x481c6a75\n      eq\n      tag_4\n      jumpi\n      dup1\n      0x4d9b3d5d\n      eq\n      tag_5\n      jumpi\n      dup1\n      0x5ec01e4d\n      eq\n      tag_6\n      jumpi\n      dup1\n      0xf06e40ba\n      eq\n      tag_7\n      jumpi\n      jump(tag_2)\n    tag_1:\n      jumpi(tag_2, calldatasize)\n        /* \"lottery.sol\":297:304  1 ether */\n      0x0de0b6b3a7640000\n        /* \"lottery.sol\":286:295  msg.value */\n      callvalue\n        /* \"lottery.sol\":286:304  msg.value==1 ether */\n      eq\n        /* \"lottery.sol\":278:305  require(msg.value==1 ether) */\n      tag_10\n      jumpi\n      0x00\n      dup1\n      revert\n    tag_10:\n        /* \"lottery.sol\":317:329  participants */\n      0x01\n        /* \"lottery.sol\":343:353  msg.sender */\n      caller\n        /* \"lottery.sol\":317:355  participants.push(payable(msg.sender)) */\n      swap1\n      dup1\n      0x01\n      dup2\n      sload\n      add\n      dup1\n      dup3\n      sstore\n      dup1\n      swap2\n      pop\n      pop\n      0x01\n      swap1\n      sub\n      swap1\n      0x00\n      mstore\n      keccak256(0x00, 0x20)\n      add\n      0x00\n      swap1\n      swap2\n      swap1\n      swap2\n      swap1\n      swap2\n      0x0100\n      exp\n      dup2\n      sload\n      dup2\n      0xffffffffffffffffffffffffffffffffffffffff\n      mul\n      not\n      and\n      swap1\n      dup4\n      0xffffffffffffffffffffffffffffffffffffffff\n      and\n      mul\n      or\n      swap1\n      sstore\n      pop\n        /* \"lottery.sol\":74:1056  contract Lottery\r... */\n      stop\n    tag_2:\n      0x00\n      dup1\n      revert\n        /* \"lottery.sol\":128:165  address payable[] public participants */\n    tag_3:\n      callvalue\n      dup1\n      iszero\n      tag_12\n      jumpi\n      0x00\n      dup1\n      revert\n    tag_12:\n      pop\n      tag_13\n      0x04\n      dup1\n      calldatasize\n      sub\n      0x20\n      dup2\n      lt\n      iszero\n      tag_14\n      jumpi\n      0x00\n      dup1\n      revert\n    tag_14:\n      dup2\n      add\n      swap1\n      dup1\n      dup1\n      calldataload\n      swap1\n      0x20\n      add\n      swap1\n      swap3\n      swap2\n      swap1\n      pop\n      pop\n      pop\n      tag_15\n      jump\t// in\n    tag_13:\n      mload(0x40)\n      dup1\n      dup3\n      0xffffffffffffffffffffffffffffffffffffffff\n      and\n      dup2\n      mstore\n      0x20\n      add\n      swap2\n      pop\n      pop\n      mload(0x40)\n      dup1\n      swap2\n      sub\n      swap1\n      return\n        /* \"lottery.sol\":99:121  address public manager */\n    tag_4:\n      callvalue\n      dup1\n      iszero\n      tag_16\n      jumpi\n      0x00\n      dup1\n      revert\n    tag_16:\n      pop\n      tag_17\n      tag_18\n      jump\t// in\n    tag_17:\n      mload(0x40)\n      dup1\n      dup3\n      0xffffffffffffffffffffffffffffffffffffffff\n      and\n      dup2\n      mstore\n      0x20\n      add\n      swap2\n      pop\n      pop\n      mload(0x40)\n      dup1\n      swap2\n      sub\n      swap1\n      return\n        /* \"lottery.sol\":372:505  function getbalance() public view returns(uint)\r... */\n    tag_5:\n      callvalue\n      dup1\n      iszero\n      tag_19\n      jumpi\n      0x00\n      dup1\n      revert\n    tag_19:\n      pop\n      tag_20\n      tag_21\n      jump\t// in\n    tag_20:\n      mload(0x40)\n      dup1\n      dup3\n      dup2\n      mstore\n      0x20\n      add\n      swap2\n      pop\n      pop\n      mload(0x40)\n      dup1\n      swap2\n      sub\n      swap1\n      return\n        /* \"lottery.sol\":513:675  function random() public view returns(uint)\r... */\n    tag_6:\n      callvalue\n      dup1\n      iszero\n      tag_22\n      jumpi\n      0x00\n      dup1\n      revert\n    tag_22:\n      pop\n      tag_23\n      tag_24\n      jump\t// in\n    tag_23:\n      mload(0x40)\n      dup1\n      dup3\n      dup2\n      mstore\n      0x20\n      add\n      swap2\n      pop\n      pop\n      mload(0x40)\n      dup1\n      swap2\n      sub\n      swap1\n      return\n        /* \"lottery.sol\":683:1053  function selectwinner() public \r... */\n    tag_7:\n      callvalue\n      dup1\n      iszero\n      tag_25\n      jumpi\n      0x00\n      dup1\n      revert\n    tag_25:\n      pop\n      tag_26\n      tag_27\n      jump\t// in\n    tag_26:\n      stop\n        /* \"lottery.sol\":128:165  address payable[] public participants */\n    tag_15:\n      0x01\n      dup2\n      dup2\n      sload\n      dup2\n      lt\n      tag_28\n      jumpi\n      0x00\n      dup1\n      revert\n    tag_28:\n      swap1\n      0x00\n      mstore\n      keccak256(0x00, 0x20)\n      add\n      0x00\n      swap2\n      pop\n      sload\n      swap1\n      0x0100\n      exp\n      swap1\n      div\n      0xffffffffffffffffffffffffffffffffffffffff\n      and\n      dup2\n      jump\t// out\n        /* \"lottery.sol\":99:121  address public manager */\n    tag_18:\n      0x00\n      dup1\n      sload\n      swap1\n      0x0100\n      exp\n      swap1\n      div\n      0xffffffffffffffffffffffffffffffffffffffff\n      and\n      dup2\n      jump\t// out\n        /* \"lottery.sol\":372:505  function getbalance() public view returns(uint)\r... */\n    tag_21:\n        /* \"lottery.sol\":414:418  uint */\n      0x00\n        /* \"lottery.sol\":450:457  manager */\n      dup1\n      0x00\n      swap1\n      sload\n      swap1\n      0x0100\n      exp\n      swap1\n      div\n      0xffffffffffffffffffffffffffffffffffffffff\n      and\n        /* \"lottery.sol\":437:457  msg.sender== manager */\n      0xffffffffffffffffffffffffffffffffffffffff\n      and\n        /* \"lottery.sol\":437:447  msg.sender */\n      caller\n        /* \"lottery.sol\":437:457  msg.sender== manager */\n      0xffffffffffffffffffffffffffffffffffffffff\n      and\n      eq\n        /* \"lottery.sol\":429:458  require(msg.sender== manager) */\n      tag_31\n      jumpi\n      0x00\n      dup1\n      revert\n    tag_31:\n        /* \"lottery.sol\":476:497  address(this).balance */\n      selfbalance\n        /* \"lottery.sol\":469:497  return address(this).balance */\n      swap1\n      pop\n        /* \"lottery.sol\":372:505  function getbalance() public view returns(uint)\r... */\n      swap1\n      jump\t// out\n        /* \"lottery.sol\":513:675  function random() public view returns(uint)\r... */\n    tag_24:\n        /* \"lottery.sol\":551:555  uint */\n      0x00\n        /* \"lottery.sol\":612:628  block.difficulty */\n      difficulty\n        /* \"lottery.sol\":629:644  block.timestamp */\n      timestamp\n        /* \"lottery.sol\":645:657  participants */\n      0x01\n        /* \"lottery.sol\":645:664  participants.length */\n      dup1\n      sload\n      swap1\n      pop\n        /* \"lottery.sol\":595:665  abi.encodePacked(block.difficulty,block.timestamp,participants.length) */\n      add(0x20, mload(0x40))\n      dup1\n      dup5\n      dup2\n      mstore\n      0x20\n      add\n      dup4\n      dup2\n      mstore\n      0x20\n      add\n      dup3\n      dup2\n      mstore\n      0x20\n      add\n      swap4\n      pop\n      pop\n      pop\n      pop\n      mload(0x40)\n      0x20\n      dup2\n      dup4\n      sub\n      sub\n      dup2\n      mstore\n      swap1\n      0x40\n      mstore\n        /* \"lottery.sol\":585:666  keccak256(abi.encodePacked(block.difficulty,block.timestamp,participants.length)) */\n      dup1\n      mload\n      swap1\n      0x20\n      add\n      keccak256\n        /* \"lottery.sol\":580:667  uint(keccak256(abi.encodePacked(block.difficulty,block.timestamp,participants.length))) */\n      0x00\n      shr\n        /* \"lottery.sol\":573:667  return uint(keccak256(abi.encodePacked(block.difficulty,block.timestamp,participants.length))) */\n      swap1\n      pop\n        /* \"lottery.sol\":513:675  function random() public view returns(uint)\r... */\n      swap1\n      jump\t// out\n        /* \"lottery.sol\":683:1053  function selectwinner() public \r... */\n    tag_27:\n        /* \"lottery.sol\":752:759  manager */\n      0x00\n      dup1\n      sload\n      swap1\n      0x0100\n      exp\n      swap1\n      div\n      0xffffffffffffffffffffffffffffffffffffffff\n      and\n        /* \"lottery.sol\":739:759  msg.sender== manager */\n      0xffffffffffffffffffffffffffffffffffffffff\n      and\n        /* \"lottery.sol\":739:749  msg.sender */\n      caller\n        /* \"lottery.sol\":739:759  msg.sender== manager */\n      0xffffffffffffffffffffffffffffffffffffffff\n      and\n      eq\n        /* \"lottery.sol\":731:760  require(msg.sender== manager) */\n      tag_34\n      jumpi\n      0x00\n      dup1\n      revert\n    tag_34:\n        /* \"lottery.sol\":800:801  3 */\n      0x03\n        /* \"lottery.sol\":779:791  participants */\n      0x01\n        /* \"lottery.sol\":779:798  participants.length */\n      dup1\n      sload\n      swap1\n      pop\n        /* \"lottery.sol\":779:801  participants.length<=3 */\n      gt\n      iszero\n        /* \"lottery.sol\":771:802  require(participants.length<=3) */\n      tag_35\n      jumpi\n      0x00\n      dup1\n      revert\n    tag_35:\n        /* \"lottery.sol\":815:821  uint r */\n      0x00\n        /* \"lottery.sol\":822:830  random() */\n      tag_36\n        /* \"lottery.sol\":822:828  random */\n      tag_24\n        /* \"lottery.sol\":822:830  random() */\n      jump\t// in\n    tag_36:\n        /* \"lottery.sol\":815:830  uint r=random() */\n      swap1\n      pop\n        /* \"lottery.sol\":841:863  address payable winner */\n      0x00\n        /* \"lottery.sol\":874:884  uint index */\n      dup1\n        /* \"lottery.sol\":889:901  participants */\n      0x01\n        /* \"lottery.sol\":889:908  participants.length */\n      dup1\n      sload\n      swap1\n      pop\n        /* \"lottery.sol\":885:886  r */\n      dup4\n        /* \"lottery.sol\":885:908  r % participants.length */\n      dup2\n      tag_37\n      jumpi\n      invalid\n    tag_37:\n      mod\n        /* \"lottery.sol\":874:908  uint index=r % participants.length */\n      swap1\n      pop\n        /* \"lottery.sol\":926:938  participants */\n      0x01\n        /* \"lottery.sol\":939:944  index */\n      dup2\n        /* \"lottery.sol\":926:945  participants[index] */\n      dup2\n      sload\n      dup2\n      lt\n      tag_38\n      jumpi\n      invalid\n    tag_38:\n      swap1\n      0x00\n      mstore\n      keccak256(0x00, 0x20)\n      add\n      0x00\n      swap1\n      sload\n      swap1\n      0x0100\n      exp\n      swap1\n      div\n      0xffffffffffffffffffffffffffffffffffffffff\n      and\n        /* \"lottery.sol\":919:945  winner=participants[index] */\n      swap2\n      pop\n        /* \"lottery.sol\":956:962  winner */\n      dup2\n        /* \"lottery.sol\":956:971  winner.transfer */\n      0xffffffffffffffffffffffffffffffffffffffff\n      and\n        /* \"lottery.sol\":956:985  winner.transfer(getbalance()) */\n      0x08fc\n        /* \"lottery.sol\":972:984  getbalance() */\n      tag_40\n        /* \"lottery.sol\":972:982  getbalance */\n      tag_21\n        /* \"lottery.sol\":972:984  getbalance() */\n      jump\t// in\n    tag_40:\n        /* \"lottery.sol\":956:985  winner.transfer(getbalance()) */\n      swap1\n      dup2\n      iszero\n      mul\n      swap1\n      mload(0x40)\n      0x00\n      mload(0x40)\n      dup1\n      dup4\n      sub\n      dup2\n      dup6\n      dup9\n      dup9\n      call\n      swap4\n      pop\n      pop\n      pop\n      pop\n      iszero\n      dup1\n      iszero\n      tag_42\n      jumpi\n      returndatasize\n      0x00\n      dup1\n      returndatacopy\n      revert(0x00, returndatasize)\n    tag_42:\n      pop\n        /* \"lottery.sol\":1031:1032  0 */\n      0x00\n        /* \"lottery.sol\":1009:1033  new address payable[](0) */\n      0xffffffffffffffff\n      dup2\n      gt\n      dup1\n      iszero\n      tag_43\n      jumpi\n      0x00\n      dup1\n      revert\n    tag_43:\n      pop\n      mload(0x40)\n      swap1\n      dup1\n      dup3\n      mstore\n      dup1\n      0x20\n      mul\n      0x20\n      add\n      dup3\n      add\n      0x40\n      mstore\n      dup1\n      iszero\n      tag_44\n      jumpi\n      dup2\n      0x20\n      add\n      0x20\n      dup3\n      mul\n      dup1\n      calldatasize\n      dup4\n      calldatacopy\n      dup1\n      dup3\n      add\n      swap2\n      pop\n      pop\n      swap1\n      pop\n    tag_44:\n      pop\n        /* \"lottery.sol\":996:1008  participants */\n      0x01\n        /* \"lottery.sol\":996:1033  participants=new address payable[](0) */\n      swap1\n      dup1\n      mload\n      swap1\n      0x20\n      add\n      swap1\n      tag_45\n      swap3\n      swap2\n      swap1\n      tag_46\n      jump\t// in\n    tag_45:\n      pop\n        /* \"lottery.sol\":683:1053  function selectwinner() public \r... */\n      pop\n      pop\n      pop\n      jump\t// out\n    tag_46:\n      dup3\n      dup1\n      sload\n      dup3\n      dup3\n      sstore\n      swap1\n      0x00\n      mstore\n      keccak256(0x00, 0x20)\n      swap1\n      dup2\n      add\n      swap3\n      dup3\n      iszero\n      tag_47\n      jumpi\n      swap2\n      0x20\n      mul\n      dup3\n      add\n    tag_48:\n      dup3\n      dup2\n      gt\n      iszero\n      tag_49\n      jumpi\n      dup3\n      mload\n      dup3\n      exp(0x0100, 0x00)\n      dup2\n      sload\n      dup2\n      0xffffffffffffffffffffffffffffffffffffffff\n      mul\n      not\n      and\n      swap1\n      dup4\n      0xffffffffffffffffffffffffffffffffffffffff\n      and\n      mul\n      or\n      swap1\n      sstore\n      pop\n      swap2\n      0x20\n      add\n      swap2\n      swap1\n      0x01\n      add\n      swap1\n      jump(tag_48)\n    tag_49:\n    tag_47:\n      pop\n      swap1\n      pop\n      tag_50\n      swap2\n      swap1\n      tag_51\n      jump\t// in\n    tag_50:\n      pop\n      swap1\n      jump\t// out\n    tag_51:\n    tag_52:\n      dup1\n      dup3\n      gt\n      iszero\n      tag_53\n      jumpi\n      0x00\n      dup2\n      0x00\n      swap1\n      sstore\n      pop\n      0x01\n      add\n      jump(tag_52)\n    tag_53:\n      pop\n      swap1\n      jump\t// out\n\n    auxdata: 0xa2646970667358221220a4d1e0904ffa91709c1a016b0e3d1caa76bfe308df9f8e49552fffb5e6b9b11864736f6c63430007060033\n}\n",
				"bytecode": {
					"linkReferences": {},
					"object": "608060405234801561001057600080fd5b50336000806101000a81548173ffffffffffffffffffffffffffffffffffffffff021916908373ffffffffffffffffffffffffffffffffffffffff160217905550610541806100606000396000f3fe60806040526004361061004e5760003560e01c806335c1d349146100d1578063481c6a75146101365780634d9b3d5d146101775780635ec01e4d146101a2578063f06e40ba146101cd576100cc565b366100cc57670de0b6b3a7640000341461006757600080fd5b6001339080600181540180825580915050600190039060005260206000200160009091909190916101000a81548173ffffffffffffffffffffffffffffffffffffffff021916908373ffffffffffffffffffffffffffffffffffffffff160217905550005b600080fd5b3480156100dd57600080fd5b5061010a600480360360208110156100f457600080fd5b81019080803590602001909291905050506101e4565b604051808273ffffffffffffffffffffffffffffffffffffffff16815260200191505060405180910390f35b34801561014257600080fd5b5061014b610223565b604051808273ffffffffffffffffffffffffffffffffffffffff16815260200191505060405180910390f35b34801561018357600080fd5b5061018c610247565b6040518082815260200191505060405180910390f35b3480156101ae57600080fd5b506101b76102a8565b6040518082815260200191505060405180910390f35b3480156101d957600080fd5b506101e26102ee565b005b600181815481106101f457600080fd5b906000526020600020016000915054906101000a900473ffffffffffffffffffffffffffffffffffffffff1681565b60008054906101000a900473ffffffffffffffffffffffffffffffffffffffff1681565b60008060009054906101000a900473ffffffffffffffffffffffffffffffffffffffff1673ffffffffffffffffffffffffffffffffffffffff163373ffffffffffffffffffffffffffffffffffffffff16146102a257600080fd5b47905090565b600044426001805490506040516020018084815260200183815260200182815260200193505050506040516020818303038152906040528051906020012060001c905090565b60008054906101000a900473ffffffffffffffffffffffffffffffffffffffff1673ffffffffffffffffffffffffffffffffffffffff163373ffffffffffffffffffffffffffffffffffffffff161461034657600080fd5b6003600180549050111561035957600080fd5b60006103636102a8565b9050600080600180549050838161037657fe5b0690506001818154811061038657fe5b9060005260206000200160009054906101000a900473ffffffffffffffffffffffffffffffffffffffff1691508173ffffffffffffffffffffffffffffffffffffffff166108fc6103d5610247565b9081150290604051600060405180830381858888f19350505050158015610400573d6000803e3d6000fd5b50600067ffffffffffffffff8111801561041957600080fd5b506040519080825280602002602001820160405280156104485781602001602082028036833780820191505090505b506001908051906020019061045e929190610464565b50505050565b8280548282559060005260206000209081019282156104dd579160200282015b828111156104dc5782518260006101000a81548173ffffffffffffffffffffffffffffffffffffffff021916908373ffffffffffffffffffffffffffffffffffffffff16021790555091602001919060010190610484565b5b5090506104ea91906104ee565b5090565b5b808211156105075760008160009055506001016104ef565b509056fea2646970667358221220a4d1e0904ffa91709c1a016b0e3d1caa76bfe308df9f8e49552fffb5e6b9b11864736f6c63430007060033",
					"opcodes": "PUSH1 0x80 PUSH1 0x40 MSTORE CALLVALUE DUP1 ISZERO PUSH2 0x10 JUMPI PUSH1 0x0 DUP1 REVERT JUMPDEST POP CALLER PUSH1 0x0 DUP1 PUSH2 0x100 EXP DUP2 SLOAD DUP2 PUSH20 0xFFFFFFFFFFFFFFFFFFFFFFFFFFFFFFFFFFFFFFFF MUL NOT AND SWAP1 DUP4 PUSH20 0xFFFFFFFFFFFFFFFFFFFFFFFFFFFFFFFFFFFFFFFF AND MUL OR SWAP1 SSTORE POP PUSH2 0x541 DUP1 PUSH2 0x60 PUSH1 0x0 CODECOPY PUSH1 0x0 RETURN INVALID PUSH1 0x80 PUSH1 0x40 MSTORE PUSH1 0x4 CALLDATASIZE LT PUSH2 0x4E JUMPI PUSH1 0x0 CALLDATALOAD PUSH1 0xE0 SHR DUP1 PUSH4 0x35C1D349 EQ PUSH2 0xD1 JUMPI DUP1 PUSH4 0x481C6A75 EQ PUSH2 0x136 JUMPI DUP1 PUSH4 0x4D9B3D5D EQ PUSH2 0x177 JUMPI DUP1 PUSH4 0x5EC01E4D EQ PUSH2 0x1A2 JUMPI DUP1 PUSH4 0xF06E40BA EQ PUSH2 0x1CD JUMPI PUSH2 0xCC JUMP JUMPDEST CALLDATASIZE PUSH2 0xCC JUMPI PUSH8 0xDE0B6B3A7640000 CALLVALUE EQ PUSH2 0x67 JUMPI PUSH1 0x0 DUP1 REVERT JUMPDEST PUSH1 0x1 CALLER SWAP1 DUP1 PUSH1 0x1 DUP2 SLOAD ADD DUP1 DUP3 SSTORE DUP1 SWAP2 POP POP PUSH1 0x1 SWAP1 SUB SWAP1 PUSH1 0x0 MSTORE PUSH1 0x20 PUSH1 0x0 KECCAK256 ADD PUSH1 0x0 SWAP1 SWAP2 SWAP1 SWAP2 SWAP1 SWAP2 PUSH2 0x100 EXP DUP2 SLOAD DUP2 PUSH20 0xFFFFFFFFFFFFFFFFFFFFFFFFFFFFFFFFFFFFFFFF MUL NOT AND SWAP1 DUP4 PUSH20 0xFFFFFFFFFFFFFFFFFFFFFFFFFFFFFFFFFFFFFFFF AND MUL OR SWAP1 SSTORE POP STOP JUMPDEST PUSH1 0x0 DUP1 REVERT JUMPDEST CALLVALUE DUP1 ISZERO PUSH2 0xDD JUMPI PUSH1 0x0 DUP1 REVERT JUMPDEST POP PUSH2 0x10A PUSH1 0x4 DUP1 CALLDATASIZE SUB PUSH1 0x20 DUP2 LT ISZERO PUSH2 0xF4 JUMPI PUSH1 0x0 DUP1 REVERT JUMPDEST DUP2 ADD SWAP1 DUP1 DUP1 CALLDATALOAD SWAP1 PUSH1 0x20 ADD SWAP1 SWAP3 SWAP2 SWAP1 POP POP POP PUSH2 0x1E4 JUMP JUMPDEST PUSH1 0x40 MLOAD DUP1 DUP3 PUSH20 0xFFFFFFFFFFFFFFFFFFFFFFFFFFFFFFFFFFFFFFFF AND DUP2 MSTORE PUSH1 0x20 ADD SWAP2 POP POP PUSH1 0x40 MLOAD DUP1 SWAP2 SUB SWAP1 RETURN JUMPDEST CALLVALUE DUP1 ISZERO PUSH2 0x142 JUMPI PUSH1 0x0 DUP1 REVERT JUMPDEST POP PUSH2 0x14B PUSH2 0x223 JUMP JUMPDEST PUSH1 0x40 MLOAD DUP1 DUP3 PUSH20 0xFFFFFFFFFFFFFFFFFFFFFFFFFFFFFFFFFFFFFFFF AND DUP2 MSTORE PUSH1 0x20 ADD SWAP2 POP POP PUSH1 0x40 MLOAD DUP1 SWAP2 SUB SWAP1 RETURN JUMPDEST CALLVALUE DUP1 ISZERO PUSH2 0x183 JUMPI PUSH1 0x0 DUP1 REVERT JUMPDEST POP PUSH2 0x18C PUSH2 0x247 JUMP JUMPDEST PUSH1 0x40 MLOAD DUP1 DUP3 DUP2 MSTORE PUSH1 0x20 ADD SWAP2 POP POP PUSH1 0x40 MLOAD DUP1 SWAP2 SUB SWAP1 RETURN JUMPDEST CALLVALUE DUP1 ISZERO PUSH2 0x1AE JUMPI PUSH1 0x0 DUP1 REVERT JUMPDEST POP PUSH2 0x1B7 PUSH2 0x2A8 JUMP JUMPDEST PUSH1 0x40 MLOAD DUP1 DUP3 DUP2 MSTORE PUSH1 0x20 ADD SWAP2 POP POP PUSH1 0x40 MLOAD DUP1 SWAP2 SUB SWAP1 RETURN JUMPDEST CALLVALUE DUP1 ISZERO PUSH2 0x1D9 JUMPI PUSH1 0x0 DUP1 REVERT JUMPDEST POP PUSH2 0x1E2 PUSH2 0x2EE JUMP JUMPDEST STOP JUMPDEST PUSH1 0x1 DUP2 DUP2 SLOAD DUP2 LT PUSH2 0x1F4 JUMPI PUSH1 0x0 DUP1 REVERT JUMPDEST SWAP1 PUSH1 0x0 MSTORE PUSH1 0x20 PUSH1 0x0 KECCAK256 ADD PUSH1 0x0 SWAP2 POP SLOAD SWAP1 PUSH2 0x100 EXP SWAP1 DIV PUSH20 0xFFFFFFFFFFFFFFFFFFFFFFFFFFFFFFFFFFFFFFFF AND DUP2 JUMP JUMPDEST PUSH1 0x0 DUP1 SLOAD SWAP1 PUSH2 0x100 EXP SWAP1 DIV PUSH20 0xFFFFFFFFFFFFFFFFFFFFFFFFFFFFFFFFFFFFFFFF AND DUP2 JUMP JUMPDEST PUSH1 0x0 DUP1 PUSH1 0x0 SWAP1 SLOAD SWAP1 PUSH2 0x100 EXP SWAP1 DIV PUSH20 0xFFFFFFFFFFFFFFFFFFFFFFFFFFFFFFFFFFFFFFFF AND PUSH20 0xFFFFFFFFFFFFFFFFFFFFFFFFFFFFFFFFFFFFFFFF AND CALLER PUSH20 0xFFFFFFFFFFFFFFFFFFFFFFFFFFFFFFFFFFFFFFFF AND EQ PUSH2 0x2A2 JUMPI PUSH1 0x0 DUP1 REVERT JUMPDEST SELFBALANCE SWAP1 POP SWAP1 JUMP JUMPDEST PUSH1 0x0 DIFFICULTY TIMESTAMP PUSH1 0x1 DUP1 SLOAD SWAP1 POP PUSH1 0x40 MLOAD PUSH1 0x20 ADD DUP1 DUP5 DUP2 MSTORE PUSH1 0x20 ADD DUP4 DUP2 MSTORE PUSH1 0x20 ADD DUP3 DUP2 MSTORE PUSH1 0x20 ADD SWAP4 POP POP POP POP PUSH1 0x40 MLOAD PUSH1 0x20 DUP2 DUP4 SUB SUB DUP2 MSTORE SWAP1 PUSH1 0x40 MSTORE DUP1 MLOAD SWAP1 PUSH1 0x20 ADD KECCAK256 PUSH1 0x0 SHR SWAP1 POP SWAP1 JUMP JUMPDEST PUSH1 0x0 DUP1 SLOAD SWAP1 PUSH2 0x100 EXP SWAP1 DIV PUSH20 0xFFFFFFFFFFFFFFFFFFFFFFFFFFFFFFFFFFFFFFFF AND PUSH20 0xFFFFFFFFFFFFFFFFFFFFFFFFFFFFFFFFFFFFFFFF AND CALLER PUSH20 0xFFFFFFFFFFFFFFFFFFFFFFFFFFFFFFFFFFFFFFFF AND EQ PUSH2 0x346 JUMPI PUSH1 0x0 DUP1 REVERT JUMPDEST PUSH1 0x3 PUSH1 0x1 DUP1 SLOAD SWAP1 POP GT ISZERO PUSH2 0x359 JUMPI PUSH1 0x0 DUP1 REVERT JUMPDEST PUSH1 0x0 PUSH2 0x363 PUSH2 0x2A8 JUMP JUMPDEST SWAP1 POP PUSH1 0x0 DUP1 PUSH1 0x1 DUP1 SLOAD SWAP1 POP DUP4 DUP2 PUSH2 0x376 JUMPI INVALID JUMPDEST MOD SWAP1 POP PUSH1 0x1 DUP2 DUP2 SLOAD DUP2 LT PUSH2 0x386 JUMPI INVALID JUMPDEST SWAP1 PUSH1 0x0 MSTORE PUSH1 0x20 PUSH1 0x0 KECCAK256 ADD PUSH1 0x0 SWAP1 SLOAD SWAP1 PUSH2 0x100 EXP SWAP1 DIV PUSH20 0xFFFFFFFFFFFFFFFFFFFFFFFFFFFFFFFFFFFFFFFF AND SWAP2 POP DUP2 PUSH20 0xFFFFFFFFFFFFFFFFFFFFFFFFFFFFFFFFFFFFFFFF AND PUSH2 0x8FC PUSH2 0x3D5 PUSH2 0x247 JUMP JUMPDEST SWAP1 DUP2 ISZERO MUL SWAP1 PUSH1 0x40 MLOAD PUSH1 0x0 PUSH1 0x40 MLOAD DUP1 DUP4 SUB DUP2 DUP6 DUP9 DUP9 CALL SWAP4 POP POP POP POP ISZERO DUP1 ISZERO PUSH2 0x400 JUMPI RETURNDATASIZE PUSH1 0x0 DUP1 RETURNDATACOPY RETURNDATASIZE PUSH1 0x0 REVERT JUMPDEST POP PUSH1 0x0 PUSH8 0xFFFFFFFFFFFFFFFF DUP2 GT DUP1 ISZERO PUSH2 0x419 JUMPI PUSH1 0x0 DUP1 REVERT JUMPDEST POP PUSH1 0x40 MLOAD SWAP1 DUP1 DUP3 MSTORE DUP1 PUSH1 0x20 MUL PUSH1 0x20 ADD DUP3 ADD PUSH1 0x40 MSTORE DUP1 ISZERO PUSH2 0x448 JUMPI DUP2 PUSH1 0x20 ADD PUSH1 0x20 DUP3 MUL DUP1 CALLDATASIZE DUP4 CALLDATACOPY DUP1 DUP3 ADD SWAP2 POP POP SWAP1 POP JUMPDEST POP PUSH1 0x1 SWAP1 DUP1 MLOAD SWAP1 PUSH1 0x20 ADD SWAP1 PUSH2 0x45E SWAP3 SWAP2 SWAP1 PUSH2 0x464 JUMP JUMPDEST POP POP POP POP JUMP JUMPDEST DUP3 DUP1 SLOAD DUP3 DUP3 SSTORE SWAP1 PUSH1 0x0 MSTORE PUSH1 0x20 PUSH1 0x0 KECCAK256 SWAP1 DUP2 ADD SWAP3 DUP3 ISZERO PUSH2 0x4DD JUMPI SWAP2 PUSH1 0x20 MUL DUP3 ADD JUMPDEST DUP3 DUP2 GT ISZERO PUSH2 0x4DC JUMPI DUP3 MLOAD DUP3 PUSH1 0x0 PUSH2 0x100 EXP DUP2 SLOAD DUP2 PUSH20 0xFFFFFFFFFFFFFFFFFFFFFFFFFFFFFFFFFFFFFFFF MUL NOT AND SWAP1 DUP4 PUSH20 0xFFFFFFFFFFFFFFFFFFFFFFFFFFFFFFFFFFFFFFFF AND MUL OR SWAP1 SSTORE POP SWAP2 PUSH1 0x20 ADD SWAP2 SWAP1 PUSH1 0x1 ADD SWAP1 PUSH2 0x484 JUMP JUMPDEST JUMPDEST POP SWAP1 POP PUSH2 0x4EA SWAP2 SWAP1 PUSH2 0x4EE JUMP JUMPDEST POP SWAP1 JUMP JUMPDEST JUMPDEST DUP1 DUP3 GT ISZERO PUSH2 0x507 JUMPI PUSH1 0x0 DUP2 PUSH1 0x0 SWAP1 SSTORE POP PUSH1 0x1 ADD PUSH2 0x4EF JUMP JUMPDEST POP SWAP1 JUMP INVALID LOG2 PUSH5 0x6970667358 0x22 SLT KECCAK256 LOG4 0xD1 0xE0 SWAP1 0x4F STATICCALL SWAP2 PUSH17 0x9C1A016B0E3D1CAA76BFE308DF9F8E4955 0x2F SELFDESTRUCT 0xB5 0xE6 0xB9 0xB1 XOR PUSH5 0x736F6C6343 STOP SMOD MOD STOP CALLER "
				},
				"gasEstimates": {
					"creation": {
						"codeDepositCost": "269000",
						"executionCost": "21178",
						"totalCost": "290178"
					},
					"external": {
						"getbalance()": "1107",
						"manager()": "1044",
						"participants(uint256)": "1989",
						"random()": "1257",
						"selectwinner()": "infinite"
					}
				},
				"methodIdentifiers": {
					"getbalance()": "4d9b3d5d",
					"manager()": "481c6a75",
					"participants(uint256)": "35c1d349",
					"random()": "5ec01e4d",
					"selectwinner()": "f06e40ba"
				}
			},
			"storageLayout": {
				"storage": [
					{
						"astId": 3,
						"contract": "lottery.sol:Lottery",
						"label": "manager",
						"offset": 0,
						"slot": "0",
						"type": "t_address"
					},
					{
						"astId": 6,
						"contract": "lottery.sol:Lottery",
						"label": "participants",
						"offset": 0,
						"slot": "1",
						"type": "t_array(t_address_payable)dyn_storage"
					}
				],
				"types": {
					"t_address": {
						"encoding": "inplace",
						"label": "address",
						"numberOfBytes": "20"
					},
					"t_address_payable": {
						"encoding": "inplace",
						"label": "address payable",
						"numberOfBytes": "20"
					},
					"t_array(t_address_payable)dyn_storage": {
						"base": "t_address_payable",
						"encoding": "dynamic_array",
						"label": "address payable[]",
						"numberOfBytes": "32"
					}
				}
			},
			"userdoc": {
				"kind": "user",
				"methods": {},
				"version": 1
			}
		}
	}
}