{
	"enum.sol": {
		"Enum": {
			"abi": [
				{
					"inputs": [],
					"name": "getstatus",
					"outputs": [
						{
							"internalType": "enum Enum.Order",
							"name": "",
							"type": "uint8"
						}
					],
					"stateMutability": "view",
					"type": "function"
				},
				{
					"inputs": [],
					"name": "reset",
					"outputs": [],
					"stateMutability": "nonpayable",
					"type": "function"
				},
				{
					"inputs": [],
					"name": "ret",
					"outputs": [],
					"stateMutability": "nonpayable",
					"type": "function"
				},
				{
					"inputs": [
						{
							"internalType": "enum Enum.Order",
							"name": "_status",
							"type": "uint8"
						}
					],
					"name": "setstatus",
					"outputs": [],
					"stateMutability": "nonpayable",
					"type": "function"
				}
			],
			"devdoc": {
				"kind": "dev",
				"methods": {},
				"version": 1
			},
			"evm": {
				"assembly": "    /* \"enum.sol\":74:500  contract Enum{\r... */\n  mstore(0x40, 0x80)\n  callvalue\n  dup1\n  iszero\n  tag_1\n  jumpi\n  0x00\n  dup1\n  revert\ntag_1:\n  pop\n  dataSize(sub_0)\n  dup1\n  dataOffset(sub_0)\n  0x00\n  codecopy\n  0x00\n  return\nstop\n\nsub_0: assembly {\n        /* \"enum.sol\":74:500  contract Enum{\r... */\n      mstore(0x40, 0x80)\n      callvalue\n      dup1\n      iszero\n      tag_1\n      jumpi\n      0x00\n      dup1\n      revert\n    tag_1:\n      pop\n      jumpi(tag_2, lt(calldatasize, 0x04))\n      shr(0xe0, calldataload(0x00))\n      dup1\n      0x1b08d96f\n      eq\n      tag_3\n      jumpi\n      dup1\n      0x3b0b0290\n      eq\n      tag_4\n      jumpi\n      dup1\n      0xd826f88f\n      eq\n      tag_5\n      jumpi\n      dup1\n      0xf4c3fbd1\n      eq\n      tag_6\n      jumpi\n    tag_2:\n      0x00\n      dup1\n      revert\n        /* \"enum.sol\":369:432  function ret() public{\r... */\n    tag_3:\n      tag_7\n      tag_8\n      jump\t// in\n    tag_7:\n      stop\n        /* \"enum.sol\":186:271  function getstatus() public view returns(Order)\r... */\n    tag_4:\n      tag_9\n      tag_10\n      jump\t// in\n    tag_9:\n      mload(0x40)\n      dup1\n      dup3\n      0x04\n      dup2\n      gt\n      iszero\n      tag_11\n      jumpi\n      invalid\n    tag_11:\n      dup2\n      mstore\n      0x20\n      add\n      swap2\n      pop\n      pop\n      mload(0x40)\n      dup1\n      swap2\n      sub\n      swap1\n      return\n        /* \"enum.sol\":440:495  function reset() public{\r... */\n    tag_5:\n      tag_12\n      tag_13\n      jump\t// in\n    tag_12:\n      stop\n        /* \"enum.sol\":279:361  function setstatus(Order _status) public \r... */\n    tag_6:\n      tag_14\n      0x04\n      dup1\n      calldatasize\n      sub\n      0x20\n      dup2\n      lt\n      iszero\n      tag_15\n      jumpi\n      0x00\n      dup1\n      revert\n    tag_15:\n      dup2\n      add\n      swap1\n      dup1\n      dup1\n      calldataload\n      0xff\n      and\n      swap1\n      0x20\n      add\n      swap1\n      swap3\n      swap2\n      swap1\n      pop\n      pop\n      pop\n      tag_16\n      jump\t// in\n    tag_14:\n      stop\n        /* \"enum.sol\":369:432  function ret() public{\r... */\n    tag_8:\n        /* \"enum.sol\":410:424  Order.Returned */\n      0x04\n        /* \"enum.sol\":401:407  status */\n      0x00\n      dup1\n        /* \"enum.sol\":401:424  status = Order.Returned */\n      0x0100\n      exp\n      dup2\n      sload\n      dup2\n      0xff\n      mul\n      not\n      and\n      swap1\n      dup4\n      0x04\n      dup2\n      gt\n      iszero\n      tag_18\n      jumpi\n      invalid\n    tag_18:\n      mul\n      or\n      swap1\n      sstore\n      pop\n        /* \"enum.sol\":369:432  function ret() public{\r... */\n      jump\t// out\n        /* \"enum.sol\":186:271  function getstatus() public view returns(Order)\r... */\n    tag_10:\n        /* \"enum.sol\":227:232  Order */\n      0x00\n        /* \"enum.sol\":257:263  status */\n      dup1\n      0x00\n      swap1\n      sload\n      swap1\n      0x0100\n      exp\n      swap1\n      div\n      0xff\n      and\n        /* \"enum.sol\":250:263  return status */\n      swap1\n      pop\n        /* \"enum.sol\":186:271  function getstatus() public view returns(Order)\r... */\n      swap1\n      jump\t// out\n        /* \"enum.sol\":440:495  function reset() public{\r... */\n    tag_13:\n        /* \"enum.sol\":481:487  status */\n      0x00\n      dup1\n        /* \"enum.sol\":474:487  delete status */\n      0x0100\n      exp\n      dup2\n      sload\n      swap1\n      0xff\n      mul\n      not\n      and\n      swap1\n      sstore\n        /* \"enum.sol\":440:495  function reset() public{\r... */\n      jump\t// out\n        /* \"enum.sol\":279:361  function setstatus(Order _status) public \r... */\n    tag_16:\n        /* \"enum.sol\":346:353  _status */\n      dup1\n        /* \"enum.sol\":337:343  status */\n      0x00\n      dup1\n        /* \"enum.sol\":337:353  status = _status */\n      0x0100\n      exp\n      dup2\n      sload\n      dup2\n      0xff\n      mul\n      not\n      and\n      swap1\n      dup4\n      0x04\n      dup2\n      gt\n      iszero\n      tag_22\n      jumpi\n      invalid\n    tag_22:\n      mul\n      or\n      swap1\n      sstore\n      pop\n        /* \"enum.sol\":279:361  function setstatus(Order _status) public \r... */\n      pop\n      jump\t// out\n\n    auxdata: 0xa2646970667358221220ed107d5c0a27cdf36697876698f9cb309211591e331a44f2555daae33da6e58064736f6c63430007060033\n}\n",
				"bytecode": {
					"linkReferences": {},
					"object": "608060405234801561001057600080fd5b50610168806100206000396000f3fe608060405234801561001057600080fd5b506004361061004c5760003560e01c80631b08d96f146100515780633b0b02901461005b578063d826f88f14610084578063f4c3fbd11461008e575b600080fd5b6100596100bf565b005b6100636100e4565b6040518082600481111561007357fe5b815260200191505060405180910390f35b61008c6100fa565b005b6100bd600480360360208110156100a457600080fd5b81019080803560ff16906020019092919050505061010d565b005b60046000806101000a81548160ff021916908360048111156100dd57fe5b0217905550565b60008060009054906101000a900460ff16905090565b6000806101000a81549060ff0219169055565b806000806101000a81548160ff0219169083600481111561012a57fe5b02179055505056fea2646970667358221220ed107d5c0a27cdf36697876698f9cb309211591e331a44f2555daae33da6e58064736f6c63430007060033",
					"opcodes": "PUSH1 0x80 PUSH1 0x40 MSTORE CALLVALUE DUP1 ISZERO PUSH2 0x10 JUMPI PUSH1 0x0 DUP1 REVERT JUMPDEST POP PUSH2 0x168 DUP1 PUSH2 0x20 PUSH1 0x0 CODECOPY PUSH1 0x0 RETURN INVALID PUSH1 0x80 PUSH1 0x40 MSTORE CALLVALUE DUP1 ISZERO PUSH2 0x10 JUMPI PUSH1 0x0 DUP1 REVERT JUMPDEST POP PUSH1 0x4 CALLDATASIZE LT PUSH2 0x4C JUMPI PUSH1 0x0 CALLDATALOAD PUSH1 0xE0 SHR DUP1 PUSH4 0x1B08D96F EQ PUSH2 0x51 JUMPI DUP1 PUSH4 0x3B0B0290 EQ PUSH2 0x5B JUMPI DUP1 PUSH4 0xD826F88F EQ PUSH2 0x84 JUMPI DUP1 PUSH4 0xF4C3FBD1 EQ PUSH2 0x8E JUMPI JUMPDEST PUSH1 0x0 DUP1 REVERT JUMPDEST PUSH2 0x59 PUSH2 0xBF JUMP JUMPDEST STOP JUMPDEST PUSH2 0x63 PUSH2 0xE4 JUMP JUMPDEST PUSH1 0x40 MLOAD DUP1 DUP3 PUSH1 0x4 DUP2 GT ISZERO PUSH2 0x73 JUMPI INVALID JUMPDEST DUP2 MSTORE PUSH1 0x20 ADD SWAP2 POP POP PUSH1 0x40 MLOAD DUP1 SWAP2 SUB SWAP1 RETURN JUMPDEST PUSH2 0x8C PUSH2 0xFA JUMP JUMPDEST STOP JUMPDEST PUSH2 0xBD PUSH1 0x4 DUP1 CALLDATASIZE SUB PUSH1 0x20 DUP2 LT ISZERO PUSH2 0xA4 JUMPI PUSH1 0x0 DUP1 REVERT JUMPDEST DUP2 ADD SWAP1 DUP1 DUP1 CALLDATALOAD PUSH1 0xFF AND SWAP1 PUSH1 0x20 ADD SWAP1 SWAP3 SWAP2 SWAP1 POP POP POP PUSH2 0x10D JUMP JUMPDEST STOP JUMPDEST PUSH1 0x4 PUSH1 0x0 DUP1 PUSH2 0x100 EXP DUP2 SLOAD DUP2 PUSH1 0xFF MUL NOT AND SWAP1 DUP4 PUSH1 0x4 DUP2 GT ISZERO PUSH2 0xDD JUMPI INVALID JUMPDEST MUL OR SWAP1 SSTORE POP JUMP JUMPDEST PUSH1 0x0 DUP1 PUSH1 0x0 SWAP1 SLOAD SWAP1 PUSH2 0x100 EXP SWAP1 DIV PUSH1 0xFF AND SWAP1 POP SWAP1 JUMP JUMPDEST PUSH1 0x0 DUP1 PUSH2 0x100 EXP DUP2 SLOAD SWAP1 PUSH1 0xFF MUL NOT AND SWAP1 SSTORE JUMP JUMPDEST DUP1 PUSH1 0x0 DUP1 PUSH2 0x100 EXP DUP2 SLOAD DUP2 PUSH1 0xFF MUL NOT AND SWAP1 DUP4 PUSH1 0x4 DUP2 GT ISZERO PUSH2 0x12A JUMPI INVALID JUMPDEST MUL OR SWAP1 SSTORE POP POP JUMP INVALID LOG2 PUSH5 0x6970667358 0x22 SLT KECCAK256 0xED LT PUSH30 0x5C0A27CDF36697876698F9CB309211591E331A44F2555DAAE33DA6E58064 PUSH20 0x6F6C634300070600330000000000000000000000 "
				},
				"gasEstimates": {
					"creation": {
						"codeDepositCost": "72000",
						"executionCost": "123",
						"totalCost": "72123"
					},
					"external": {
						"getstatus()": "1075",
						"reset()": "21008",
						"ret()": "21009",
						"setstatus(uint8)": "21165"
					}
				},
				"methodIdentifiers": {
					"getstatus()": "3b0b0290",
					"reset()": "d826f88f",
					"ret()": "1b08d96f",
					"setstatus(uint8)": "f4c3fbd1"
				}
			},
			"storageLayout": {
				"storage": [
					{
						"astId": 9,
						"contract": "enum.sol:Enum",
						"label": "status",
						"offset": 0,
						"slot": "0",
						"type": "t_enum(Order)7"
					}
				],
				"types": {
					"t_enum(Order)7": {
						"encoding": "inplace",
						"label": "enum Enum.Order",
						"numberOfBytes": "1"
					}
				}
			},
			"userdoc": {
				"kind": "user",
				"methods": {},
				"version": 1
			}
		}
	}
}