{
	"hashfunction.sol": {
		"Hashfunction": {
			"abi": [
				{
					"inputs": [],
					"name": "Keccak",
					"outputs": [
						{
							"internalType": "bytes32",
							"name": "",
							"type": "bytes32"
						}
					],
					"stateMutability": "pure",
					"type": "function"
				},
				{
					"inputs": [],
					"name": "Ripe",
					"outputs": [
						{
							"internalType": "bytes20",
							"name": "",
							"type": "bytes20"
						}
					],
					"stateMutability": "pure",
					"type": "function"
				},
				{
					"inputs": [],
					"name": "Sha",
					"outputs": [
						{
							"internalType": "bytes32",
							"name": "",
							"type": "bytes32"
						}
					],
					"stateMutability": "pure",
					"type": "function"
				}
			],
			"devdoc": {
				"kind": "dev",
				"methods": {},
				"version": 1
			},
			"evm": {
				"assembly": "    /* \"hashfunction.sol\":76:298  contract Hashfunction{\r... */\n  mstore(0x40, 0x80)\n  callvalue\n  dup1\n  iszero\n  tag_1\n  jumpi\n  0x00\n  dup1\n  revert\ntag_1:\n  pop\n  dataSize(sub_0)\n  dup1\n  dataOffset(sub_0)\n  0x00\n  codecopy\n  0x00\n  return\nstop\n\nsub_0: assembly {\n        /* \"hashfunction.sol\":76:298  contract Hashfunction{\r... */\n      mstore(0x40, 0x80)\n      callvalue\n      dup1\n      iszero\n      tag_1\n      jumpi\n      0x00\n      dup1\n      revert\n    tag_1:\n      pop\n      jumpi(tag_2, lt(calldatasize, 0x04))\n      shr(0xe0, calldataload(0x00))\n      dup1\n      0x56bca349\n      eq\n      tag_3\n      jumpi\n      dup1\n      0x8360a397\n      eq\n      tag_4\n      jumpi\n      dup1\n      0xff14e83b\n      eq\n      tag_5\n      jumpi\n    tag_2:\n      0x00\n      dup1\n      revert\n        /* \"hashfunction.sol\":178:231  function Sha() public pure returns(bytes32){\r... */\n    tag_3:\n      tag_6\n      tag_7\n      jump\t// in\n    tag_6:\n      mload(0x40)\n      dup1\n      dup3\n      dup2\n      mstore\n      0x20\n      add\n      swap2\n      pop\n      pop\n      mload(0x40)\n      dup1\n      swap2\n      sub\n      swap1\n      return\n        /* \"hashfunction.sol\":241:295  function Ripe() public pure returns(bytes20){\r... */\n    tag_4:\n      tag_8\n      tag_9\n      jump\t// in\n    tag_8:\n      mload(0x40)\n      dup1\n      dup3\n      not(0xffffffffffffffffffffffff)\n      and\n      dup2\n      mstore\n      0x20\n      add\n      swap2\n      pop\n      pop\n      mload(0x40)\n      dup1\n      swap2\n      sub\n      swap1\n      return\n        /* \"hashfunction.sol\":106:168  function Keccak() public pure returns(bytes32)\r... */\n    tag_5:\n      tag_10\n      tag_11\n      jump\t// in\n    tag_10:\n      mload(0x40)\n      dup1\n      dup3\n      dup2\n      mstore\n      0x20\n      add\n      swap2\n      pop\n      pop\n      mload(0x40)\n      dup1\n      swap2\n      sub\n      swap1\n      return\n        /* \"hashfunction.sol\":178:231  function Sha() public pure returns(bytes32){\r... */\n    tag_7:\n        /* \"hashfunction.sol\":213:220  bytes32 */\n      0x00\n        /* \"hashfunction.sol\":178:231  function Sha() public pure returns(bytes32){\r... */\n      swap1\n      jump\t// out\n        /* \"hashfunction.sol\":241:295  function Ripe() public pure returns(bytes20){\r... */\n    tag_9:\n        /* \"hashfunction.sol\":277:284  bytes20 */\n      0x00\n        /* \"hashfunction.sol\":241:295  function Ripe() public pure returns(bytes20){\r... */\n      swap1\n      jump\t// out\n        /* \"hashfunction.sol\":106:168  function Keccak() public pure returns(bytes32)\r... */\n    tag_11:\n        /* \"hashfunction.sol\":144:151  bytes32 */\n      0x00\n        /* \"hashfunction.sol\":106:168  function Keccak() public pure returns(bytes32)\r... */\n      swap1\n      jump\t// out\n\n    auxdata: 0xa2646970667358221220f05862d56e17c9954b3cf66a51e80a14e7748fce60f0033690721e6380b1280d64736f6c63430007060033\n}\n",
				"bytecode": {
					"linkReferences": {},
					"object": "608060405234801561001057600080fd5b5060e98061001f6000396000f3fe6080604052348015600f57600080fd5b5060043610603c5760003560e01c806356bca3491460415780638360a39714605d578063ff14e83b146088575b600080fd5b604760a4565b6040518082815260200191505060405180910390f35b606360a9565b60405180826bffffffffffffffffffffffff1916815260200191505060405180910390f35b608e60ae565b6040518082815260200191505060405180910390f35b600090565b600090565b60009056fea2646970667358221220f05862d56e17c9954b3cf66a51e80a14e7748fce60f0033690721e6380b1280d64736f6c63430007060033",
					"opcodes": "PUSH1 0x80 PUSH1 0x40 MSTORE CALLVALUE DUP1 ISZERO PUSH2 0x10 JUMPI PUSH1 0x0 DUP1 REVERT JUMPDEST POP PUSH1 0xE9 DUP1 PUSH2 0x1F PUSH1 0x0 CODECOPY PUSH1 0x0 RETURN INVALID PUSH1 0x80 PUSH1 0x40 MSTORE CALLVALUE DUP1 ISZERO PUSH1 0xF JUMPI PUSH1 0x0 DUP1 REVERT JUMPDEST POP PUSH1 0x4 CALLDATASIZE LT PUSH1 0x3C JUMPI PUSH1 0x0 CALLDATALOAD PUSH1 0xE0 SHR DUP1 PUSH4 0x56BCA349 EQ PUSH1 0x41 JUMPI DUP1 PUSH4 0x8360A397 EQ PUSH1 0x5D JUMPI DUP1 PUSH4 0xFF14E83B EQ PUSH1 0x88 JUMPI JUMPDEST PUSH1 0x0 DUP1 REVERT JUMPDEST PUSH1 0x47 PUSH1 0xA4 JUMP JUMPDEST PUSH1 0x40 MLOAD DUP1 DUP3 DUP2 MSTORE PUSH1 0x20 ADD SWAP2 POP POP PUSH1 0x40 MLOAD DUP1 SWAP2 SUB SWAP1 RETURN JUMPDEST PUSH1 0x63 PUSH1 0xA9 JUMP JUMPDEST PUSH1 0x40 MLOAD DUP1 DUP3 PUSH12 0xFFFFFFFFFFFFFFFFFFFFFFFF NOT AND DUP2 MSTORE PUSH1 0x20 ADD SWAP2 POP POP PUSH1 0x40 MLOAD DUP1 SWAP2 SUB SWAP1 RETURN JUMPDEST PUSH1 0x8E PUSH1 0xAE JUMP JUMPDEST PUSH1 0x40 MLOAD DUP1 DUP3 DUP2 MSTORE PUSH1 0x20 ADD SWAP2 POP POP PUSH1 0x40 MLOAD DUP1 SWAP2 SUB SWAP1 RETURN JUMPDEST PUSH1 0x0 SWAP1 JUMP JUMPDEST PUSH1 0x0 SWAP1 JUMP JUMPDEST PUSH1 0x0 SWAP1 JUMP INVALID LOG2 PUSH5 0x6970667358 0x22 SLT KECCAK256 CREATE PC PUSH3 0xD56E17 0xC9 SWAP6 0x4B EXTCODECOPY 0xF6 PUSH11 0x51E80A14E7748FCE60F003 CALLDATASIZE SWAP1 PUSH19 0x1E6380B1280D64736F6C634300070600330000 "
				},
				"gasEstimates": {
					"creation": {
						"codeDepositCost": "46600",
						"executionCost": "99",
						"totalCost": "46699"
					},
					"external": {
						"Keccak()": "227",
						"Ripe()": "214",
						"Sha()": "183"
					}
				},
				"methodIdentifiers": {
					"Keccak()": "ff14e83b",
					"Ripe()": "8360a397",
					"Sha()": "56bca349"
				}
			},
			"storageLayout": {
				"storage": [],
				"types": null
			},
			"userdoc": {
				"kind": "user",
				"methods": {},
				"version": 1
			}
		}
	}
}