{
	"hashfunction.sol": {
		"Hashfunction": {
			"abi": [
				{
					"inputs": [
						{
							"internalType": "uint256",
							"name": "",
							"type": "uint256"
						}
					],
					"name": "Keccak",
					"outputs": [
						{
							"internalType": "bytes32",
							"name": "",
							"type": "bytes32"
						}
					],
					"stateMutability": "pure",
					"type": "function"
				},
				{
					"inputs": [],
					"name": "Ripe",
					"outputs": [
						{
							"internalType": "bytes20",
							"name": "",
							"type": "bytes20"
						}
					],
					"stateMutability": "pure",
					"type": "function"
				},
				{
					"inputs": [],
					"name": "Sha",
					"outputs": [
						{
							"internalType": "bytes32",
							"name": "",
							"type": "bytes32"
						}
					],
					"stateMutability": "pure",
					"type": "function"
				}
			],
			"devdoc": {
				"kind": "dev",
				"methods": {},
				"version": 1
			},
			"evm": {
				"assembly": "    /* \"hashfunction.sol\":76:302  contract Hashfunction{\r... */\n  mstore(0x40, 0x80)\n  callvalue\n  dup1\n  iszero\n  tag_1\n  jumpi\n  0x00\n  dup1\n  revert\ntag_1:\n  pop\n  dataSize(sub_0)\n  dup1\n  dataOffset(sub_0)\n  0x00\n  codecopy\n  0x00\n  return\nstop\n\nsub_0: assembly {\n        /* \"hashfunction.sol\":76:302  contract Hashfunction{\r... */\n      mstore(0x40, 0x80)\n      callvalue\n      dup1\n      iszero\n      tag_1\n      jumpi\n      0x00\n      dup1\n      revert\n    tag_1:\n      pop\n      jumpi(tag_2, lt(calldatasize, 0x04))\n      shr(0xe0, calldataload(0x00))\n      dup1\n      0x56bca349\n      eq\n      tag_3\n      jumpi\n      dup1\n      0x8360a397\n      eq\n      tag_4\n      jumpi\n      dup1\n      0x9bb81ada\n      eq\n      tag_5\n      jumpi\n    tag_2:\n      0x00\n      dup1\n      revert\n        /* \"hashfunction.sol\":182:235  function Sha() public pure returns(bytes32){\r... */\n    tag_3:\n      tag_6\n      tag_7\n      jump\t// in\n    tag_6:\n      mload(0x40)\n      dup1\n      dup3\n      dup2\n      mstore\n      0x20\n      add\n      swap2\n      pop\n      pop\n      mload(0x40)\n      dup1\n      swap2\n      sub\n      swap1\n      return\n        /* \"hashfunction.sol\":245:299  function Ripe() public pure returns(bytes20){\r... */\n    tag_4:\n      tag_8\n      tag_9\n      jump\t// in\n    tag_8:\n      mload(0x40)\n      dup1\n      dup3\n      not(0xffffffffffffffffffffffff)\n      and\n      dup2\n      mstore\n      0x20\n      add\n      swap2\n      pop\n      pop\n      mload(0x40)\n      dup1\n      swap2\n      sub\n      swap1\n      return\n        /* \"hashfunction.sol\":106:172  function Keccak(uint) public pure returns(bytes32)\r... */\n    tag_5:\n      tag_10\n      0x04\n      dup1\n      calldatasize\n      sub\n      0x20\n      dup2\n      lt\n      iszero\n      tag_11\n      jumpi\n      0x00\n      dup1\n      revert\n    tag_11:\n      dup2\n      add\n      swap1\n      dup1\n      dup1\n      calldataload\n      swap1\n      0x20\n      add\n      swap1\n      swap3\n      swap2\n      swap1\n      pop\n      pop\n      pop\n      tag_12\n      jump\t// in\n    tag_10:\n      mload(0x40)\n      dup1\n      dup3\n      dup2\n      mstore\n      0x20\n      add\n      swap2\n      pop\n      pop\n      mload(0x40)\n      dup1\n      swap2\n      sub\n      swap1\n      return\n        /* \"hashfunction.sol\":182:235  function Sha() public pure returns(bytes32){\r... */\n    tag_7:\n        /* \"hashfunction.sol\":217:224  bytes32 */\n      0x00\n        /* \"hashfunction.sol\":182:235  function Sha() public pure returns(bytes32){\r... */\n      swap1\n      jump\t// out\n        /* \"hashfunction.sol\":245:299  function Ripe() public pure returns(bytes20){\r... */\n    tag_9:\n        /* \"hashfunction.sol\":281:288  bytes20 */\n      0x00\n        /* \"hashfunction.sol\":245:299  function Ripe() public pure returns(bytes20){\r... */\n      swap1\n      jump\t// out\n        /* \"hashfunction.sol\":106:172  function Keccak(uint) public pure returns(bytes32)\r... */\n    tag_12:\n        /* \"hashfunction.sol\":148:155  bytes32 */\n      0x00\n        /* \"hashfunction.sol\":106:172  function Keccak(uint) public pure returns(bytes32)\r... */\n      swap2\n      swap1\n      pop\n      jump\t// out\n\n    auxdata: 0xa26469706673582212202102d52296a056d99fc1b7e3a17385417e7c3a0c763b00052b97c5052e05faca64736f6c63430007060033\n}\n",
				"bytecode": {
					"linkReferences": {},
					"object": "608060405234801561001057600080fd5b5061010e806100206000396000f3fe6080604052348015600f57600080fd5b5060043610603c5760003560e01c806356bca3491460415780638360a39714605d5780639bb81ada146088575b600080fd5b604760c7565b6040518082815260200191505060405180910390f35b606360cc565b60405180826bffffffffffffffffffffffff1916815260200191505060405180910390f35b60b160048036036020811015609c57600080fd5b810190808035906020019092919050505060d1565b6040518082815260200191505060405180910390f35b600090565b600090565b600091905056fea26469706673582212202102d52296a056d99fc1b7e3a17385417e7c3a0c763b00052b97c5052e05faca64736f6c63430007060033",
					"opcodes": "PUSH1 0x80 PUSH1 0x40 MSTORE CALLVALUE DUP1 ISZERO PUSH2 0x10 JUMPI PUSH1 0x0 DUP1 REVERT JUMPDEST POP PUSH2 0x10E DUP1 PUSH2 0x20 PUSH1 0x0 CODECOPY PUSH1 0x0 RETURN INVALID PUSH1 0x80 PUSH1 0x40 MSTORE CALLVALUE DUP1 ISZERO PUSH1 0xF JUMPI PUSH1 0x0 DUP1 REVERT JUMPDEST POP PUSH1 0x4 CALLDATASIZE LT PUSH1 0x3C JUMPI PUSH1 0x0 CALLDATALOAD PUSH1 0xE0 SHR DUP1 PUSH4 0x56BCA349 EQ PUSH1 0x41 JUMPI DUP1 PUSH4 0x8360A397 EQ PUSH1 0x5D JUMPI DUP1 PUSH4 0x9BB81ADA EQ PUSH1 0x88 JUMPI JUMPDEST PUSH1 0x0 DUP1 REVERT JUMPDEST PUSH1 0x47 PUSH1 0xC7 JUMP JUMPDEST PUSH1 0x40 MLOAD DUP1 DUP3 DUP2 MSTORE PUSH1 0x20 ADD SWAP2 POP POP PUSH1 0x40 MLOAD DUP1 SWAP2 SUB SWAP1 RETURN JUMPDEST PUSH1 0x63 PUSH1 0xCC JUMP JUMPDEST PUSH1 0x40 MLOAD DUP1 DUP3 PUSH12 0xFFFFFFFFFFFFFFFFFFFFFFFF NOT AND DUP2 MSTORE PUSH1 0x20 ADD SWAP2 POP POP PUSH1 0x40 MLOAD DUP1 SWAP2 SUB SWAP1 RETURN JUMPDEST PUSH1 0xB1 PUSH1 0x4 DUP1 CALLDATASIZE SUB PUSH1 0x20 DUP2 LT ISZERO PUSH1 0x9C JUMPI PUSH1 0x0 DUP1 REVERT JUMPDEST DUP2 ADD SWAP1 DUP1 DUP1 CALLDATALOAD SWAP1 PUSH1 0x20 ADD SWAP1 SWAP3 SWAP2 SWAP1 POP POP POP PUSH1 0xD1 JUMP JUMPDEST PUSH1 0x40 MLOAD DUP1 DUP3 DUP2 MSTORE PUSH1 0x20 ADD SWAP2 POP POP PUSH1 0x40 MLOAD DUP1 SWAP2 SUB SWAP1 RETURN JUMPDEST PUSH1 0x0 SWAP1 JUMP JUMPDEST PUSH1 0x0 SWAP1 JUMP JUMPDEST PUSH1 0x0 SWAP2 SWAP1 POP JUMP INVALID LOG2 PUSH5 0x6970667358 0x22 SLT KECCAK256 0x21 MUL 0xD5 0x22 SWAP7 LOG0 JUMP 0xD9 SWAP16 0xC1 0xB7 0xE3 LOG1 PUSH20 0x85417E7C3A0C763B00052B97C5052E05FACA6473 PUSH16 0x6C634300070600330000000000000000 "
				},
				"gasEstimates": {
					"creation": {
						"codeDepositCost": "54000",
						"executionCost": "105",
						"totalCost": "54105"
					},
					"external": {
						"Keccak(uint256)": "314",
						"Ripe()": "214",
						"Sha()": "183"
					}
				},
				"methodIdentifiers": {
					"Keccak(uint256)": "9bb81ada",
					"Ripe()": "8360a397",
					"Sha()": "56bca349"
				}
			},
			"storageLayout": {
				"storage": [],
				"types": null
			},
			"userdoc": {
				"kind": "user",
				"methods": {},
				"version": 1
			}
		}
	}
}