{
	"modifier.sol": {
		"Modifier": {
			"abi": [
				{
					"inputs": [],
					"name": "f1",
					"outputs": [],
					"stateMutability": "nonpayable",
					"type": "function"
				},
				{
					"inputs": [],
					"name": "f2",
					"outputs": [],
					"stateMutability": "pure",
					"type": "function"
				},
				{
					"inputs": [],
					"name": "f3",
					"outputs": [],
					"stateMutability": "pure",
					"type": "function"
				}
			],
			"devdoc": {
				"kind": "dev",
				"methods": {},
				"version": 1
			},
			"evm": {
				"assembly": "    /* \"modifier.sol\":74:248  contract Modifier{\r... */\n  mstore(0x40, 0x80)\n  callvalue\n  dup1\n  iszero\n  tag_1\n  jumpi\n  0x00\n  dup1\n  revert\ntag_1:\n  pop\n  dataSize(sub_0)\n  dup1\n  dataOffset(sub_0)\n  0x00\n  codecopy\n  0x00\n  return\nstop\n\nsub_0: assembly {\n        /* \"modifier.sol\":74:248  contract Modifier{\r... */\n      mstore(0x40, 0x80)\n      callvalue\n      dup1\n      iszero\n      tag_1\n      jumpi\n      0x00\n      dup1\n      revert\n    tag_1:\n      pop\n      jumpi(tag_2, lt(calldatasize, 0x04))\n      shr(0xe0, calldataload(0x00))\n      dup1\n      0x9942ec6f\n      eq\n      tag_3\n      jumpi\n      dup1\n      0xaaf05f3d\n      eq\n      tag_4\n      jumpi\n      dup1\n      0xc27fc305\n      eq\n      tag_5\n      jumpi\n    tag_2:\n      0x00\n      dup1\n      revert\n        /* \"modifier.sol\":141:184  function f2() public pure{\r... */\n    tag_3:\n      tag_6\n      tag_7\n      jump\t// in\n    tag_6:\n      stop\n        /* \"modifier.sol\":194:237  function f3() public pure{\r... */\n    tag_4:\n      tag_8\n      tag_9\n      jump\t// in\n    tag_8:\n      stop\n        /* \"modifier.sol\":100:131  function f1() public {\r... */\n    tag_5:\n      tag_10\n      tag_11\n      jump\t// in\n    tag_10:\n      stop\n        /* \"modifier.sol\":141:184  function f2() public pure{\r... */\n    tag_7:\n      jump\t// out\n        /* \"modifier.sol\":194:237  function f3() public pure{\r... */\n    tag_9:\n      jump\t// out\n        /* \"modifier.sol\":100:131  function f1() public {\r... */\n    tag_11:\n      jump\t// out\n\n    auxdata: 0xa26469706673582212206d020b45d43aa18917b2d2583d321b31e5e2321c40f89ff1abc3ee1bc912a2d364736f6c63430007060033\n}\n",
				"bytecode": {
					"linkReferences": {},
					"object": "6080604052348015600f57600080fd5b5060958061001e6000396000f3fe6080604052348015600f57600080fd5b5060043610603c5760003560e01c80639942ec6f146041578063aaf05f3d146049578063c27fc305146051575b600080fd5b60476059565b005b604f605b565b005b6057605d565b005b565b565b56fea26469706673582212206d020b45d43aa18917b2d2583d321b31e5e2321c40f89ff1abc3ee1bc912a2d364736f6c63430007060033",
					"opcodes": "PUSH1 0x80 PUSH1 0x40 MSTORE CALLVALUE DUP1 ISZERO PUSH1 0xF JUMPI PUSH1 0x0 DUP1 REVERT JUMPDEST POP PUSH1 0x95 DUP1 PUSH2 0x1E PUSH1 0x0 CODECOPY PUSH1 0x0 RETURN INVALID PUSH1 0x80 PUSH1 0x40 MSTORE CALLVALUE DUP1 ISZERO PUSH1 0xF JUMPI PUSH1 0x0 DUP1 REVERT JUMPDEST POP PUSH1 0x4 CALLDATASIZE LT PUSH1 0x3C JUMPI PUSH1 0x0 CALLDATALOAD PUSH1 0xE0 SHR DUP1 PUSH4 0x9942EC6F EQ PUSH1 0x41 JUMPI DUP1 PUSH4 0xAAF05F3D EQ PUSH1 0x49 JUMPI DUP1 PUSH4 0xC27FC305 EQ PUSH1 0x51 JUMPI JUMPDEST PUSH1 0x0 DUP1 REVERT JUMPDEST PUSH1 0x47 PUSH1 0x59 JUMP JUMPDEST STOP JUMPDEST PUSH1 0x4F PUSH1 0x5B JUMP JUMPDEST STOP JUMPDEST PUSH1 0x57 PUSH1 0x5D JUMP JUMPDEST STOP JUMPDEST JUMP JUMPDEST JUMP JUMPDEST JUMP INVALID LOG2 PUSH5 0x6970667358 0x22 SLT KECCAK256 PUSH14 0x20B45D43AA18917B2D2583D321B BALANCE 0xE5 0xE2 ORIGIN SHR BLOCKHASH 0xF8 SWAP16 CALL 0xAB 0xC3 0xEE SHL 0xC9 SLT LOG2 0xD3 PUSH5 0x736F6C6343 STOP SMOD MOD STOP CALLER "
				},
				"gasEstimates": {
					"creation": {
						"codeDepositCost": "29800",
						"executionCost": "81",
						"totalCost": "29881"
					},
					"external": {
						"f1()": "166",
						"f2()": "122",
						"f3()": "144"
					}
				},
				"methodIdentifiers": {
					"f1()": "c27fc305",
					"f2()": "9942ec6f",
					"f3()": "aaf05f3d"
				}
			},
			"storageLayout": {
				"storage": [],
				"types": null
			},
			"userdoc": {
				"kind": "user",
				"methods": {},
				"version": 1
			}
		}
	}
}