{
	"visibility.sol": {
		"b": {
			"abi": [
				{
					"inputs": [],
					"name": "f1",
					"outputs": [
						{
							"internalType": "uint256",
							"name": "",
							"type": "uint256"
						}
					],
					"stateMutability": "pure",
					"type": "function"
				},
				{
					"inputs": [],
					"name": "f4",
					"outputs": [
						{
							"internalType": "uint256",
							"name": "",
							"type": "uint256"
						}
					],
					"stateMutability": "pure",
					"type": "function"
				},
				{
					"inputs": [],
					"name": "v",
					"outputs": [
						{
							"internalType": "uint256",
							"name": "",
							"type": "uint256"
						}
					],
					"stateMutability": "view",
					"type": "function"
				}
			],
			"devdoc": {
				"kind": "dev",
				"methods": {},
				"version": 1
			},
			"evm": {
				"assembly": "    /* \"visibility.sol\":411:457  contract b is a\r... */\n  mstore(0x40, 0x80)\n    /* \"visibility.sol\":449:453  f1() */\n  tag_1\n    /* \"visibility.sol\":449:451  f1 */\n  shl(0x20, tag_2)\n    /* \"visibility.sol\":449:453  f1() */\n  0x20\n  shr\n  jump\t// in\ntag_1:\n    /* \"visibility.sol\":435:453  uint public v=f1() */\n  0x00\n  sstore\n    /* \"visibility.sol\":411:457  contract b is a\r... */\n  callvalue\n  dup1\n  iszero\n  tag_3\n  jumpi\n  0x00\n  dup1\n  revert\ntag_3:\n  pop\n  jump(tag_4)\n    /* \"visibility.sol\":93:165  function f1() public pure returns(uint)\r... */\ntag_2:\n    /* \"visibility.sol\":127:131  uint */\n  0x00\n    /* \"visibility.sol\":156:157  1 */\n  0x01\n    /* \"visibility.sol\":149:157  return 1 */\n  swap1\n  pop\n    /* \"visibility.sol\":93:165  function f1() public pure returns(uint)\r... */\n  swap1\n  jump\t// out\n    /* \"visibility.sol\":411:457  contract b is a\r... */\ntag_4:\n  dataSize(sub_0)\n  dup1\n  dataOffset(sub_0)\n  0x00\n  codecopy\n  0x00\n  return\nstop\n\nsub_0: assembly {\n        /* \"visibility.sol\":411:457  contract b is a\r... */\n      mstore(0x40, 0x80)\n      callvalue\n      dup1\n      iszero\n      tag_1\n      jumpi\n      0x00\n      dup1\n      revert\n    tag_1:\n      pop\n      jumpi(tag_2, lt(calldatasize, 0x04))\n      shr(0xe0, calldataload(0x00))\n      dup1\n      0x7c2efcba\n      eq\n      tag_3\n      jumpi\n      dup1\n      0xc27fc305\n      eq\n      tag_4\n      jumpi\n      dup1\n      0xc3f90202\n      eq\n      tag_5\n      jumpi\n    tag_2:\n      0x00\n      dup1\n      revert\n        /* \"visibility.sol\":435:453  uint public v=f1() */\n    tag_3:\n      tag_6\n      tag_7\n      jump\t// in\n    tag_6:\n      mload(0x40)\n      dup1\n      dup3\n      dup2\n      mstore\n      0x20\n      add\n      swap2\n      pop\n      pop\n      mload(0x40)\n      dup1\n      swap2\n      sub\n      swap1\n      return\n        /* \"visibility.sol\":93:165  function f1() public pure returns(uint)\r... */\n    tag_4:\n      tag_8\n      tag_9\n      jump\t// in\n    tag_8:\n      mload(0x40)\n      dup1\n      dup3\n      dup2\n      mstore\n      0x20\n      add\n      swap2\n      pop\n      pop\n      mload(0x40)\n      dup1\n      swap2\n      sub\n      swap1\n      return\n        /* \"visibility.sol\":330:404  function f4() external pure returns(uint)\r... */\n    tag_5:\n      tag_10\n      tag_11\n      jump\t// in\n    tag_10:\n      mload(0x40)\n      dup1\n      dup3\n      dup2\n      mstore\n      0x20\n      add\n      swap2\n      pop\n      pop\n      mload(0x40)\n      dup1\n      swap2\n      sub\n      swap1\n      return\n        /* \"visibility.sol\":435:453  uint public v=f1() */\n    tag_7:\n      sload(0x00)\n      dup2\n      jump\t// out\n        /* \"visibility.sol\":93:165  function f1() public pure returns(uint)\r... */\n    tag_9:\n        /* \"visibility.sol\":127:131  uint */\n      0x00\n        /* \"visibility.sol\":156:157  1 */\n      0x01\n        /* \"visibility.sol\":149:157  return 1 */\n      swap1\n      pop\n        /* \"visibility.sol\":93:165  function f1() public pure returns(uint)\r... */\n      swap1\n      jump\t// out\n        /* \"visibility.sol\":330:404  function f4() external pure returns(uint)\r... */\n    tag_11:\n        /* \"visibility.sol\":366:370  uint */\n      0x00\n        /* \"visibility.sol\":395:396  4 */\n      0x04\n        /* \"visibility.sol\":388:396  return 4 */\n      swap1\n      pop\n        /* \"visibility.sol\":330:404  function f4() external pure returns(uint)\r... */\n      swap1\n      jump\t// out\n\n    auxdata: 0xa26469706673582212208937c8c1d008ffc654833cf5a035dc32203bd8eca9ea6b4fb0f155500310039c64736f6c63430007060033\n}\n",
				"bytecode": {
					"linkReferences": {},
					"object": "608060405261001261002760201b60201c565b60005534801561002157600080fd5b50610030565b60006001905090565b60e38061003e6000396000f3fe6080604052348015600f57600080fd5b5060043610603c5760003560e01c80637c2efcba146041578063c27fc30514605d578063c3f90202146079575b600080fd5b60476095565b6040518082815260200191505060405180910390f35b6063609b565b6040518082815260200191505060405180910390f35b607f60a4565b6040518082815260200191505060405180910390f35b60005481565b60006001905090565b6000600490509056fea26469706673582212208937c8c1d008ffc654833cf5a035dc32203bd8eca9ea6b4fb0f155500310039c64736f6c63430007060033",
					"opcodes": "PUSH1 0x80 PUSH1 0x40 MSTORE PUSH2 0x12 PUSH2 0x27 PUSH1 0x20 SHL PUSH1 0x20 SHR JUMP JUMPDEST PUSH1 0x0 SSTORE CALLVALUE DUP1 ISZERO PUSH2 0x21 JUMPI PUSH1 0x0 DUP1 REVERT JUMPDEST POP PUSH2 0x30 JUMP JUMPDEST PUSH1 0x0 PUSH1 0x1 SWAP1 POP SWAP1 JUMP JUMPDEST PUSH1 0xE3 DUP1 PUSH2 0x3E PUSH1 0x0 CODECOPY PUSH1 0x0 RETURN INVALID PUSH1 0x80 PUSH1 0x40 MSTORE CALLVALUE DUP1 ISZERO PUSH1 0xF JUMPI PUSH1 0x0 DUP1 REVERT JUMPDEST POP PUSH1 0x4 CALLDATASIZE LT PUSH1 0x3C JUMPI PUSH1 0x0 CALLDATALOAD PUSH1 0xE0 SHR DUP1 PUSH4 0x7C2EFCBA EQ PUSH1 0x41 JUMPI DUP1 PUSH4 0xC27FC305 EQ PUSH1 0x5D JUMPI DUP1 PUSH4 0xC3F90202 EQ PUSH1 0x79 JUMPI JUMPDEST PUSH1 0x0 DUP1 REVERT JUMPDEST PUSH1 0x47 PUSH1 0x95 JUMP JUMPDEST PUSH1 0x40 MLOAD DUP1 DUP3 DUP2 MSTORE PUSH1 0x20 ADD SWAP2 POP POP PUSH1 0x40 MLOAD DUP1 SWAP2 SUB SWAP1 RETURN JUMPDEST PUSH1 0x63 PUSH1 0x9B JUMP JUMPDEST PUSH1 0x40 MLOAD DUP1 DUP3 DUP2 MSTORE PUSH1 0x20 ADD SWAP2 POP POP PUSH1 0x40 MLOAD DUP1 SWAP2 SUB SWAP1 RETURN JUMPDEST PUSH1 0x7F PUSH1 0xA4 JUMP JUMPDEST PUSH1 0x40 MLOAD DUP1 DUP3 DUP2 MSTORE PUSH1 0x20 ADD SWAP2 POP POP PUSH1 0x40 MLOAD DUP1 SWAP2 SUB SWAP1 RETURN JUMPDEST PUSH1 0x0 SLOAD DUP2 JUMP JUMPDEST PUSH1 0x0 PUSH1 0x1 SWAP1 POP SWAP1 JUMP JUMPDEST PUSH1 0x0 PUSH1 0x4 SWAP1 POP SWAP1 JUMP INVALID LOG2 PUSH5 0x6970667358 0x22 SLT KECCAK256 DUP10 CALLDATACOPY 0xC8 0xC1 0xD0 ADDMOD SELFDESTRUCT 0xC6 SLOAD DUP4 EXTCODECOPY CREATE2 LOG0 CALLDATALOAD 0xDC ORIGIN KECCAK256 EXTCODESIZE 0xD8 0xEC 0xA9 0xEA PUSH12 0x4FB0F155500310039C64736F PUSH13 0x63430007060033000000000000 "
				},
				"gasEstimates": {
					"creation": {
						"codeDepositCost": "45400",
						"executionCost": "infinite",
						"totalCost": "infinite"
					},
					"external": {
						"f1()": "213",
						"f4()": "235",
						"v()": "983"
					}
				},
				"methodIdentifiers": {
					"f1()": "c27fc305",
					"f4()": "c3f90202",
					"v()": "7c2efcba"
				}
			},
			"storageLayout": {
				"storage": [
					{
						"astId": 40,
						"contract": "visibility.sol:b",
						"label": "v",
						"offset": 0,
						"slot": "0",
						"type": "t_uint256"
					}
				],
				"types": {
					"t_uint256": {
						"encoding": "inplace",
						"label": "uint256",
						"numberOfBytes": "32"
					}
				}
			},
			"userdoc": {
				"kind": "user",
				"methods": {},
				"version": 1
			}
		}
	}
}