{
	"boolean.sol": {
		"fjbdvkno": {
			"abi": [
				{
					"inputs": [
						{
							"internalType": "uint256",
							"name": "a",
							"type": "uint256"
						}
					],
					"name": "check",
					"outputs": [
						{
							"internalType": "bool",
							"name": "",
							"type": "bool"
						}
					],
					"stateMutability": "pure",
					"type": "function"
				}
			],
			"devdoc": {
				"kind": "dev",
				"methods": {},
				"version": 1
			},
			"evm": {
				"assembly": "    /* \"boolean.sol\":74:343  contract fjbdvkno\r... */\n  mstore(0x40, 0x80)\n  callvalue\n  dup1\n  iszero\n  tag_1\n  jumpi\n  0x00\n  dup1\n  revert\ntag_1:\n  pop\n  dataSize(sub_0)\n  dup1\n  dataOffset(sub_0)\n  0x00\n  codecopy\n  0x00\n  return\nstop\n\nsub_0: assembly {\n        /* \"boolean.sol\":74:343  contract fjbdvkno\r... */\n      mstore(0x40, 0x80)\n      callvalue\n      dup1\n      iszero\n      tag_1\n      jumpi\n      0x00\n      dup1\n      revert\n    tag_1:\n      pop\n      jumpi(tag_2, lt(calldatasize, 0x04))\n      shr(0xe0, calldataload(0x00))\n      dup1\n      0x5f72f450\n      eq\n      tag_3\n      jumpi\n    tag_2:\n      0x00\n      dup1\n      revert\n        /* \"boolean.sol\":119:330  function check(uint a) public pure returns(bool)\r... */\n    tag_3:\n      tag_4\n      0x04\n      dup1\n      calldatasize\n      sub\n      0x20\n      dup2\n      lt\n      iszero\n      tag_5\n      jumpi\n      0x00\n      dup1\n      revert\n    tag_5:\n      dup2\n      add\n      swap1\n      dup1\n      dup1\n      calldataload\n      swap1\n      0x20\n      add\n      swap1\n      swap3\n      swap2\n      swap1\n      pop\n      pop\n      pop\n      tag_6\n      jump\t// in\n    tag_4:\n      mload(0x40)\n      dup1\n      dup3\n      iszero\n      iszero\n      dup2\n      mstore\n      0x20\n      add\n      swap2\n      pop\n      pop\n      mload(0x40)\n      dup1\n      swap2\n      sub\n      swap1\n      return\n    tag_6:\n        /* \"boolean.sol\":162:166  bool */\n      0x00\n        /* \"boolean.sol\":190:193  190 */\n      0xbe\n        /* \"boolean.sol\":188:189  a */\n      dup3\n        /* \"boolean.sol\":188:193  a<190 */\n      lt\n        /* \"boolean.sol\":184:323  if (a<190)\r... */\n      iszero\n      tag_8\n      jumpi\n        /* \"boolean.sol\":242:246  true */\n      0x01\n        /* \"boolean.sol\":235:246  return true */\n      swap1\n      pop\n      jump(tag_7)\n        /* \"boolean.sol\":184:323  if (a<190)\r... */\n    tag_8:\n        /* \"boolean.sol\":306:311  false */\n      0x00\n        /* \"boolean.sol\":299:311  return false */\n      swap1\n      pop\n        /* \"boolean.sol\":119:330  function check(uint a) public pure returns(bool)\r... */\n    tag_7:\n      swap2\n      swap1\n      pop\n      jump\t// out\n\n    auxdata: 0xa264697066735822122036f4e04c41eddf739f5f70da25b577721f56c454ef4a595f00843ebeef88a43a64736f6c63430007060033\n}\n",
				"bytecode": {
					"linkReferences": {},
					"object": "608060405234801561001057600080fd5b5060c08061001f6000396000f3fe6080604052348015600f57600080fd5b506004361060285760003560e01c80635f72f45014602d575b600080fd5b605660048036036020811015604157600080fd5b8101908080359060200190929190505050606e565b60405180821515815260200191505060405180910390f35b600060be821015608057600190506085565b600090505b91905056fea264697066735822122036f4e04c41eddf739f5f70da25b577721f56c454ef4a595f00843ebeef88a43a64736f6c63430007060033",
					"opcodes": "PUSH1 0x80 PUSH1 0x40 MSTORE CALLVALUE DUP1 ISZERO PUSH2 0x10 JUMPI PUSH1 0x0 DUP1 REVERT JUMPDEST POP PUSH1 0xC0 DUP1 PUSH2 0x1F PUSH1 0x0 CODECOPY PUSH1 0x0 RETURN INVALID PUSH1 0x80 PUSH1 0x40 MSTORE CALLVALUE DUP1 ISZERO PUSH1 0xF JUMPI PUSH1 0x0 DUP1 REVERT JUMPDEST POP PUSH1 0x4 CALLDATASIZE LT PUSH1 0x28 JUMPI PUSH1 0x0 CALLDATALOAD PUSH1 0xE0 SHR DUP1 PUSH4 0x5F72F450 EQ PUSH1 0x2D JUMPI JUMPDEST PUSH1 0x0 DUP1 REVERT JUMPDEST PUSH1 0x56 PUSH1 0x4 DUP1 CALLDATASIZE SUB PUSH1 0x20 DUP2 LT ISZERO PUSH1 0x41 JUMPI PUSH1 0x0 DUP1 REVERT JUMPDEST DUP2 ADD SWAP1 DUP1 DUP1 CALLDATALOAD SWAP1 PUSH1 0x20 ADD SWAP1 SWAP3 SWAP2 SWAP1 POP POP POP PUSH1 0x6E JUMP JUMPDEST PUSH1 0x40 MLOAD DUP1 DUP3 ISZERO ISZERO DUP2 MSTORE PUSH1 0x20 ADD SWAP2 POP POP PUSH1 0x40 MLOAD DUP1 SWAP2 SUB SWAP1 RETURN JUMPDEST PUSH1 0x0 PUSH1 0xBE DUP3 LT ISZERO PUSH1 0x80 JUMPI PUSH1 0x1 SWAP1 POP PUSH1 0x85 JUMP JUMPDEST PUSH1 0x0 SWAP1 POP JUMPDEST SWAP2 SWAP1 POP JUMP INVALID LOG2 PUSH5 0x6970667358 0x22 SLT KECCAK256 CALLDATASIZE DELEGATECALL 0xE0 0x4C COINBASE 0xED 0xDF PUSH20 0x9F5F70DA25B577721F56C454EF4A595F00843EBE 0xEF DUP9 LOG4 GASPRICE PUSH5 0x736F6C6343 STOP SMOD MOD STOP CALLER "
				},
				"gasEstimates": {
					"creation": {
						"codeDepositCost": "38400",
						"executionCost": "87",
						"totalCost": "38487"
					},
					"external": {
						"check(uint256)": "321"
					}
				},
				"methodIdentifiers": {
					"check(uint256)": "5f72f450"
				}
			},
			"storageLayout": {
				"storage": [
					{
						"astId": 3,
						"contract": "boolean.sol:fjbdvkno",
						"label": "value",
						"offset": 0,
						"slot": "0",
						"type": "t_bool"
					}
				],
				"types": {
					"t_bool": {
						"encoding": "inplace",
						"label": "bool",
						"numberOfBytes": "1"
					}
				}
			},
			"userdoc": {
				"kind": "user",
				"methods": {},
				"version": 1
			}
		}
	}
}