{
	"setterngetter.sol": {
		"local": {
			"abi": [
				{
					"inputs": [],
					"name": "getter",
					"outputs": [
						{
							"internalType": "uint256",
							"name": "",
							"type": "uint256"
						}
					],
					"stateMutability": "view",
					"type": "function"
				},
				{
					"inputs": [],
					"name": "setter",
					"outputs": [],
					"stateMutability": "nonpayable",
					"type": "function"
				}
			],
			"devdoc": {
				"kind": "dev",
				"methods": {},
				"version": 1
			},
			"evm": {
				"assembly": "    /* \"setterngetter.sol\":74:266  contract local{\r... */\n  mstore(0x40, 0x80)\n    /* \"setterngetter.sol\":104:106  10 */\n  0x0a\n    /* \"setterngetter.sol\":95:106  uint age=10 */\n  0x00\n  sstore\n    /* \"setterngetter.sol\":74:266  contract local{\r... */\n  callvalue\n  dup1\n  iszero\n  tag_1\n  jumpi\n  0x00\n  dup1\n  revert\ntag_1:\n  pop\n  dataSize(sub_0)\n  dup1\n  dataOffset(sub_0)\n  0x00\n  codecopy\n  0x00\n  return\nstop\n\nsub_0: assembly {\n        /* \"setterngetter.sol\":74:266  contract local{\r... */\n      mstore(0x40, 0x80)\n      callvalue\n      dup1\n      iszero\n      tag_1\n      jumpi\n      0x00\n      dup1\n      revert\n    tag_1:\n      pop\n      jumpi(tag_2, lt(calldatasize, 0x04))\n      shr(0xe0, calldataload(0x00))\n      dup1\n      0x3f3108f7\n      eq\n      tag_3\n      jumpi\n      dup1\n      0x993a04b7\n      eq\n      tag_4\n      jumpi\n    tag_2:\n      0x00\n      dup1\n      revert\n        /* \"setterngetter.sol\":201:259  function setter() public\r... */\n    tag_3:\n      tag_5\n      tag_6\n      jump\t// in\n    tag_5:\n      stop\n        /* \"setterngetter.sol\":115:193  function getter() public view returns(uint)\r... */\n    tag_4:\n      tag_7\n      tag_8\n      jump\t// in\n    tag_7:\n      mload(0x40)\n      dup1\n      dup3\n      dup2\n      mstore\n      0x20\n      add\n      swap2\n      pop\n      pop\n      mload(0x40)\n      dup1\n      swap2\n      sub\n      swap1\n      return\n        /* \"setterngetter.sol\":201:259  function setter() public\r... */\n    tag_6:\n        /* \"setterngetter.sol\":250:251  3 */\n      0x03\n        /* \"setterngetter.sol\":246:249  age */\n      sload(0x00)\n        /* \"setterngetter.sol\":246:251  age+3 */\n      add\n        /* \"setterngetter.sol\":242:245  age */\n      0x00\n        /* \"setterngetter.sol\":242:251  age=age+3 */\n      dup2\n      swap1\n      sstore\n      pop\n        /* \"setterngetter.sol\":201:259  function setter() public\r... */\n      jump\t// out\n        /* \"setterngetter.sol\":115:193  function getter() public view returns(uint)\r... */\n    tag_8:\n        /* \"setterngetter.sol\":153:157  uint */\n      0x00\n        /* \"setterngetter.sol\":182:185  age */\n      dup1\n      sload\n        /* \"setterngetter.sol\":175:185  return age */\n      swap1\n      pop\n        /* \"setterngetter.sol\":115:193  function getter() public view returns(uint)\r... */\n      swap1\n      jump\t// out\n\n    auxdata: 0xa26469706673582212202f8da648abd443e7bc923ba52fe252bc80a1861e0b24303691e36483cdc681c164736f6c63430007060033\n}\n",
				"bytecode": {
					"linkReferences": {},
					"object": "6080604052600a600055348015601457600080fd5b5060a8806100236000396000f3fe6080604052348015600f57600080fd5b506004361060325760003560e01c80633f3108f7146037578063993a04b714603f575b600080fd5b603d605b565b005b60456069565b6040518082815260200191505060405180910390f35b600360005401600081905550565b6000805490509056fea26469706673582212202f8da648abd443e7bc923ba52fe252bc80a1861e0b24303691e36483cdc681c164736f6c63430007060033",
					"opcodes": "PUSH1 0x80 PUSH1 0x40 MSTORE PUSH1 0xA PUSH1 0x0 SSTORE CALLVALUE DUP1 ISZERO PUSH1 0x14 JUMPI PUSH1 0x0 DUP1 REVERT JUMPDEST POP PUSH1 0xA8 DUP1 PUSH2 0x23 PUSH1 0x0 CODECOPY PUSH1 0x0 RETURN INVALID PUSH1 0x80 PUSH1 0x40 MSTORE CALLVALUE DUP1 ISZERO PUSH1 0xF JUMPI PUSH1 0x0 DUP1 REVERT JUMPDEST POP PUSH1 0x4 CALLDATASIZE LT PUSH1 0x32 JUMPI PUSH1 0x0 CALLDATALOAD PUSH1 0xE0 SHR DUP1 PUSH4 0x3F3108F7 EQ PUSH1 0x37 JUMPI DUP1 PUSH4 0x993A04B7 EQ PUSH1 0x3F JUMPI JUMPDEST PUSH1 0x0 DUP1 REVERT JUMPDEST PUSH1 0x3D PUSH1 0x5B JUMP JUMPDEST STOP JUMPDEST PUSH1 0x45 PUSH1 0x69 JUMP JUMPDEST PUSH1 0x40 MLOAD DUP1 DUP3 DUP2 MSTORE PUSH1 0x20 ADD SWAP2 POP POP PUSH1 0x40 MLOAD DUP1 SWAP2 SUB SWAP1 RETURN JUMPDEST PUSH1 0x3 PUSH1 0x0 SLOAD ADD PUSH1 0x0 DUP2 SWAP1 SSTORE POP JUMP JUMPDEST PUSH1 0x0 DUP1 SLOAD SWAP1 POP SWAP1 JUMP INVALID LOG2 PUSH5 0x6970667358 0x22 SLT KECCAK256 0x2F DUP14 0xA6 0x48 0xAB 0xD4 NUMBER 0xE7 0xBC SWAP3 EXTCODESIZE 0xA5 0x2F 0xE2 MSTORE 0xBC DUP1 LOG1 DUP7 0x1E SIGNEXTEND 0x24 ADDRESS CALLDATASIZE SWAP2 0xE3 PUSH5 0x83CDC681C1 PUSH5 0x736F6C6343 STOP SMOD MOD STOP CALLER "
				},
				"gasEstimates": {
					"creation": {
						"codeDepositCost": "33600",
						"executionCost": "20093",
						"totalCost": "53693"
					},
					"external": {
						"getter()": "1013",
						"setter()": "20942"
					}
				},
				"methodIdentifiers": {
					"getter()": "993a04b7",
					"setter()": "3f3108f7"
				}
			},
			"storageLayout": {
				"storage": [
					{
						"astId": 4,
						"contract": "setterngetter.sol:local",
						"label": "age",
						"offset": 0,
						"slot": "0",
						"type": "t_uint256"
					}
				],
				"types": {
					"t_uint256": {
						"encoding": "inplace",
						"label": "uint256",
						"numberOfBytes": "32"
					}
				}
			},
			"userdoc": {
				"kind": "user",
				"methods": {},
				"version": 1
			}
		}
	}
}