{
	"enumm.sol": {
		"Enumm": {
			"abi": [
				{
					"inputs": [],
					"name": "lottery",
					"outputs": [
						{
							"internalType": "uint256",
							"name": "",
							"type": "uint256"
						}
					],
					"stateMutability": "view",
					"type": "function"
				},
				{
					"inputs": [],
					"name": "setter",
					"outputs": [],
					"stateMutability": "nonpayable",
					"type": "function"
				},
				{
					"inputs": [],
					"name": "u1",
					"outputs": [
						{
							"internalType": "enum Enumm.user",
							"name": "",
							"type": "uint8"
						}
					],
					"stateMutability": "view",
					"type": "function"
				}
			],
			"devdoc": {
				"kind": "dev",
				"methods": {},
				"version": 1
			},
			"evm": {
				"assembly": "    /* \"enumm.sol\":74:338  contract Enumm\r... */\n  mstore(0x40, 0x80)\n    /* \"enumm.sol\":158:174  user.not_allowed */\n  0x01\n    /* \"enumm.sol\":143:174  user public u1=user.not_allowed */\n  0x00\n  dup1\n  0x0100\n  exp\n  dup2\n  sload\n  dup2\n  0xff\n  mul\n  not\n  and\n  swap1\n  dup4\n  0x02\n  dup2\n  gt\n  iszero\n  tag_1\n  jumpi\n  invalid\ntag_1:\n  mul\n  or\n  swap1\n  sstore\n  pop\n    /* \"enumm.sol\":203:206  100 */\n  0x64\n    /* \"enumm.sol\":183:206  uint public lottery=100 */\n  0x01\n  sstore\n    /* \"enumm.sol\":74:338  contract Enumm\r... */\n  callvalue\n  dup1\n  iszero\n  tag_2\n  jumpi\n  0x00\n  dup1\n  revert\ntag_2:\n  pop\n  dataSize(sub_0)\n  dup1\n  dataOffset(sub_0)\n  0x00\n  codecopy\n  0x00\n  return\nstop\n\nsub_0: assembly {\n        /* \"enumm.sol\":74:338  contract Enumm\r... */\n      mstore(0x40, 0x80)\n      callvalue\n      dup1\n      iszero\n      tag_1\n      jumpi\n      0x00\n      dup1\n      revert\n    tag_1:\n      pop\n      jumpi(tag_2, lt(calldatasize, 0x04))\n      shr(0xe0, calldataload(0x00))\n      dup1\n      0x1aa35610\n      eq\n      tag_3\n      jumpi\n      dup1\n      0x3f3108f7\n      eq\n      tag_4\n      jumpi\n      dup1\n      0xba13a572\n      eq\n      tag_5\n      jumpi\n    tag_2:\n      0x00\n      dup1\n      revert\n        /* \"enumm.sol\":143:174  user public u1=user.not_allowed */\n    tag_3:\n      tag_6\n      tag_7\n      jump\t// in\n    tag_6:\n      mload(0x40)\n      dup1\n      dup3\n      0x02\n      dup2\n      gt\n      iszero\n      tag_8\n      jumpi\n      invalid\n    tag_8:\n      dup2\n      mstore\n      0x20\n      add\n      swap2\n      pop\n      pop\n      mload(0x40)\n      dup1\n      swap2\n      sub\n      swap1\n      return\n        /* \"enumm.sol\":215:323  function setter() public{\r... */\n    tag_4:\n      tag_9\n      tag_10\n      jump\t// in\n    tag_9:\n      stop\n        /* \"enumm.sol\":183:206  uint public lottery=100 */\n    tag_5:\n      tag_11\n      tag_12\n      jump\t// in\n    tag_11:\n      mload(0x40)\n      dup1\n      dup3\n      dup2\n      mstore\n      0x20\n      add\n      swap2\n      pop\n      pop\n      mload(0x40)\n      dup1\n      swap2\n      sub\n      swap1\n      return\n        /* \"enumm.sol\":143:174  user public u1=user.not_allowed */\n    tag_7:\n      0x00\n      dup1\n      sload\n      swap1\n      0x0100\n      exp\n      swap1\n      div\n      0xff\n      and\n      dup2\n      jump\t// out\n        /* \"enumm.sol\":215:323  function setter() public{\r... */\n    tag_10:\n        /* \"enumm.sol\":260:269  user.wait */\n      0x02\n        /* \"enumm.sol\":256:269  u1==user.wait */\n      dup1\n      dup2\n      gt\n      iszero\n      tag_14\n      jumpi\n      invalid\n    tag_14:\n        /* \"enumm.sol\":256:258  u1 */\n      0x00\n      dup1\n      sload\n      swap1\n      0x0100\n      exp\n      swap1\n      div\n      0xff\n      and\n        /* \"enumm.sol\":256:269  u1==user.wait */\n      0x02\n      dup2\n      gt\n      iszero\n      tag_15\n      jumpi\n      invalid\n    tag_15:\n      eq\n        /* \"enumm.sol\":252:316  if (u1==user.wait)\r... */\n      iszero\n      tag_16\n      jumpi\n        /* \"enumm.sol\":303:304  0 */\n      0x00\n        /* \"enumm.sol\":295:302  lottery */\n      0x01\n        /* \"enumm.sol\":295:304  lottery=0 */\n      dup2\n      swap1\n      sstore\n      pop\n        /* \"enumm.sol\":252:316  if (u1==user.wait)\r... */\n    tag_16:\n        /* \"enumm.sol\":215:323  function setter() public{\r... */\n      jump\t// out\n        /* \"enumm.sol\":183:206  uint public lottery=100 */\n    tag_12:\n      sload(0x01)\n      dup2\n      jump\t// out\n\n    auxdata: 0xa26469706673582212208f8d3c485371fffa8d1fd843b8e5dc7d11f6b236a3f10278fe970aedb91a8b7b64736f6c63430007060033\n}\n",
				"bytecode": {
					"linkReferences": {},
					"object": "608060405260016000806101000a81548160ff0219169083600281111561002257fe5b0217905550606460015534801561003857600080fd5b5061010b806100486000396000f3fe6080604052348015600f57600080fd5b5060043610603c5760003560e01c80631aa356101460415780633f3108f7146067578063ba13a57214606f575b600080fd5b6047608b565b60405180826002811115605657fe5b815260200191505060405180910390f35b606d609c565b005b607560cf565b6040518082815260200191505060405180910390f35b60008054906101000a900460ff1681565b60028081111560a757fe5b60008054906101000a900460ff16600281111560bf57fe5b141560cd5760006001819055505b565b6001548156fea26469706673582212208f8d3c485371fffa8d1fd843b8e5dc7d11f6b236a3f10278fe970aedb91a8b7b64736f6c63430007060033",
					"opcodes": "PUSH1 0x80 PUSH1 0x40 MSTORE PUSH1 0x1 PUSH1 0x0 DUP1 PUSH2 0x100 EXP DUP2 SLOAD DUP2 PUSH1 0xFF MUL NOT AND SWAP1 DUP4 PUSH1 0x2 DUP2 GT ISZERO PUSH2 0x22 JUMPI INVALID JUMPDEST MUL OR SWAP1 SSTORE POP PUSH1 0x64 PUSH1 0x1 SSTORE CALLVALUE DUP1 ISZERO PUSH2 0x38 JUMPI PUSH1 0x0 DUP1 REVERT JUMPDEST POP PUSH2 0x10B DUP1 PUSH2 0x48 PUSH1 0x0 CODECOPY PUSH1 0x0 RETURN INVALID PUSH1 0x80 PUSH1 0x40 MSTORE CALLVALUE DUP1 ISZERO PUSH1 0xF JUMPI PUSH1 0x0 DUP1 REVERT JUMPDEST POP PUSH1 0x4 CALLDATASIZE LT PUSH1 0x3C JUMPI PUSH1 0x0 CALLDATALOAD PUSH1 0xE0 SHR DUP1 PUSH4 0x1AA35610 EQ PUSH1 0x41 JUMPI DUP1 PUSH4 0x3F3108F7 EQ PUSH1 0x67 JUMPI DUP1 PUSH4 0xBA13A572 EQ PUSH1 0x6F JUMPI JUMPDEST PUSH1 0x0 DUP1 REVERT JUMPDEST PUSH1 0x47 PUSH1 0x8B JUMP JUMPDEST PUSH1 0x40 MLOAD DUP1 DUP3 PUSH1 0x2 DUP2 GT ISZERO PUSH1 0x56 JUMPI INVALID JUMPDEST DUP2 MSTORE PUSH1 0x20 ADD SWAP2 POP POP PUSH1 0x40 MLOAD DUP1 SWAP2 SUB SWAP1 RETURN JUMPDEST PUSH1 0x6D PUSH1 0x9C JUMP JUMPDEST STOP JUMPDEST PUSH1 0x75 PUSH1 0xCF JUMP JUMPDEST PUSH1 0x40 MLOAD DUP1 DUP3 DUP2 MSTORE PUSH1 0x20 ADD SWAP2 POP POP PUSH1 0x40 MLOAD DUP1 SWAP2 SUB SWAP1 RETURN JUMPDEST PUSH1 0x0 DUP1 SLOAD SWAP1 PUSH2 0x100 EXP SWAP1 DIV PUSH1 0xFF AND DUP2 JUMP JUMPDEST PUSH1 0x2 DUP1 DUP2 GT ISZERO PUSH1 0xA7 JUMPI INVALID JUMPDEST PUSH1 0x0 DUP1 SLOAD SWAP1 PUSH2 0x100 EXP SWAP1 DIV PUSH1 0xFF AND PUSH1 0x2 DUP2 GT ISZERO PUSH1 0xBF JUMPI INVALID JUMPDEST EQ ISZERO PUSH1 0xCD JUMPI PUSH1 0x0 PUSH1 0x1 DUP2 SWAP1 SSTORE POP JUMPDEST JUMP JUMPDEST PUSH1 0x1 SLOAD DUP2 JUMP INVALID LOG2 PUSH5 0x6970667358 0x22 SLT KECCAK256 DUP16 DUP14 EXTCODECOPY 0x48 MSTORE8 PUSH18 0xFFFA8D1FD843B8E5DC7D11F6B236A3F10278 INVALID SWAP8 EXP 0xED 0xB9 BYTE DUP12 PUSH28 0x64736F6C634300070600330000000000000000000000000000000000 "
				},
				"gasEstimates": {
					"creation": {
						"codeDepositCost": "53400",
						"executionCost": "40998",
						"totalCost": "94398"
					},
					"external": {
						"lottery()": "1027",
						"setter()": "6069",
						"u1()": "1042"
					}
				},
				"methodIdentifiers": {
					"lottery()": "ba13a572",
					"setter()": "3f3108f7",
					"u1()": "1aa35610"
				}
			},
			"storageLayout": {
				"storage": [
					{
						"astId": 9,
						"contract": "enumm.sol:Enumm",
						"label": "u1",
						"offset": 0,
						"slot": "0",
						"type": "t_enum(user)5"
					},
					{
						"astId": 12,
						"contract": "enumm.sol:Enumm",
						"label": "lottery",
						"offset": 0,
						"slot": "1",
						"type": "t_uint256"
					}
				],
				"types": {
					"t_enum(user)5": {
						"encoding": "inplace",
						"label": "enum Enumm.user",
						"numberOfBytes": "1"
					},
					"t_uint256": {
						"encoding": "inplace",
						"label": "uint256",
						"numberOfBytes": "32"
					}
				}
			},
			"userdoc": {
				"kind": "user",
				"methods": {},
				"version": 1
			}
		}
	}
}