{
	"localvariables.sol": {
		"local": {
			"abi": [
				{
					"inputs": [],
					"name": "mine",
					"outputs": [
						{
							"internalType": "uint256",
							"name": "",
							"type": "uint256"
						}
					],
					"stateMutability": "pure",
					"type": "function"
				}
			],
			"devdoc": {
				"kind": "dev",
				"methods": {},
				"version": 1
			},
			"evm": {
				"assembly": "    /* \"localvariables.sol\":74:257  contract local\r... */\n  mstore(0x40, 0x80)\n  callvalue\n  dup1\n  iszero\n  tag_1\n  jumpi\n  0x00\n  dup1\n  revert\ntag_1:\n  pop\n  dataSize(sub_0)\n  dup1\n  dataOffset(sub_0)\n  0x00\n  codecopy\n  0x00\n  return\nstop\n\nsub_0: assembly {\n        /* \"localvariables.sol\":74:257  contract local\r... */\n      mstore(0x40, 0x80)\n      callvalue\n      dup1\n      iszero\n      tag_1\n      jumpi\n      0x00\n      dup1\n      revert\n    tag_1:\n      pop\n      jumpi(tag_2, lt(calldatasize, 0x04))\n      shr(0xe0, calldataload(0x00))\n      dup1\n      0x99f4b251\n      eq\n      tag_3\n      jumpi\n    tag_2:\n      0x00\n      dup1\n      revert\n        /* \"localvariables.sol\":99:242  function mine() pure public returns(uint)\r... */\n    tag_3:\n      tag_4\n      tag_5\n      jump\t// in\n    tag_4:\n      mload(0x40)\n      dup1\n      dup3\n      dup2\n      mstore\n      0x20\n      add\n      swap2\n      pop\n      pop\n      mload(0x40)\n      dup1\n      swap2\n      sub\n      swap1\n      return\n    tag_5:\n        /* \"localvariables.sol\":135:139  uint */\n      0x00\n        /* \"localvariables.sol\":157:175  string memory name */\n      dup1\n        /* \"localvariables.sol\":157:183  string memory name=\"vipin\" */\n      mload(0x40)\n      dup1\n      0x40\n      add\n      0x40\n      mstore\n      dup1\n      0x05\n      dup2\n      mstore\n      0x20\n      add\n      0x766970696e000000000000000000000000000000000000000000000000000000\n      dup2\n      mstore\n      pop\n      swap1\n      pop\n        /* \"localvariables.sol\":194:202  uint age */\n      0x00\n        /* \"localvariables.sol\":203:205  99 */\n      0x63\n        /* \"localvariables.sol\":194:205  uint age=99 */\n      swap1\n      pop\n        /* \"localvariables.sol\":223:226  age */\n      dup1\n        /* \"localvariables.sol\":216:226  return age */\n      swap3\n      pop\n      pop\n      pop\n        /* \"localvariables.sol\":99:242  function mine() pure public returns(uint)\r... */\n      swap1\n      jump\t// out\n\n    auxdata: 0xa2646970667358221220217a1f31a32cb99acd2f54158d6ba269428751e9692f5d55ef374333aeca556964736f6c63430007060033\n}\n",
				"bytecode": {
					"linkReferences": {},
					"object": "6080604052348015600f57600080fd5b5060c88061001e6000396000f3fe6080604052348015600f57600080fd5b506004361060285760003560e01c806399f4b25114602d575b600080fd5b60336049565b6040518082815260200191505060405180910390f35b6000806040518060400160405280600581526020017f766970696e000000000000000000000000000000000000000000000000000000815250905060006063905080925050509056fea2646970667358221220217a1f31a32cb99acd2f54158d6ba269428751e9692f5d55ef374333aeca556964736f6c63430007060033",
					"opcodes": "PUSH1 0x80 PUSH1 0x40 MSTORE CALLVALUE DUP1 ISZERO PUSH1 0xF JUMPI PUSH1 0x0 DUP1 REVERT JUMPDEST POP PUSH1 0xC8 DUP1 PUSH2 0x1E PUSH1 0x0 CODECOPY PUSH1 0x0 RETURN INVALID PUSH1 0x80 PUSH1 0x40 MSTORE CALLVALUE DUP1 ISZERO PUSH1 0xF JUMPI PUSH1 0x0 DUP1 REVERT JUMPDEST POP PUSH1 0x4 CALLDATASIZE LT PUSH1 0x28 JUMPI PUSH1 0x0 CALLDATALOAD PUSH1 0xE0 SHR DUP1 PUSH4 0x99F4B251 EQ PUSH1 0x2D JUMPI JUMPDEST PUSH1 0x0 DUP1 REVERT JUMPDEST PUSH1 0x33 PUSH1 0x49 JUMP JUMPDEST PUSH1 0x40 MLOAD DUP1 DUP3 DUP2 MSTORE PUSH1 0x20 ADD SWAP2 POP POP PUSH1 0x40 MLOAD DUP1 SWAP2 SUB SWAP1 RETURN JUMPDEST PUSH1 0x0 DUP1 PUSH1 0x40 MLOAD DUP1 PUSH1 0x40 ADD PUSH1 0x40 MSTORE DUP1 PUSH1 0x5 DUP2 MSTORE PUSH1 0x20 ADD PUSH32 0x766970696E000000000000000000000000000000000000000000000000000000 DUP2 MSTORE POP SWAP1 POP PUSH1 0x0 PUSH1 0x63 SWAP1 POP DUP1 SWAP3 POP POP POP SWAP1 JUMP INVALID LOG2 PUSH5 0x6970667358 0x22 SLT KECCAK256 0x21 PUSH27 0x1F31A32CB99ACD2F54158D6BA269428751E9692F5D55EF374333AE 0xCA SSTORE PUSH10 0x64736F6C634300070600 CALLER "
				},
				"gasEstimates": {
					"creation": {
						"codeDepositCost": "40000",
						"executionCost": "93",
						"totalCost": "40093"
					},
					"external": {
						"mine()": "270"
					}
				},
				"methodIdentifiers": {
					"mine()": "99f4b251"
				}
			},
			"storageLayout": {
				"storage": [],
				"types": null
			},
			"userdoc": {
				"kind": "user",
				"methods": {},
				"version": 1
			}
		}
	}
}