{
	"data": {
		"bytecode": {
			"linkReferences": {},
			"object": "608060405261001261002760201b60201c565b60005534801561002157600080fd5b50610030565b60006001905090565b60e38061003e6000396000f3fe6080604052348015600f57600080fd5b5060043610603c5760003560e01c80637c2efcba146041578063c27fc30514605d578063c3f90202146079575b600080fd5b60476095565b6040518082815260200191505060405180910390f35b6063609b565b6040518082815260200191505060405180910390f35b607f60a4565b6040518082815260200191505060405180910390f35b60005481565b60006001905090565b6000600490509056fea26469706673582212203fc22802e10ab6b3842cb3e8a746445b9bc71e0af9b820260167a9d6c1dda9df64736f6c63430007060033",
			"opcodes": "PUSH1 0x80 PUSH1 0x40 MSTORE PUSH2 0x12 PUSH2 0x27 PUSH1 0x20 SHL PUSH1 0x20 SHR JUMP JUMPDEST PUSH1 0x0 SSTORE CALLVALUE DUP1 ISZERO PUSH2 0x21 JUMPI PUSH1 0x0 DUP1 REVERT JUMPDEST POP PUSH2 0x30 JUMP JUMPDEST PUSH1 0x0 PUSH1 0x1 SWAP1 POP SWAP1 JUMP JUMPDEST PUSH1 0xE3 DUP1 PUSH2 0x3E PUSH1 0x0 CODECOPY PUSH1 0x0 RETURN INVALID PUSH1 0x80 PUSH1 0x40 MSTORE CALLVALUE DUP1 ISZERO PUSH1 0xF JUMPI PUSH1 0x0 DUP1 REVERT JUMPDEST POP PUSH1 0x4 CALLDATASIZE LT PUSH1 0x3C JUMPI PUSH1 0x0 CALLDATALOAD PUSH1 0xE0 SHR DUP1 PUSH4 0x7C2EFCBA EQ PUSH1 0x41 JUMPI DUP1 PUSH4 0xC27FC305 EQ PUSH1 0x5D JUMPI DUP1 PUSH4 0xC3F90202 EQ PUSH1 0x79 JUMPI JUMPDEST PUSH1 0x0 DUP1 REVERT JUMPDEST PUSH1 0x47 PUSH1 0x95 JUMP JUMPDEST PUSH1 0x40 MLOAD DUP1 DUP3 DUP2 MSTORE PUSH1 0x20 ADD SWAP2 POP POP PUSH1 0x40 MLOAD DUP1 SWAP2 SUB SWAP1 RETURN JUMPDEST PUSH1 0x63 PUSH1 0x9B JUMP JUMPDEST PUSH1 0x40 MLOAD DUP1 DUP3 DUP2 MSTORE PUSH1 0x20 ADD SWAP2 POP POP PUSH1 0x40 MLOAD DUP1 SWAP2 SUB SWAP1 RETURN JUMPDEST PUSH1 0x7F PUSH1 0xA4 JUMP JUMPDEST PUSH1 0x40 MLOAD DUP1 DUP3 DUP2 MSTORE PUSH1 0x20 ADD SWAP2 POP POP PUSH1 0x40 MLOAD DUP1 SWAP2 SUB SWAP1 RETURN JUMPDEST PUSH1 0x0 SLOAD DUP2 JUMP JUMPDEST PUSH1 0x0 PUSH1 0x1 SWAP1 POP SWAP1 JUMP JUMPDEST PUSH1 0x0 PUSH1 0x4 SWAP1 POP SWAP1 JUMP INVALID LOG2 PUSH5 0x6970667358 0x22 SLT KECCAK256 EXTCODEHASH 0xC2 0x28 MUL 0xE1 EXP 0xB6 0xB3 DUP5 0x2C 0xB3 0xE8 0xA7 CHAINID DIFFICULTY JUMPDEST SWAP12 0xC7 0x1E EXP 0xF9 0xB8 KECCAK256 0x26 ADD PUSH8 0xA9D6C1DDA9DF6473 PUSH16 0x6C634300070600330000000000000000 "
		},
		"gasEstimates": {
			"creation": {
				"codeDepositCost": "45400",
				"executionCost": "infinite",
				"totalCost": "infinite"
			},
			"external": {
				"f1()": "213",
				"f4()": "235",
				"v()": "983"
			}
		},
		"methodIdentifiers": {
			"f1()": "c27fc305",
			"f4()": "c3f90202",
			"v()": "7c2efcba"
		}
	},
	"abi": [
		{
			"inputs": [],
			"name": "f1",
			"outputs": [
				{
					"internalType": "uint256",
					"name": "",
					"type": "uint256"
				}
			],
			"stateMutability": "pure",
			"type": "function"
		},
		{
			"inputs": [],
			"name": "f4",
			"outputs": [
				{
					"internalType": "uint256",
					"name": "",
					"type": "uint256"
				}
			],
			"stateMutability": "pure",
			"type": "function"
		},
		{
			"inputs": [],
			"name": "v",
			"outputs": [
				{
					"internalType": "uint256",
					"name": "",
					"type": "uint256"
				}
			],
			"stateMutability": "view",
			"type": "function"
		}
	]
}