{
	"data": {
		"bytecode": {
			"linkReferences": {},
			"object": "608060405234801561001057600080fd5b506040516100e23803806100e28339818101604052602081101561003357600080fd5b8101908080519060200190929190505050600281016000819055505060858061005d6000396000f3fe6080604052348015600f57600080fd5b506004361060285760003560e01c8063262a9dff14602d575b600080fd5b60336049565b6040518082815260200191505060405180910390f35b6000548156fea26469706673582212208a10ba3f3999c69161a5318537ec26e94d2c47aa96221e158a030dc470ceb3ef64736f6c63430007060033",
			"opcodes": "PUSH1 0x80 PUSH1 0x40 MSTORE CALLVALUE DUP1 ISZERO PUSH2 0x10 JUMPI PUSH1 0x0 DUP1 REVERT JUMPDEST POP PUSH1 0x40 MLOAD PUSH2 0xE2 CODESIZE SUB DUP1 PUSH2 0xE2 DUP4 CODECOPY DUP2 DUP2 ADD PUSH1 0x40 MSTORE PUSH1 0x20 DUP2 LT ISZERO PUSH2 0x33 JUMPI PUSH1 0x0 DUP1 REVERT JUMPDEST DUP2 ADD SWAP1 DUP1 DUP1 MLOAD SWAP1 PUSH1 0x20 ADD SWAP1 SWAP3 SWAP2 SWAP1 POP POP POP PUSH1 0x2 DUP2 ADD PUSH1 0x0 DUP2 SWAP1 SSTORE POP POP PUSH1 0x85 DUP1 PUSH2 0x5D PUSH1 0x0 CODECOPY PUSH1 0x0 RETURN INVALID PUSH1 0x80 PUSH1 0x40 MSTORE CALLVALUE DUP1 ISZERO PUSH1 0xF JUMPI PUSH1 0x0 DUP1 REVERT JUMPDEST POP PUSH1 0x4 CALLDATASIZE LT PUSH1 0x28 JUMPI PUSH1 0x0 CALLDATALOAD PUSH1 0xE0 SHR DUP1 PUSH4 0x262A9DFF EQ PUSH1 0x2D JUMPI JUMPDEST PUSH1 0x0 DUP1 REVERT JUMPDEST PUSH1 0x33 PUSH1 0x49 JUMP JUMPDEST PUSH1 0x40 MLOAD DUP1 DUP3 DUP2 MSTORE PUSH1 0x20 ADD SWAP2 POP POP PUSH1 0x40 MLOAD DUP1 SWAP2 SUB SWAP1 RETURN JUMPDEST PUSH1 0x0 SLOAD DUP2 JUMP INVALID LOG2 PUSH5 0x6970667358 0x22 SLT KECCAK256 DUP11 LT 0xBA EXTCODEHASH CODECOPY SWAP10 0xC6 SWAP2 PUSH2 0xA531 DUP6 CALLDATACOPY 0xEC 0x26 0xE9 0x4D 0x2C SELFBALANCE 0xAA SWAP7 0x22 0x1E ISZERO DUP11 SUB 0xD 0xC4 PUSH17 0xCEB3EF64736F6C63430007060033000000 "
		},
		"gasEstimates": {
			"creation": {
				"codeDepositCost": "26600",
				"executionCost": "infinite",
				"totalCost": "infinite"
			},
			"external": {
				"age()": "983"
			}
		},
		"methodIdentifiers": {
			"age()": "262a9dff"
		}
	},
	"abi": [
		{
			"inputs": [
				{
					"internalType": "uint256",
					"name": "newage",
					"type": "uint256"
				}
			],
			"stateMutability": "nonpayable",
			"type": "constructor"
		},
		{
			"inputs": [],
			"name": "age",
			"outputs": [
				{
					"internalType": "uint256",
					"name": "",
					"type": "uint256"
				}
			],
			"stateMutability": "view",
			"type": "function"
		}
	]
}